{
	".learneth/ethereum/remix-workshops/3. Primitive Data Types/primitiveDataTypes.sol": {
		"Primitives": {
			"abi": [
				{
					"inputs": [],
					"name": "addr",
					"outputs": [
						{
							"internalType": "address",
							"name": "",
							"type": "address"
						}
					],
					"stateMutability": "view",
					"type": "function"
				},
				{
					"inputs": [],
					"name": "boo",
					"outputs": [
						{
							"internalType": "bool",
							"name": "",
							"type": "bool"
						}
					],
					"stateMutability": "view",
					"type": "function"
				},
				{
					"inputs": [],
					"name": "defaultAddr",
					"outputs": [
						{
							"internalType": "address",
							"name": "",
							"type": "address"
						}
					],
					"stateMutability": "view",
					"type": "function"
				},
				{
					"inputs": [],
					"name": "defaultBoo",
					"outputs": [
						{
							"internalType": "bool",
							"name": "",
							"type": "bool"
						}
					],
					"stateMutability": "view",
					"type": "function"
				},
				{
					"inputs": [],
					"name": "defaultInt",
					"outputs": [
						{
							"internalType": "int256",
							"name": "",
							"type": "int256"
						}
					],
					"stateMutability": "view",
					"type": "function"
				},
				{
					"inputs": [],
					"name": "defaultUint",
					"outputs": [
						{
							"internalType": "uint256",
							"name": "",
							"type": "uint256"
						}
					],
					"stateMutability": "view",
					"type": "function"
				},
				{
					"inputs": [],
					"name": "i",
					"outputs": [
						{
							"internalType": "int256",
							"name": "",
							"type": "int256"
						}
					],
					"stateMutability": "view",
					"type": "function"
				},
				{
					"inputs": [],
					"name": "i256",
					"outputs": [
						{
							"internalType": "int256",
							"name": "",
							"type": "int256"
						}
					],
					"stateMutability": "view",
					"type": "function"
				},
				{
					"inputs": [],
					"name": "i8",
					"outputs": [
						{
							"internalType": "int8",
							"name": "",
							"type": "int8"
						}
					],
					"stateMutability": "view",
					"type": "function"
				},
				{
					"inputs": [],
					"name": "neg",
					"outputs": [
						{
							"internalType": "int256",
							"name": "",
							"type": "int256"
						}
					],
					"stateMutability": "view",
					"type": "function"
				},
				{
					"inputs": [],
					"name": "newAddr",
					"outputs": [
						{
							"internalType": "address",
							"name": "",
							"type": "address"
						}
					],
					"stateMutability": "view",
					"type": "function"
				},
				{
					"inputs": [],
					"name": "newU",
					"outputs": [
						{
							"internalType": "uint8",
							"name": "",
							"type": "uint8"
						}
					],
					"stateMutability": "view",
					"type": "function"
				},
				{
					"inputs": [],
					"name": "u",
					"outputs": [
						{
							"internalType": "uint256",
							"name": "",
							"type": "uint256"
						}
					],
					"stateMutability": "view",
					"type": "function"
				},
				{
					"inputs": [],
					"name": "u256",
					"outputs": [
						{
							"internalType": "uint256",
							"name": "",
							"type": "uint256"
						}
					],
					"stateMutability": "view",
					"type": "function"
				},
				{
					"inputs": [],
					"name": "u8",
					"outputs": [
						{
							"internalType": "uint8",
							"name": "",
							"type": "uint8"
						}
					],
					"stateMutability": "view",
					"type": "function"
				}
			],
			"devdoc": {
				"kind": "dev",
				"methods": {},
				"version": 1
			},
			"evm": {
				"assembly": "    /* \".learneth/ethereum/remix-workshops/3. Primitive Data Types/primitiveDataTypes.sol\":57:1163  contract Primitives {... */\n  mstore(0x40, 0x80)\n    /* \".learneth/ethereum/remix-workshops/3. Primitive Data Types/primitiveDataTypes.sol\":83:105  bool public boo = true */\n  0x00\n  dup1\n  sload\n    /* \".learneth/ethereum/remix-workshops/3. Primitive Data Types/primitiveDataTypes.sol\":375:394  uint8 public u8 = 1 */\n  0x0101\n  not(0xffff)\n  swap1\n  swap2\n  and\n  or\n  swap1\n  sstore\n    /* \".learneth/ethereum/remix-workshops/3. Primitive Data Types/primitiveDataTypes.sol\":419:422  456 */\n  0x01c8\n    /* \".learneth/ethereum/remix-workshops/3. Primitive Data Types/primitiveDataTypes.sol\":101:105  true */\n  0x01\n    /* \".learneth/ethereum/remix-workshops/3. Primitive Data Types/primitiveDataTypes.sol\":400:422  uint public u256 = 456 */\n  dup2\n  swap1\n  sstore\n    /* \".learneth/ethereum/remix-workshops/3. Primitive Data Types/primitiveDataTypes.sol\":444:447  123 */\n  0x7b\n    /* \".learneth/ethereum/remix-workshops/3. Primitive Data Types/primitiveDataTypes.sol\":428:447  uint public u = 123 */\n  0x02\n  swap1\n  dup2\n  sstore\n    /* \".learneth/ethereum/remix-workshops/3. Primitive Data Types/primitiveDataTypes.sol\":614:633  int8 public i8 = -1 */\n  0x03\n  dup1\n  sload\n  not(0xff)\n  swap1\n  dup2\n  and\n    /* \".learneth/ethereum/remix-workshops/3. Primitive Data Types/primitiveDataTypes.sol\":83:105  bool public boo = true */\n  0xff\n    /* \".learneth/ethereum/remix-workshops/3. Primitive Data Types/primitiveDataTypes.sol\":614:633  int8 public i8 = -1 */\n  or\n  swap1\n  swap2\n  sstore\n    /* \".learneth/ethereum/remix-workshops/3. Primitive Data Types/primitiveDataTypes.sol\":639:660  int public i256 = 456 */\n  0x04\n  swap3\n  swap1\n  swap3\n  sstore\n  not(0x7a)\n    /* \".learneth/ethereum/remix-workshops/3. Primitive Data Types/primitiveDataTypes.sol\":666:685  int public i = -123 */\n  0x05\n  sstore\n    /* \".learneth/ethereum/remix-workshops/3. Primitive Data Types/primitiveDataTypes.sol\":717:781  address public addr = 0xCA35b7d915458EF540aDe6068dFe2F44E8fa733c */\n  0x06\n  dup1\n  sload\n  not(sub(shl(0xa0, 0x01), 0x01))\n  swap1\n  dup2\n  and\n    /* \".learneth/ethereum/remix-workshops/3. Primitive Data Types/primitiveDataTypes.sol\":739:781  0xCA35b7d915458EF540aDe6068dFe2F44E8fa733c */\n  0xca35b7d915458ef540ade6068dfe2f44e8fa733c\n    /* \".learneth/ethereum/remix-workshops/3. Primitive Data Types/primitiveDataTypes.sol\":717:781  address public addr = 0xCA35b7d915458EF540aDe6068dFe2F44E8fa733c */\n  or\n  swap1\n  swap2\n  sstore\n    /* \".learneth/ethereum/remix-workshops/3. Primitive Data Types/primitiveDataTypes.sol\":1041:1108  address public newAddr = 0x40b0E9e3e7Be5B7aB61154b162cB77e231D496BE */\n  0x0a\n  dup1\n  sload\n  swap1\n  swap2\n  and\n    /* \".learneth/ethereum/remix-workshops/3. Primitive Data Types/primitiveDataTypes.sol\":1066:1108  0x40b0E9e3e7Be5B7aB61154b162cB77e231D496BE */\n  0x40b0e9e3e7be5b7ab61154b162cb77e231d496be\n    /* \".learneth/ethereum/remix-workshops/3. Primitive Data Types/primitiveDataTypes.sol\":1041:1108  address public newAddr = 0x40b0E9e3e7Be5B7aB61154b162cB77e231D496BE */\n  or\n  swap1\n  sstore\n  not(0x01)\n    /* \".learneth/ethereum/remix-workshops/3. Primitive Data Types/primitiveDataTypes.sol\":1114:1133  int public neg = -2 */\n  0x0b\n  sstore\n    /* \".learneth/ethereum/remix-workshops/3. Primitive Data Types/primitiveDataTypes.sol\":1139:1160  uint8 public newU = 2 */\n  0x0c\n  dup1\n  sload\n  swap1\n  swap3\n  and\n  or\n  swap1\n  sstore\n    /* \".learneth/ethereum/remix-workshops/3. Primitive Data Types/primitiveDataTypes.sol\":57:1163  contract Primitives {... */\n  callvalue\n  dup1\n  iszero\n  tag_1\n  jumpi\n  0x00\n  dup1\n  revert\ntag_1:\n  pop\n  dataSize(sub_0)\n  dup1\n  dataOffset(sub_0)\n  0x00\n  codecopy\n  0x00\n  return\nstop\n\nsub_0: assembly {\n        /* \".learneth/ethereum/remix-workshops/3. Primitive Data Types/primitiveDataTypes.sol\":57:1163  contract Primitives {... */\n      mstore(0x40, 0x80)\n      callvalue\n      dup1\n      iszero\n      tag_1\n      jumpi\n      0x00\n      dup1\n      revert\n    tag_1:\n      pop\n      jumpi(tag_2, lt(calldatasize, 0x04))\n      shr(0xe0, calldataload(0x00))\n      dup1\n      0x6a76e307\n      gt\n      tag_18\n      jumpi\n      dup1\n      0xab3a58a3\n      gt\n      tag_19\n      jumpi\n      dup1\n      0xab3a58a3\n      eq\n      tag_14\n      jumpi\n      dup1\n      0xc6a898c5\n      eq\n      tag_15\n      jumpi\n      dup1\n      0xe5aa3d58\n      eq\n      tag_16\n      jumpi\n      dup1\n      0xf2427d37\n      eq\n      tag_17\n      jumpi\n      0x00\n      dup1\n      revert\n    tag_19:\n      dup1\n      0x6a76e307\n      eq\n      tag_10\n      jumpi\n      dup1\n      0x767800de\n      eq\n      tag_11\n      jumpi\n      dup1\n      0x78063b1f\n      eq\n      tag_12\n      jumpi\n      dup1\n      0x921cda74\n      eq\n      tag_13\n      jumpi\n      0x00\n      dup1\n      revert\n    tag_18:\n      dup1\n      0x459b1acf\n      gt\n      tag_20\n      jumpi\n      dup1\n      0x459b1acf\n      eq\n      tag_6\n      jumpi\n      dup1\n      0x4b3df200\n      eq\n      tag_7\n      jumpi\n      dup1\n      0x4c27fd62\n      eq\n      tag_8\n      jumpi\n      dup1\n      0x5abe622b\n      eq\n      tag_9\n      jumpi\n      0x00\n      dup1\n      revert\n    tag_20:\n      dup1\n      0x074eef3f\n      eq\n      tag_3\n      jumpi\n      dup1\n      0x149d8ffc\n      eq\n      tag_4\n      jumpi\n      dup1\n      0x1570c2cb\n      eq\n      tag_5\n      jumpi\n    tag_2:\n      0x00\n      dup1\n      revert\n        /* \".learneth/ethereum/remix-workshops/3. Primitive Data Types/primitiveDataTypes.sol\":859:881  bool public defaultBoo */\n    tag_3:\n      sload(0x06)\n      tag_21\n      swap1\n      shl(0xa0, 0x01)\n      swap1\n      div\n      0xff\n      and\n      dup2\n      jump\n    tag_21:\n      mload(0x40)\n        /* \"#utility.yul\":179:193   */\n      swap1\n      iszero\n        /* \"#utility.yul\":172:194   */\n      iszero\n        /* \"#utility.yul\":154:195   */\n      dup2\n      mstore\n        /* \"#utility.yul\":142:144   */\n      0x20\n        /* \"#utility.yul\":127:145   */\n      add\n        /* \".learneth/ethereum/remix-workshops/3. Primitive Data Types/primitiveDataTypes.sol\":859:881  bool public defaultBoo */\n    tag_23:\n      mload(0x40)\n      dup1\n      swap2\n      sub\n      swap1\n      return\n        /* \".learneth/ethereum/remix-workshops/3. Primitive Data Types/primitiveDataTypes.sol\":1139:1160  uint8 public newU = 2 */\n    tag_4:\n      sload(0x0c)\n      tag_25\n      swap1\n      0xff\n      and\n      dup2\n      jump\n    tag_25:\n      mload(0x40)\n        /* \"#utility.yul\":378:382   */\n      0xff\n        /* \"#utility.yul\":366:383   */\n      swap1\n      swap2\n      and\n        /* \"#utility.yul\":348:384   */\n      dup2\n      mstore\n        /* \"#utility.yul\":336:338   */\n      0x20\n        /* \"#utility.yul\":321:339   */\n      add\n        /* \".learneth/ethereum/remix-workshops/3. Primitive Data Types/primitiveDataTypes.sol\":1139:1160  uint8 public newU = 2 */\n      tag_23\n        /* \"#utility.yul\":206:390   */\n      jump\n        /* \".learneth/ethereum/remix-workshops/3. Primitive Data Types/primitiveDataTypes.sol\":896:919  uint public defaultUint */\n    tag_5:\n      tag_29\n      sload(0x07)\n      dup2\n      jump\n    tag_29:\n      mload(0x40)\n        /* \"#utility.yul\":541:566   */\n      swap1\n      dup2\n      mstore\n        /* \"#utility.yul\":529:531   */\n      0x20\n        /* \"#utility.yul\":514:532   */\n      add\n        /* \".learneth/ethereum/remix-workshops/3. Primitive Data Types/primitiveDataTypes.sol\":896:919  uint public defaultUint */\n      tag_23\n        /* \"#utility.yul\":395:572   */\n      jump\n        /* \".learneth/ethereum/remix-workshops/3. Primitive Data Types/primitiveDataTypes.sol\":400:422  uint public u256 = 456 */\n    tag_6:\n      tag_29\n      sload(0x01)\n      dup2\n      jump\n        /* \".learneth/ethereum/remix-workshops/3. Primitive Data Types/primitiveDataTypes.sol\":83:105  bool public boo = true */\n    tag_7:\n      sload(0x00)\n      tag_21\n      swap1\n      0xff\n      and\n      dup2\n      jump\n        /* \".learneth/ethereum/remix-workshops/3. Primitive Data Types/primitiveDataTypes.sol\":639:660  int public i256 = 456 */\n    tag_8:\n      tag_29\n      sload(0x04)\n      dup2\n      jump\n        /* \".learneth/ethereum/remix-workshops/3. Primitive Data Types/primitiveDataTypes.sol\":930:951  int public defaultInt */\n    tag_9:\n      tag_29\n      sload(0x08)\n      dup2\n      jump\n        /* \".learneth/ethereum/remix-workshops/3. Primitive Data Types/primitiveDataTypes.sol\":1041:1108  address public newAddr = 0x40b0E9e3e7Be5B7aB61154b162cB77e231D496BE */\n    tag_10:\n      sload(0x0a)\n      tag_46\n      swap1\n      sub(shl(0xa0, 0x01), 0x01)\n      and\n      dup2\n      jump\n    tag_46:\n      mload(0x40)\n      sub(shl(0xa0, 0x01), 0x01)\n        /* \"#utility.yul\":921:953   */\n      swap1\n      swap2\n      and\n        /* \"#utility.yul\":903:954   */\n      dup2\n      mstore\n        /* \"#utility.yul\":891:893   */\n      0x20\n        /* \"#utility.yul\":876:894   */\n      add\n        /* \".learneth/ethereum/remix-workshops/3. Primitive Data Types/primitiveDataTypes.sol\":1041:1108  address public newAddr = 0x40b0E9e3e7Be5B7aB61154b162cB77e231D496BE */\n      tag_23\n        /* \"#utility.yul\":757:960   */\n      jump\n        /* \".learneth/ethereum/remix-workshops/3. Primitive Data Types/primitiveDataTypes.sol\":717:781  address public addr = 0xCA35b7d915458EF540aDe6068dFe2F44E8fa733c */\n    tag_11:\n      sload(0x06)\n      tag_46\n      swap1\n      sub(shl(0xa0, 0x01), 0x01)\n      and\n      dup2\n      jump\n        /* \".learneth/ethereum/remix-workshops/3. Primitive Data Types/primitiveDataTypes.sol\":1114:1133  int public neg = -2 */\n    tag_12:\n      tag_29\n      sload(0x0b)\n      dup2\n      jump\n        /* \".learneth/ethereum/remix-workshops/3. Primitive Data Types/primitiveDataTypes.sol\":614:633  int8 public i8 = -1 */\n    tag_13:\n      sload(0x03)\n      tag_56\n      swap1\n      0x00\n      signextend\n      dup2\n      jump\n    tag_56:\n      mload(0x40)\n        /* \"#utility.yul\":1051:1055   */\n      0x00\n        /* \"#utility.yul\":1123:1144   */\n      swap2\n      swap1\n      swap2\n      signextend\n        /* \"#utility.yul\":1105:1145   */\n      dup2\n      mstore\n        /* \"#utility.yul\":1093:1095   */\n      0x20\n        /* \"#utility.yul\":1078:1096   */\n      add\n        /* \".learneth/ethereum/remix-workshops/3. Primitive Data Types/primitiveDataTypes.sol\":614:633  int8 public i8 = -1 */\n      tag_23\n        /* \"#utility.yul\":965:1151   */\n      jump\n        /* \".learneth/ethereum/remix-workshops/3. Primitive Data Types/primitiveDataTypes.sol\":375:394  uint8 public u8 = 1 */\n    tag_14:\n      sload(0x00)\n      tag_25\n      swap1\n      0x0100\n      swap1\n      div\n      0xff\n      and\n      dup2\n      jump\n        /* \".learneth/ethereum/remix-workshops/3. Primitive Data Types/primitiveDataTypes.sol\":428:447  uint public u = 123 */\n    tag_15:\n      tag_29\n      sload(0x02)\n      dup2\n      jump\n        /* \".learneth/ethereum/remix-workshops/3. Primitive Data Types/primitiveDataTypes.sol\":666:685  int public i = -123 */\n    tag_16:\n      tag_29\n      sload(0x05)\n      dup2\n      jump\n        /* \".learneth/ethereum/remix-workshops/3. Primitive Data Types/primitiveDataTypes.sol\":962:988  address public defaultAddr */\n    tag_17:\n      sload(0x09)\n      tag_46\n      swap1\n      sub(shl(0xa0, 0x01), 0x01)\n      and\n      dup2\n      jump\n\n    auxdata: 0xa2646970667358221220030b23adb75ffb5dd30eacbef4848736d598c6fe557727d82a61a6249d3526ed64736f6c63430008180033\n}\n",
				"bytecode": {
					"linkReferences": {},
					"object": "60806040525f805461010161ffff199091161790556101c86001819055607b60029081556003805460ff1990811660ff17909155600492909255607a19600555600680546001600160a01b031990811673ca35b7d915458ef540ade6068dfe2f44e8fa733c17909155600a80549091167340b0e9e3e7be5b7ab61154b162cb77e231d496be179055600119600b55600c80549092161790553480156100a2575f80fd5b5061024b806100b05f395ff3fe608060405234801561000f575f80fd5b50600436106100f0575f3560e01c80636a76e30711610093578063ab3a58a311610063578063ab3a58a3146101df578063c6a898c5146101f0578063e5aa3d58146101f9578063f2427d3714610202575f80fd5b80636a76e3071461017a578063767800de146101a557806378063b1f146101b8578063921cda74146101c1575f80fd5b8063459b1acf116100ce578063459b1acf146101535780634b3df2001461015c5780634c27fd62146101685780635abe622b14610171575f80fd5b8063074eef3f146100f4578063149d8ffc1461011d5780631570c2cb1461013c575b5f80fd5b60065461010890600160a01b900460ff1681565b60405190151581526020015b60405180910390f35b600c5461012a9060ff1681565b60405160ff9091168152602001610114565b61014560075481565b604051908152602001610114565b61014560015481565b5f546101089060ff1681565b61014560045481565b61014560085481565b600a5461018d906001600160a01b031681565b6040516001600160a01b039091168152602001610114565b60065461018d906001600160a01b031681565b610145600b5481565b6003546101cd905f0b81565b6040515f9190910b8152602001610114565b5f5461012a90610100900460ff1681565b61014560025481565b61014560055481565b60095461018d906001600160a01b03168156fea2646970667358221220030b23adb75ffb5dd30eacbef4848736d598c6fe557727d82a61a6249d3526ed64736f6c63430008180033",
					"opcodes": "PUSH1 0x80 PUSH1 0x40 MSTORE PUSH0 DUP1 SLOAD PUSH2 0x101 PUSH2 0xFFFF NOT SWAP1 SWAP2 AND OR SWAP1 SSTORE PUSH2 0x1C8 PUSH1 0x1 DUP2 SWAP1 SSTORE PUSH1 0x7B PUSH1 0x2 SWAP1 DUP2 SSTORE PUSH1 0x3 DUP1 SLOAD PUSH1 0xFF NOT SWAP1 DUP2 AND PUSH1 0xFF OR SWAP1 SWAP2 SSTORE PUSH1 0x4 SWAP3 SWAP1 SWAP3 SSTORE PUSH1 0x7A NOT PUSH1 0x5 SSTORE PUSH1 0x6 DUP1 SLOAD PUSH1 0x1 PUSH1 0x1 PUSH1 0xA0 SHL SUB NOT SWAP1 DUP2 AND PUSH20 0xCA35B7D915458EF540ADE6068DFE2F44E8FA733C OR SWAP1 SWAP2 SSTORE PUSH1 0xA DUP1 SLOAD SWAP1 SWAP2 AND PUSH20 0x40B0E9E3E7BE5B7AB61154B162CB77E231D496BE OR SWAP1 SSTORE PUSH1 0x1 NOT PUSH1 0xB SSTORE PUSH1 0xC DUP1 SLOAD SWAP1 SWAP3 AND OR SWAP1 SSTORE CALLVALUE DUP1 ISZERO PUSH2 0xA2 JUMPI PUSH0 DUP1 REVERT JUMPDEST POP PUSH2 0x24B DUP1 PUSH2 0xB0 PUSH0 CODECOPY PUSH0 RETURN INVALID PUSH1 0x80 PUSH1 0x40 MSTORE CALLVALUE DUP1 ISZERO PUSH2 0xF JUMPI PUSH0 DUP1 REVERT JUMPDEST POP PUSH1 0x4 CALLDATASIZE LT PUSH2 0xF0 JUMPI PUSH0 CALLDATALOAD PUSH1 0xE0 SHR DUP1 PUSH4 0x6A76E307 GT PUSH2 0x93 JUMPI DUP1 PUSH4 0xAB3A58A3 GT PUSH2 0x63 JUMPI DUP1 PUSH4 0xAB3A58A3 EQ PUSH2 0x1DF JUMPI DUP1 PUSH4 0xC6A898C5 EQ PUSH2 0x1F0 JUMPI DUP1 PUSH4 0xE5AA3D58 EQ PUSH2 0x1F9 JUMPI DUP1 PUSH4 0xF2427D37 EQ PUSH2 0x202 JUMPI PUSH0 DUP1 REVERT JUMPDEST DUP1 PUSH4 0x6A76E307 EQ PUSH2 0x17A JUMPI DUP1 PUSH4 0x767800DE EQ PUSH2 0x1A5 JUMPI DUP1 PUSH4 0x78063B1F EQ PUSH2 0x1B8 JUMPI DUP1 PUSH4 0x921CDA74 EQ PUSH2 0x1C1 JUMPI PUSH0 DUP1 REVERT JUMPDEST DUP1 PUSH4 0x459B1ACF GT PUSH2 0xCE JUMPI DUP1 PUSH4 0x459B1ACF EQ PUSH2 0x153 JUMPI DUP1 PUSH4 0x4B3DF200 EQ PUSH2 0x15C JUMPI DUP1 PUSH4 0x4C27FD62 EQ PUSH2 0x168 JUMPI DUP1 PUSH4 0x5ABE622B EQ PUSH2 0x171 JUMPI PUSH0 DUP1 REVERT JUMPDEST DUP1 PUSH4 0x74EEF3F EQ PUSH2 0xF4 JUMPI DUP1 PUSH4 0x149D8FFC EQ PUSH2 0x11D JUMPI DUP1 PUSH4 0x1570C2CB EQ PUSH2 0x13C JUMPI JUMPDEST PUSH0 DUP1 REVERT JUMPDEST PUSH1 0x6 SLOAD PUSH2 0x108 SWAP1 PUSH1 0x1 PUSH1 0xA0 SHL SWAP1 DIV PUSH1 0xFF AND DUP2 JUMP JUMPDEST PUSH1 0x40 MLOAD SWAP1 ISZERO ISZERO DUP2 MSTORE PUSH1 0x20 ADD JUMPDEST PUSH1 0x40 MLOAD DUP1 SWAP2 SUB SWAP1 RETURN JUMPDEST PUSH1 0xC SLOAD PUSH2 0x12A SWAP1 PUSH1 0xFF AND DUP2 JUMP JUMPDEST PUSH1 0x40 MLOAD PUSH1 0xFF SWAP1 SWAP2 AND DUP2 MSTORE PUSH1 0x20 ADD PUSH2 0x114 JUMP JUMPDEST PUSH2 0x145 PUSH1 0x7 SLOAD DUP2 JUMP JUMPDEST PUSH1 0x40 MLOAD SWAP1 DUP2 MSTORE PUSH1 0x20 ADD PUSH2 0x114 JUMP JUMPDEST PUSH2 0x145 PUSH1 0x1 SLOAD DUP2 JUMP JUMPDEST PUSH0 SLOAD PUSH2 0x108 SWAP1 PUSH1 0xFF AND DUP2 JUMP JUMPDEST PUSH2 0x145 PUSH1 0x4 SLOAD DUP2 JUMP JUMPDEST PUSH2 0x145 PUSH1 0x8 SLOAD DUP2 JUMP JUMPDEST PUSH1 0xA SLOAD PUSH2 0x18D SWAP1 PUSH1 0x1 PUSH1 0x1 PUSH1 0xA0 SHL SUB AND DUP2 JUMP JUMPDEST PUSH1 0x40 MLOAD PUSH1 0x1 PUSH1 0x1 PUSH1 0xA0 SHL SUB SWAP1 SWAP2 AND DUP2 MSTORE PUSH1 0x20 ADD PUSH2 0x114 JUMP JUMPDEST PUSH1 0x6 SLOAD PUSH2 0x18D SWAP1 PUSH1 0x1 PUSH1 0x1 PUSH1 0xA0 SHL SUB AND DUP2 JUMP JUMPDEST PUSH2 0x145 PUSH1 0xB SLOAD DUP2 JUMP JUMPDEST PUSH1 0x3 SLOAD PUSH2 0x1CD SWAP1 PUSH0 SIGNEXTEND DUP2 JUMP JUMPDEST PUSH1 0x40 MLOAD PUSH0 SWAP2 SWAP1 SWAP2 SIGNEXTEND DUP2 MSTORE PUSH1 0x20 ADD PUSH2 0x114 JUMP JUMPDEST PUSH0 SLOAD PUSH2 0x12A SWAP1 PUSH2 0x100 SWAP1 DIV PUSH1 0xFF AND DUP2 JUMP JUMPDEST PUSH2 0x145 PUSH1 0x2 SLOAD DUP2 JUMP JUMPDEST PUSH2 0x145 PUSH1 0x5 SLOAD DUP2 JUMP JUMPDEST PUSH1 0x9 SLOAD PUSH2 0x18D SWAP1 PUSH1 0x1 PUSH1 0x1 PUSH1 0xA0 SHL SUB AND DUP2 JUMP INVALID LOG2 PUSH5 0x6970667358 0x22 SLT KECCAK256 SUB SIGNEXTEND 0x23 0xAD 0xB7 PUSH0 0xFB TSTORE 0xD3 0xE 0xAC 0xBE DELEGATECALL DUP5 DUP8 CALLDATASIZE 0xD5 SWAP9 0xC6 INVALID SSTORE PUSH24 0x27D82A61A6249D3526ED64736F6C63430008180033000000 "
				},
				"gasEstimates": {
					"creation": {
						"codeDepositCost": "117400",
						"executionCost": "231869",
						"totalCost": "349269"
					},
					"external": {
						"addr()": "2381",
						"boo()": "2342",
						"defaultAddr()": "2424",
						"defaultBoo()": "2339",
						"defaultInt()": "2383",
						"defaultUint()": "2362",
						"i()": "2360",
						"i256()": "2361",
						"i8()": "2406",
						"neg()": "2361",
						"newAddr()": "2359",
						"newU()": "2358",
						"u()": "2338",
						"u256()": "2317",
						"u8()": "2344"
					}
				},
				"methodIdentifiers": {
					"addr()": "767800de",
					"boo()": "4b3df200",
					"defaultAddr()": "f2427d37",
					"defaultBoo()": "074eef3f",
					"defaultInt()": "5abe622b",
					"defaultUint()": "1570c2cb",
					"i()": "e5aa3d58",
					"i256()": "4c27fd62",
					"i8()": "921cda74",
					"neg()": "78063b1f",
					"newAddr()": "6a76e307",
					"newU()": "149d8ffc",
					"u()": "c6a898c5",
					"u256()": "459b1acf",
					"u8()": "ab3a58a3"
				}
			},
			"storageLayout": {
				"storage": [
					{
						"astId": 4,
						"contract": ".learneth/ethereum/remix-workshops/3. Primitive Data Types/primitiveDataTypes.sol:Primitives",
						"label": "boo",
						"offset": 0,
						"slot": "0",
						"type": "t_bool"
					},
					{
						"astId": 7,
						"contract": ".learneth/ethereum/remix-workshops/3. Primitive Data Types/primitiveDataTypes.sol:Primitives",
						"label": "u8",
						"offset": 1,
						"slot": "0",
						"type": "t_uint8"
					},
					{
						"astId": 10,
						"contract": ".learneth/ethereum/remix-workshops/3. Primitive Data Types/primitiveDataTypes.sol:Primitives",
						"label": "u256",
						"offset": 0,
						"slot": "1",
						"type": "t_uint256"
					},
					{
						"astId": 13,
						"contract": ".learneth/ethereum/remix-workshops/3. Primitive Data Types/primitiveDataTypes.sol:Primitives",
						"label": "u",
						"offset": 0,
						"slot": "2",
						"type": "t_uint256"
					},
					{
						"astId": 17,
						"contract": ".learneth/ethereum/remix-workshops/3. Primitive Data Types/primitiveDataTypes.sol:Primitives",
						"label": "i8",
						"offset": 0,
						"slot": "3",
						"type": "t_int8"
					},
					{
						"astId": 20,
						"contract": ".learneth/ethereum/remix-workshops/3. Primitive Data Types/primitiveDataTypes.sol:Primitives",
						"label": "i256",
						"offset": 0,
						"slot": "4",
						"type": "t_int256"
					},
					{
						"astId": 24,
						"contract": ".learneth/ethereum/remix-workshops/3. Primitive Data Types/primitiveDataTypes.sol:Primitives",
						"label": "i",
						"offset": 0,
						"slot": "5",
						"type": "t_int256"
					},
					{
						"astId": 27,
						"contract": ".learneth/ethereum/remix-workshops/3. Primitive Data Types/primitiveDataTypes.sol:Primitives",
						"label": "addr",
						"offset": 0,
						"slot": "6",
						"type": "t_address"
					},
					{
						"astId": 29,
						"contract": ".learneth/ethereum/remix-workshops/3. Primitive Data Types/primitiveDataTypes.sol:Primitives",
						"label": "defaultBoo",
						"offset": 20,
						"slot": "6",
						"type": "t_bool"
					},
					{
						"astId": 31,
						"contract": ".learneth/ethereum/remix-workshops/3. Primitive Data Types/primitiveDataTypes.sol:Primitives",
						"label": "defaultUint",
						"offset": 0,
						"slot": "7",
						"type": "t_uint256"
					},
					{
						"astId": 33,
						"contract": ".learneth/ethereum/remix-workshops/3. Primitive Data Types/primitiveDataTypes.sol:Primitives",
						"label": "defaultInt",
						"offset": 0,
						"slot": "8",
						"type": "t_int256"
					},
					{
						"astId": 35,
						"contract": ".learneth/ethereum/remix-workshops/3. Primitive Data Types/primitiveDataTypes.sol:Primitives",
						"label": "defaultAddr",
						"offset": 0,
						"slot": "9",
						"type": "t_address"
					},
					{
						"astId": 38,
						"contract": ".learneth/ethereum/remix-workshops/3. Primitive Data Types/primitiveDataTypes.sol:Primitives",
						"label": "newAddr",
						"offset": 0,
						"slot": "10",
						"type": "t_address"
					},
					{
						"astId": 42,
						"contract": ".learneth/ethereum/remix-workshops/3. Primitive Data Types/primitiveDataTypes.sol:Primitives",
						"label": "neg",
						"offset": 0,
						"slot": "11",
						"type": "t_int256"
					},
					{
						"astId": 45,
						"contract": ".learneth/ethereum/remix-workshops/3. Primitive Data Types/primitiveDataTypes.sol:Primitives",
						"label": "newU",
						"offset": 0,
						"slot": "12",
						"type": "t_uint8"
					}
				],
				"types": {
					"t_address": {
						"encoding": "inplace",
						"label": "address",
						"numberOfBytes": "20"
					},
					"t_bool": {
						"encoding": "inplace",
						"label": "bool",
						"numberOfBytes": "1"
					},
					"t_int256": {
						"encoding": "inplace",
						"label": "int256",
						"numberOfBytes": "32"
					},
					"t_int8": {
						"encoding": "inplace",
						"label": "int8",
						"numberOfBytes": "1"
					},
					"t_uint256": {
						"encoding": "inplace",
						"label": "uint256",
						"numberOfBytes": "32"
					},
					"t_uint8": {
						"encoding": "inplace",
						"label": "uint8",
						"numberOfBytes": "1"
					}
				}
			},
			"userdoc": {
				"kind": "user",
				"methods": {},
				"version": 1
			}
		}
	}
}