{
	"data": {
		"bytecode": {
			"linkReferences": {},
			"object": "60806040526001805460ff19168117905534801561001b575f80fd5b5060f4806100285f395ff3fe6080604052348015600e575f80fd5b5060043610604e575f3560e01c80634df7e3d01460525780634e70b1dc14607357806360fe47b11460875780636d4ce63c146098578063f3d33cf414609e575b5f80fd5b600154605e9060ff1681565b60405190151581526020015b60405180910390f35b607a5f5481565b604051908152602001606a565b6096609236600460a8565b5f55565b005b5f54607a565b60015460ff16605e565b5f6020828403121560b7575f80fd5b503591905056fea2646970667358221220142413eb74d5342a526ed4ab79d5746ae5ffb4f4c56fd36cc4b6f48c7586f5fa64736f6c63430008180033",
			"opcodes": "PUSH1 0x80 PUSH1 0x40 MSTORE PUSH1 0x1 DUP1 SLOAD PUSH1 0xFF NOT AND DUP2 OR SWAP1 SSTORE CALLVALUE DUP1 ISZERO PUSH2 0x1B JUMPI PUSH0 DUP1 REVERT JUMPDEST POP PUSH1 0xF4 DUP1 PUSH2 0x28 PUSH0 CODECOPY PUSH0 RETURN INVALID PUSH1 0x80 PUSH1 0x40 MSTORE CALLVALUE DUP1 ISZERO PUSH1 0xE JUMPI PUSH0 DUP1 REVERT JUMPDEST POP PUSH1 0x4 CALLDATASIZE LT PUSH1 0x4E JUMPI PUSH0 CALLDATALOAD PUSH1 0xE0 SHR DUP1 PUSH4 0x4DF7E3D0 EQ PUSH1 0x52 JUMPI DUP1 PUSH4 0x4E70B1DC EQ PUSH1 0x73 JUMPI DUP1 PUSH4 0x60FE47B1 EQ PUSH1 0x87 JUMPI DUP1 PUSH4 0x6D4CE63C EQ PUSH1 0x98 JUMPI DUP1 PUSH4 0xF3D33CF4 EQ PUSH1 0x9E JUMPI JUMPDEST PUSH0 DUP1 REVERT JUMPDEST PUSH1 0x1 SLOAD PUSH1 0x5E SWAP1 PUSH1 0xFF AND DUP2 JUMP JUMPDEST PUSH1 0x40 MLOAD SWAP1 ISZERO ISZERO DUP2 MSTORE PUSH1 0x20 ADD JUMPDEST PUSH1 0x40 MLOAD DUP1 SWAP2 SUB SWAP1 RETURN JUMPDEST PUSH1 0x7A PUSH0 SLOAD DUP2 JUMP JUMPDEST PUSH1 0x40 MLOAD SWAP1 DUP2 MSTORE PUSH1 0x20 ADD PUSH1 0x6A JUMP JUMPDEST PUSH1 0x96 PUSH1 0x92 CALLDATASIZE PUSH1 0x4 PUSH1 0xA8 JUMP JUMPDEST PUSH0 SSTORE JUMP JUMPDEST STOP JUMPDEST PUSH0 SLOAD PUSH1 0x7A JUMP JUMPDEST PUSH1 0x1 SLOAD PUSH1 0xFF AND PUSH1 0x5E JUMP JUMPDEST PUSH0 PUSH1 0x20 DUP3 DUP5 SUB SLT ISZERO PUSH1 0xB7 JUMPI PUSH0 DUP1 REVERT JUMPDEST POP CALLDATALOAD SWAP2 SWAP1 POP JUMP INVALID LOG2 PUSH5 0x6970667358 0x22 SLT KECCAK256 EQ 0x24 SGT 0xEB PUSH21 0xD5342A526ED4AB79D5746AE5FFB4F4C56FD36CC4B6 DELEGATECALL DUP13 PUSH22 0x86F5FA64736F6C634300081800330000000000000000 "
		},
		"gasEstimates": {
			"creation": {
				"codeDepositCost": "48800",
				"executionCost": "24321",
				"totalCost": "73121"
			},
			"external": {
				"b()": "2276",
				"get()": "2334",
				"get_b()": "2358",
				"num()": "2293",
				"set(uint256)": "22331"
			}
		},
		"methodIdentifiers": {
			"b()": "4df7e3d0",
			"get()": "6d4ce63c",
			"get_b()": "f3d33cf4",
			"num()": "4e70b1dc",
			"set(uint256)": "60fe47b1"
		}
	},
	"abi": [
		{
			"inputs": [],
			"name": "b",
			"outputs": [
				{
					"internalType": "bool",
					"name": "",
					"type": "bool"
				}
			],
			"stateMutability": "view",
			"type": "function"
		},
		{
			"inputs": [],
			"name": "get",
			"outputs": [
				{
					"internalType": "uint256",
					"name": "",
					"type": "uint256"
				}
			],
			"stateMutability": "view",
			"type": "function"
		},
		{
			"inputs": [],
			"name": "get_b",
			"outputs": [
				{
					"internalType": "bool",
					"name": "",
					"type": "bool"
				}
			],
			"stateMutability": "view",
			"type": "function"
		},
		{
			"inputs": [],
			"name": "num",
			"outputs": [
				{
					"internalType": "uint256",
					"name": "",
					"type": "uint256"
				}
			],
			"stateMutability": "view",
			"type": "function"
		},
		{
			"inputs": [
				{
					"internalType": "uint256",
					"name": "_num",
					"type": "uint256"
				}
			],
			"name": "set",
			"outputs": [],
			"stateMutability": "nonpayable",
			"type": "function"
		}
	]
}