{
	"contracts/inheritance.sol": {
		"Eve": {
			"abi": [
				{
					"anonymous": false,
					"inputs": [
						{
							"indexed": false,
							"internalType": "string",
							"name": "message",
							"type": "string"
						}
					],
					"name": "Log",
					"type": "event"
				},
				{
					"inputs": [],
					"name": "bar",
					"outputs": [],
					"stateMutability": "nonpayable",
					"type": "function"
				},
				{
					"inputs": [],
					"name": "foo",
					"outputs": [],
					"stateMutability": "nonpayable",
					"type": "function"
				}
			],
			"devdoc": {
				"kind": "dev",
				"methods": {},
				"version": 1
			},
			"evm": {
				"assembly": "    /* \"contracts/inheritance.sol\":2509:2752  contract Eve is God {... */\n  mstore(0x40, 0x80)\n  callvalue\n  dup1\n  iszero\n  tag_1\n  jumpi\n  0x00\n  dup1\n  revert\ntag_1:\n  pop\n  dataSize(sub_0)\n  dup1\n  dataOffset(sub_0)\n  0x00\n  codecopy\n  0x00\n  return\nstop\n\nsub_0: assembly {\n        /* \"contracts/inheritance.sol\":2509:2752  contract Eve is God {... */\n      mstore(0x40, 0x80)\n      callvalue\n      dup1\n      iszero\n      tag_1\n      jumpi\n      0x00\n      dup1\n      revert\n    tag_1:\n      pop\n      jumpi(tag_2, lt(calldatasize, 0x04))\n      shr(0xe0, calldataload(0x00))\n      dup1\n      0xc2985578\n      eq\n      tag_3\n      jumpi\n      dup1\n      0xfebb0f7e\n      eq\n      tag_4\n      jumpi\n    tag_2:\n      0x00\n      dup1\n      revert\n        /* \"contracts/inheritance.sol\":2535:2641  function foo() public virtual override {... */\n    tag_3:\n      tag_5\n      tag_6\n      jump\t// in\n    tag_5:\n      stop\n        /* \"contracts/inheritance.sol\":2647:2750  function bar() public virtual override {... */\n    tag_4:\n      tag_5\n      tag_8\n      jump\t// in\n        /* \"contracts/inheritance.sol\":2535:2641  function foo() public virtual override {... */\n    tag_6:\n        /* \"contracts/inheritance.sol\":2623:2634  super.foo() */\n      tag_10\n        /* \"contracts/inheritance.sol\":2623:2632  super.foo */\n      tag_11\n        /* \"contracts/inheritance.sol\":2623:2634  super.foo() */\n      jump\t// in\n    tag_10:\n        /* \"contracts/inheritance.sol\":2535:2641  function foo() public virtual override {... */\n      jump\t// out\n        /* \"contracts/inheritance.sol\":2647:2750  function bar() public virtual override {... */\n    tag_8:\n        /* \"contracts/inheritance.sol\":2701:2722  Log(\"Eve.bar called\") */\n      0xcf34ef537ac33ee1ac626ca1587a0a7e8e51561e5514f8cb36afa1c5102b3bab\n      mload(0x40)\n      tag_13\n      swap1\n        /* \"#utility.yul\":216:218   */\n      0x20\n        /* \"#utility.yul\":198:219   */\n      dup1\n      dup3\n      mstore\n        /* \"#utility.yul\":255:257   */\n      0x0e\n        /* \"#utility.yul\":235:253   */\n      swap1\n      dup3\n      add\n        /* \"#utility.yul\":228:258   */\n      mstore\n      shl(0x92, 0x115d994b98985c8818d85b1b1959)\n        /* \"#utility.yul\":289:291   */\n      0x40\n        /* \"#utility.yul\":274:292   */\n      dup3\n      add\n        /* \"#utility.yul\":267:311   */\n      mstore\n        /* \"#utility.yul\":343:345   */\n      0x60\n        /* \"#utility.yul\":328:346   */\n      add\n      swap1\n        /* \"#utility.yul\":14:352   */\n      jump\n        /* \"contracts/inheritance.sol\":2701:2722  Log(\"Eve.bar called\") */\n    tag_13:\n      mload(0x40)\n      dup1\n      swap2\n      sub\n      swap1\n      log1\n        /* \"contracts/inheritance.sol\":2732:2743  super.bar() */\n      tag_10\n        /* \"contracts/inheritance.sol\":2732:2741  super.bar */\n      tag_16\n        /* \"contracts/inheritance.sol\":2732:2743  super.bar() */\n      jump\t// in\n        /* \"contracts/inheritance.sol\":2129:2202  function foo() public virtual {... */\n    tag_11:\n        /* \"contracts/inheritance.sol\":2174:2195  Log(\"God.foo called\") */\n      0xcf34ef537ac33ee1ac626ca1587a0a7e8e51561e5514f8cb36afa1c5102b3bab\n      mload(0x40)\n      tag_18\n      swap1\n        /* \"#utility.yul\":559:561   */\n      0x20\n        /* \"#utility.yul\":541:562   */\n      dup1\n      dup3\n      mstore\n        /* \"#utility.yul\":598:600   */\n      0x0e\n        /* \"#utility.yul\":578:596   */\n      swap1\n      dup3\n      add\n        /* \"#utility.yul\":571:601   */\n      mstore\n      shl(0x92, 0x11dbd90b999bdbc818d85b1b1959)\n        /* \"#utility.yul\":632:634   */\n      0x40\n        /* \"#utility.yul\":617:635   */\n      dup3\n      add\n        /* \"#utility.yul\":610:654   */\n      mstore\n        /* \"#utility.yul\":686:688   */\n      0x60\n        /* \"#utility.yul\":671:689   */\n      add\n      swap1\n        /* \"#utility.yul\":357:695   */\n      jump\n        /* \"contracts/inheritance.sol\":2174:2195  Log(\"God.foo called\") */\n    tag_18:\n      mload(0x40)\n      dup1\n      swap2\n      sub\n      swap1\n      log1\n        /* \"contracts/inheritance.sol\":2129:2202  function foo() public virtual {... */\n      jump\t// out\n        /* \"contracts/inheritance.sol\":2208:2281  function bar() public virtual {... */\n    tag_16:\n        /* \"contracts/inheritance.sol\":2253:2274  Log(\"God.bar called\") */\n      0xcf34ef537ac33ee1ac626ca1587a0a7e8e51561e5514f8cb36afa1c5102b3bab\n      mload(0x40)\n      tag_18\n      swap1\n        /* \"#utility.yul\":902:904   */\n      0x20\n        /* \"#utility.yul\":884:905   */\n      dup1\n      dup3\n      mstore\n        /* \"#utility.yul\":941:943   */\n      0x0e\n        /* \"#utility.yul\":921:939   */\n      swap1\n      dup3\n      add\n        /* \"#utility.yul\":914:944   */\n      mstore\n      shl(0x92, 0x11dbd90b98985c8818d85b1b1959)\n        /* \"#utility.yul\":975:977   */\n      0x40\n        /* \"#utility.yul\":960:978   */\n      dup3\n      add\n        /* \"#utility.yul\":953:997   */\n      mstore\n        /* \"#utility.yul\":1029:1031   */\n      0x60\n        /* \"#utility.yul\":1014:1032   */\n      add\n      swap1\n        /* \"#utility.yul\":700:1038   */\n      jump\n\n    auxdata: 0xa26469706673582212202fb976c1690d987e788f29f47f3e1e1e6f020338a9e0ddc6b71114bfcfbbc5b664736f6c63430008180033\n}\n",
				"bytecode": {
					"linkReferences": {},
					"object": "608060405234801561000f575f80fd5b506101948061001d5f395ff3fe608060405234801561000f575f80fd5b5060043610610034575f3560e01c8063c298557814610038578063febb0f7e14610042575b5f80fd5b61004061004a565b005b610040610054565b6100526100b4565b565b7fcf34ef537ac33ee1ac626ca1587a0a7e8e51561e5514f8cb36afa1c5102b3bab6040516100a4906020808252600e908201526d115d994b98985c8818d85b1b195960921b604082015260600190565b60405180910390a161005261010e565b7fcf34ef537ac33ee1ac626ca1587a0a7e8e51561e5514f8cb36afa1c5102b3bab604051610104906020808252600e908201526d11dbd90b999bdbc818d85b1b195960921b604082015260600190565b60405180910390a1565b7fcf34ef537ac33ee1ac626ca1587a0a7e8e51561e5514f8cb36afa1c5102b3bab604051610104906020808252600e908201526d11dbd90b98985c8818d85b1b195960921b60408201526060019056fea26469706673582212202fb976c1690d987e788f29f47f3e1e1e6f020338a9e0ddc6b71114bfcfbbc5b664736f6c63430008180033",
					"opcodes": "PUSH1 0x80 PUSH1 0x40 MSTORE CALLVALUE DUP1 ISZERO PUSH2 0xF JUMPI PUSH0 DUP1 REVERT JUMPDEST POP PUSH2 0x194 DUP1 PUSH2 0x1D PUSH0 CODECOPY PUSH0 RETURN INVALID PUSH1 0x80 PUSH1 0x40 MSTORE CALLVALUE DUP1 ISZERO PUSH2 0xF JUMPI PUSH0 DUP1 REVERT JUMPDEST POP PUSH1 0x4 CALLDATASIZE LT PUSH2 0x34 JUMPI PUSH0 CALLDATALOAD PUSH1 0xE0 SHR DUP1 PUSH4 0xC2985578 EQ PUSH2 0x38 JUMPI DUP1 PUSH4 0xFEBB0F7E EQ PUSH2 0x42 JUMPI JUMPDEST PUSH0 DUP1 REVERT JUMPDEST PUSH2 0x40 PUSH2 0x4A JUMP JUMPDEST STOP JUMPDEST PUSH2 0x40 PUSH2 0x54 JUMP JUMPDEST PUSH2 0x52 PUSH2 0xB4 JUMP JUMPDEST JUMP JUMPDEST PUSH32 0xCF34EF537AC33EE1AC626CA1587A0A7E8E51561E5514F8CB36AFA1C5102B3BAB PUSH1 0x40 MLOAD PUSH2 0xA4 SWAP1 PUSH1 0x20 DUP1 DUP3 MSTORE PUSH1 0xE SWAP1 DUP3 ADD MSTORE PUSH14 0x115D994B98985C8818D85B1B1959 PUSH1 0x92 SHL PUSH1 0x40 DUP3 ADD MSTORE PUSH1 0x60 ADD SWAP1 JUMP JUMPDEST PUSH1 0x40 MLOAD DUP1 SWAP2 SUB SWAP1 LOG1 PUSH2 0x52 PUSH2 0x10E JUMP JUMPDEST PUSH32 0xCF34EF537AC33EE1AC626CA1587A0A7E8E51561E5514F8CB36AFA1C5102B3BAB PUSH1 0x40 MLOAD PUSH2 0x104 SWAP1 PUSH1 0x20 DUP1 DUP3 MSTORE PUSH1 0xE SWAP1 DUP3 ADD MSTORE PUSH14 0x11DBD90B999BDBC818D85B1B1959 PUSH1 0x92 SHL PUSH1 0x40 DUP3 ADD MSTORE PUSH1 0x60 ADD SWAP1 JUMP JUMPDEST PUSH1 0x40 MLOAD DUP1 SWAP2 SUB SWAP1 LOG1 JUMP JUMPDEST PUSH32 0xCF34EF537AC33EE1AC626CA1587A0A7E8E51561E5514F8CB36AFA1C5102B3BAB PUSH1 0x40 MLOAD PUSH2 0x104 SWAP1 PUSH1 0x20 DUP1 DUP3 MSTORE PUSH1 0xE SWAP1 DUP3 ADD MSTORE PUSH14 0x11DBD90B98985C8818D85B1B1959 PUSH1 0x92 SHL PUSH1 0x40 DUP3 ADD MSTORE PUSH1 0x60 ADD SWAP1 JUMP INVALID LOG2 PUSH5 0x6970667358 0x22 SLT KECCAK256 0x2F 0xB9 PUSH23 0xC1690D987E788F29F47F3E1E1E6F020338A9E0DDC6B711 EQ 0xBF 0xCF 0xBB 0xC5 0xB6 PUSH5 0x736F6C6343 STOP ADDMOD XOR STOP CALLER "
				},
				"gasEstimates": {
					"creation": {
						"codeDepositCost": "80800",
						"executionCost": "127",
						"totalCost": "80927"
					},
					"external": {
						"bar()": "3413",
						"foo()": "1774"
					}
				},
				"methodIdentifiers": {
					"bar()": "febb0f7e",
					"foo()": "c2985578"
				}
			},
			"storageLayout": {
				"storage": [],
				"types": null
			},
			"userdoc": {
				"kind": "user",
				"methods": {},
				"version": 1
			}
		}
	}
}