{
	"contracts/inheritance.sol": {
		"Adam": {
			"abi": [
				{
					"anonymous": false,
					"inputs": [
						{
							"indexed": false,
							"internalType": "string",
							"name": "message",
							"type": "string"
						}
					],
					"name": "Log",
					"type": "event"
				},
				{
					"inputs": [],
					"name": "bar",
					"outputs": [],
					"stateMutability": "nonpayable",
					"type": "function"
				},
				{
					"inputs": [],
					"name": "foo",
					"outputs": [],
					"stateMutability": "nonpayable",
					"type": "function"
				}
			],
			"devdoc": {
				"kind": "dev",
				"methods": {},
				"version": 1
			},
			"evm": {
				"assembly": "    /* \"contracts/inheritance.sol\":2285:2507  contract Adam is God {... */\n  mstore(0x40, 0x80)\n  callvalue\n  dup1\n  iszero\n  tag_1\n  jumpi\n  0x00\n  dup1\n  revert\ntag_1:\n  pop\n  dataSize(sub_0)\n  dup1\n  dataOffset(sub_0)\n  0x00\n  codecopy\n  0x00\n  return\nstop\n\nsub_0: assembly {\n        /* \"contracts/inheritance.sol\":2285:2507  contract Adam is God {... */\n      mstore(0x40, 0x80)\n      callvalue\n      dup1\n      iszero\n      tag_1\n      jumpi\n      0x00\n      dup1\n      revert\n    tag_1:\n      pop\n      jumpi(tag_2, lt(calldatasize, 0x04))\n      shr(0xe0, calldataload(0x00))\n      dup1\n      0xc2985578\n      eq\n      tag_3\n      jumpi\n      dup1\n      0xfebb0f7e\n      eq\n      tag_4\n      jumpi\n    tag_2:\n      0x00\n      dup1\n      revert\n        /* \"contracts/inheritance.sol\":2312:2395  function foo() public virtual override {... */\n    tag_3:\n      tag_5\n      tag_6\n      jump\t// in\n    tag_5:\n      stop\n        /* \"contracts/inheritance.sol\":2401:2505  function bar() public virtual override {... */\n    tag_4:\n      tag_5\n      tag_8\n      jump\t// in\n        /* \"contracts/inheritance.sol\":2312:2395  function foo() public virtual override {... */\n    tag_6:\n        /* \"contracts/inheritance.sol\":2366:2388  Log(\"Adam.foo called\") */\n      0xcf34ef537ac33ee1ac626ca1587a0a7e8e51561e5514f8cb36afa1c5102b3bab\n      mload(0x40)\n      tag_10\n      swap1\n        /* \"#utility.yul\":216:218   */\n      0x20\n        /* \"#utility.yul\":198:219   */\n      dup1\n      dup3\n      mstore\n        /* \"#utility.yul\":255:257   */\n      0x0f\n        /* \"#utility.yul\":235:253   */\n      swap1\n      dup3\n      add\n        /* \"#utility.yul\":228:258   */\n      mstore\n      shl(0x8a, 0x1059185b4b999bdbc818d85b1b1959)\n        /* \"#utility.yul\":289:291   */\n      0x40\n        /* \"#utility.yul\":274:292   */\n      dup3\n      add\n        /* \"#utility.yul\":267:312   */\n      mstore\n        /* \"#utility.yul\":344:346   */\n      0x60\n        /* \"#utility.yul\":329:347   */\n      add\n      swap1\n        /* \"#utility.yul\":14:353   */\n      jump\n        /* \"contracts/inheritance.sol\":2366:2388  Log(\"Adam.foo called\") */\n    tag_10:\n      mload(0x40)\n      dup1\n      swap2\n      sub\n      swap1\n      log1\n        /* \"contracts/inheritance.sol\":2312:2395  function foo() public virtual override {... */\n      jump\t// out\n        /* \"contracts/inheritance.sol\":2401:2505  function bar() public virtual override {... */\n    tag_8:\n        /* \"contracts/inheritance.sol\":2455:2477  Log(\"Adam.bar called\") */\n      0xcf34ef537ac33ee1ac626ca1587a0a7e8e51561e5514f8cb36afa1c5102b3bab\n      mload(0x40)\n      tag_13\n      swap1\n        /* \"#utility.yul\":560:562   */\n      0x20\n        /* \"#utility.yul\":542:563   */\n      dup1\n      dup3\n      mstore\n        /* \"#utility.yul\":599:601   */\n      0x0f\n        /* \"#utility.yul\":579:597   */\n      swap1\n      dup3\n      add\n        /* \"#utility.yul\":572:602   */\n      mstore\n      shl(0x8a, 0x1059185b4b98985c8818d85b1b1959)\n        /* \"#utility.yul\":633:635   */\n      0x40\n        /* \"#utility.yul\":618:636   */\n      dup3\n      add\n        /* \"#utility.yul\":611:656   */\n      mstore\n        /* \"#utility.yul\":688:690   */\n      0x60\n        /* \"#utility.yul\":673:691   */\n      add\n      swap1\n        /* \"#utility.yul\":358:697   */\n      jump\n        /* \"contracts/inheritance.sol\":2455:2477  Log(\"Adam.bar called\") */\n    tag_13:\n      mload(0x40)\n      dup1\n      swap2\n      sub\n      swap1\n      log1\n        /* \"contracts/inheritance.sol\":2487:2498  super.bar() */\n      tag_15\n        /* \"contracts/inheritance.sol\":2487:2496  super.bar */\n      tag_16\n        /* \"contracts/inheritance.sol\":2487:2498  super.bar() */\n      jump\t// in\n    tag_15:\n        /* \"contracts/inheritance.sol\":2401:2505  function bar() public virtual override {... */\n      jump\t// out\n        /* \"contracts/inheritance.sol\":2208:2281  function bar() public virtual {... */\n    tag_16:\n        /* \"contracts/inheritance.sol\":2253:2274  Log(\"God.bar called\") */\n      0xcf34ef537ac33ee1ac626ca1587a0a7e8e51561e5514f8cb36afa1c5102b3bab\n      mload(0x40)\n      tag_10\n      swap1\n        /* \"#utility.yul\":904:906   */\n      0x20\n        /* \"#utility.yul\":886:907   */\n      dup1\n      dup3\n      mstore\n        /* \"#utility.yul\":943:945   */\n      0x0e\n        /* \"#utility.yul\":923:941   */\n      swap1\n      dup3\n      add\n        /* \"#utility.yul\":916:946   */\n      mstore\n      shl(0x92, 0x11dbd90b98985c8818d85b1b1959)\n        /* \"#utility.yul\":977:979   */\n      0x40\n        /* \"#utility.yul\":962:980   */\n      dup3\n      add\n        /* \"#utility.yul\":955:999   */\n      mstore\n        /* \"#utility.yul\":1031:1033   */\n      0x60\n        /* \"#utility.yul\":1016:1034   */\n      add\n      swap1\n        /* \"#utility.yul\":702:1040   */\n      jump\n\n    auxdata: 0xa264697066735822122011eda22552ea7bde29f1475f51846c09a3ee5f4cee59898ce8fe6aa062b7fb2364736f6c63430008180033\n}\n",
				"bytecode": {
					"linkReferences": {},
					"object": "608060405234801561000f575f80fd5b5061018e8061001d5f395ff3fe608060405234801561000f575f80fd5b5060043610610034575f3560e01c8063c298557814610038578063febb0f7e14610042575b5f80fd5b61004061004a565b005b6100406100a5565b7fcf34ef537ac33ee1ac626ca1587a0a7e8e51561e5514f8cb36afa1c5102b3bab60405161009b906020808252600f908201526e1059185b4b999bdbc818d85b1b1959608a1b604082015260600190565b60405180910390a1565b7fcf34ef537ac33ee1ac626ca1587a0a7e8e51561e5514f8cb36afa1c5102b3bab6040516100f6906020808252600f908201526e1059185b4b98985c8818d85b1b1959608a1b604082015260600190565b60405180910390a1610106610108565b565b7fcf34ef537ac33ee1ac626ca1587a0a7e8e51561e5514f8cb36afa1c5102b3bab60405161009b906020808252600e908201526d11dbd90b98985c8818d85b1b195960921b60408201526060019056fea264697066735822122011eda22552ea7bde29f1475f51846c09a3ee5f4cee59898ce8fe6aa062b7fb2364736f6c63430008180033",
					"opcodes": "PUSH1 0x80 PUSH1 0x40 MSTORE CALLVALUE DUP1 ISZERO PUSH2 0xF JUMPI PUSH0 DUP1 REVERT JUMPDEST POP PUSH2 0x18E DUP1 PUSH2 0x1D PUSH0 CODECOPY PUSH0 RETURN INVALID PUSH1 0x80 PUSH1 0x40 MSTORE CALLVALUE DUP1 ISZERO PUSH2 0xF JUMPI PUSH0 DUP1 REVERT JUMPDEST POP PUSH1 0x4 CALLDATASIZE LT PUSH2 0x34 JUMPI PUSH0 CALLDATALOAD PUSH1 0xE0 SHR DUP1 PUSH4 0xC2985578 EQ PUSH2 0x38 JUMPI DUP1 PUSH4 0xFEBB0F7E EQ PUSH2 0x42 JUMPI JUMPDEST PUSH0 DUP1 REVERT JUMPDEST PUSH2 0x40 PUSH2 0x4A JUMP JUMPDEST STOP JUMPDEST PUSH2 0x40 PUSH2 0xA5 JUMP JUMPDEST PUSH32 0xCF34EF537AC33EE1AC626CA1587A0A7E8E51561E5514F8CB36AFA1C5102B3BAB PUSH1 0x40 MLOAD PUSH2 0x9B SWAP1 PUSH1 0x20 DUP1 DUP3 MSTORE PUSH1 0xF SWAP1 DUP3 ADD MSTORE PUSH15 0x1059185B4B999BDBC818D85B1B1959 PUSH1 0x8A SHL PUSH1 0x40 DUP3 ADD MSTORE PUSH1 0x60 ADD SWAP1 JUMP JUMPDEST PUSH1 0x40 MLOAD DUP1 SWAP2 SUB SWAP1 LOG1 JUMP JUMPDEST PUSH32 0xCF34EF537AC33EE1AC626CA1587A0A7E8E51561E5514F8CB36AFA1C5102B3BAB PUSH1 0x40 MLOAD PUSH2 0xF6 SWAP1 PUSH1 0x20 DUP1 DUP3 MSTORE PUSH1 0xF SWAP1 DUP3 ADD MSTORE PUSH15 0x1059185B4B98985C8818D85B1B1959 PUSH1 0x8A SHL PUSH1 0x40 DUP3 ADD MSTORE PUSH1 0x60 ADD SWAP1 JUMP JUMPDEST PUSH1 0x40 MLOAD DUP1 SWAP2 SUB SWAP1 LOG1 PUSH2 0x106 PUSH2 0x108 JUMP JUMPDEST JUMP JUMPDEST PUSH32 0xCF34EF537AC33EE1AC626CA1587A0A7E8E51561E5514F8CB36AFA1C5102B3BAB PUSH1 0x40 MLOAD PUSH2 0x9B SWAP1 PUSH1 0x20 DUP1 DUP3 MSTORE PUSH1 0xE SWAP1 DUP3 ADD MSTORE PUSH14 0x11DBD90B98985C8818D85B1B1959 PUSH1 0x92 SHL PUSH1 0x40 DUP3 ADD MSTORE PUSH1 0x60 ADD SWAP1 JUMP INVALID LOG2 PUSH5 0x6970667358 0x22 SLT KECCAK256 GT 0xED LOG2 0x25 MSTORE 0xEA PUSH28 0xDE29F1475F51846C09A3EE5F4CEE59898CE8FE6AA062B7FB2364736F PUSH13 0x63430008180033000000000000 "
				},
				"gasEstimates": {
					"creation": {
						"codeDepositCost": "79600",
						"executionCost": "127",
						"totalCost": "79727"
					},
					"external": {
						"bar()": "3413",
						"foo()": "1750"
					}
				},
				"methodIdentifiers": {
					"bar()": "febb0f7e",
					"foo()": "c2985578"
				}
			},
			"storageLayout": {
				"storage": [],
				"types": null
			},
			"userdoc": {
				"kind": "user",
				"methods": {},
				"version": 1
			}
		}
	}
}