{
	"contracts/event.sol": {
		"WTF_Event": {
			"abi": [
				{
					"inputs": [],
					"stateMutability": "payable",
					"type": "constructor"
				},
				{
					"anonymous": false,
					"inputs": [
						{
							"indexed": true,
							"internalType": "address",
							"name": "from",
							"type": "address"
						},
						{
							"indexed": true,
							"internalType": "address",
							"name": "to",
							"type": "address"
						},
						{
							"indexed": false,
							"internalType": "uint256",
							"name": "value",
							"type": "uint256"
						}
					],
					"name": "Transfer",
					"type": "event"
				},
				{
					"inputs": [
						{
							"internalType": "address",
							"name": "",
							"type": "address"
						}
					],
					"name": "_balance",
					"outputs": [
						{
							"internalType": "uint256",
							"name": "",
							"type": "uint256"
						}
					],
					"stateMutability": "view",
					"type": "function"
				},
				{
					"inputs": [],
					"name": "contractOwner",
					"outputs": [
						{
							"internalType": "address",
							"name": "",
							"type": "address"
						}
					],
					"stateMutability": "view",
					"type": "function"
				},
				{
					"inputs": [
						{
							"internalType": "address",
							"name": "to",
							"type": "address"
						},
						{
							"internalType": "uint256",
							"name": "amount",
							"type": "uint256"
						}
					],
					"name": "transfer",
					"outputs": [],
					"stateMutability": "nonpayable",
					"type": "function"
				}
			],
			"devdoc": {
				"kind": "dev",
				"methods": {},
				"version": 1
			},
			"evm": {
				"assembly": "    /* \"contracts/event.sol\":56:692  contract WTF_Event {... */\n  0x80\n  0x40\n  swap1\n  dup2\n  mstore\n    /* \"contracts/event.sol\":147:160  contractOwner */\n  0x00\n    /* \"contracts/event.sol\":147:173  contractOwner = msg.sender */\n  dup1\n  sload\n  not(sub(shl(0xa0, 0x01), 0x01))\n  and\n    /* \"contracts/event.sol\":163:173  msg.sender */\n  caller\n    /* \"contracts/event.sol\":147:173  contractOwner = msg.sender */\n  swap1\n  dup2\n  or\n  dup3\n  sstore\n    /* \"contracts/event.sol\":183:206  _balance[contractOwner] */\n  dup2\n  mstore\n    /* \"contracts/event.sol\":147:173  contractOwner = msg.sender */\n  0x01\n    /* \"contracts/event.sol\":183:206  _balance[contractOwner] */\n  0x20\n  mstore\n  keccak256\n    /* \"contracts/event.sol\":209:219  1000000000 */\n  0x3b9aca00\n    /* \"contracts/event.sol\":183:219  _balance[contractOwner] = 1000000000 */\n  swap1\n  sstore\n    /* \"contracts/event.sol\":56:692  contract WTF_Event {... */\n  dataSize(sub_0)\n  dup1\n  dataOffset(sub_0)\n  0x00\n  codecopy\n  0x00\n  return\nstop\n\nsub_0: assembly {\n        /* \"contracts/event.sol\":56:692  contract WTF_Event {... */\n      mstore(0x40, 0x80)\n      callvalue\n      dup1\n      iszero\n      tag_1\n      jumpi\n      0x00\n      dup1\n      revert\n    tag_1:\n      pop\n      jumpi(tag_2, lt(calldatasize, 0x04))\n      shr(0xe0, calldataload(0x00))\n      dup1\n      0xa9059cbb\n      eq\n      tag_3\n      jumpi\n      dup1\n      0xce606ee0\n      eq\n      tag_4\n      jumpi\n      dup1\n      0xd3aceae2\n      eq\n      tag_5\n      jumpi\n    tag_2:\n      0x00\n      dup1\n      revert\n        /* \"contracts/event.sol\":463:690  function transfer(... */\n    tag_3:\n      tag_6\n      tag_7\n      calldatasize\n      0x04\n      tag_8\n      jump\t// in\n    tag_7:\n      tag_9\n      jump\t// in\n    tag_6:\n      stop\n        /* \"contracts/event.sol\":81:109  address public contractOwner */\n    tag_4:\n      sload(0x00)\n      tag_10\n      swap1\n      sub(shl(0xa0, 0x01), 0x01)\n      and\n      dup2\n      jump\n    tag_10:\n      mload(0x40)\n      sub(shl(0xa0, 0x01), 0x01)\n        /* \"#utility.yul\":615:647   */\n      swap1\n      swap2\n      and\n        /* \"#utility.yul\":597:648   */\n      dup2\n      mstore\n        /* \"#utility.yul\":585:587   */\n      0x20\n        /* \"#utility.yul\":570:588   */\n      add\n        /* \"contracts/event.sol\":81:109  address public contractOwner */\n    tag_12:\n      mload(0x40)\n      dup1\n      swap2\n      sub\n      swap1\n      return\n        /* \"contracts/event.sol\":233:276  mapping(address => uint256) public _balance */\n    tag_5:\n      tag_14\n      tag_15\n      calldatasize\n      0x04\n      tag_16\n      jump\t// in\n    tag_15:\n      mstore(0x20, 0x01)\n      0x00\n      swap1\n      dup2\n      mstore\n      0x40\n      swap1\n      keccak256\n      sload\n      dup2\n      jump\n    tag_14:\n      mload(0x40)\n        /* \"#utility.yul\":996:1021   */\n      swap1\n      dup2\n      mstore\n        /* \"#utility.yul\":984:986   */\n      0x20\n        /* \"#utility.yul\":969:987   */\n      add\n        /* \"contracts/event.sol\":233:276  mapping(address => uint256) public _balance */\n      tag_12\n        /* \"#utility.yul\":850:1027   */\n      jump\n        /* \"contracts/event.sol\":463:690  function transfer(... */\n    tag_9:\n        /* \"contracts/event.sol\":559:582  _balance[contractOwner] */\n      0x00\n        /* \"contracts/event.sol\":568:581  contractOwner */\n      dup1\n      sload\n      sub(shl(0xa0, 0x01), 0x01)\n      and\n        /* \"contracts/event.sol\":559:582  _balance[contractOwner] */\n      dup2\n      mstore\n        /* \"contracts/event.sol\":559:567  _balance */\n      0x01\n        /* \"contracts/event.sol\":559:582  _balance[contractOwner] */\n      0x20\n      mstore\n      0x40\n      dup2\n      keccak256\n        /* \"contracts/event.sol\":559:592  _balance[contractOwner] -= amount */\n      dup1\n      sload\n        /* \"contracts/event.sol\":586:592  amount */\n      dup4\n      swap3\n        /* \"contracts/event.sol\":559:582  _balance[contractOwner] */\n      swap1\n        /* \"contracts/event.sol\":559:592  _balance[contractOwner] -= amount */\n      tag_21\n      swap1\n        /* \"contracts/event.sol\":586:592  amount */\n      dup5\n      swap1\n        /* \"contracts/event.sol\":559:592  _balance[contractOwner] -= amount */\n      tag_22\n      jump\t// in\n    tag_21:\n      swap1\n      swap2\n      sstore\n      pop\n      pop\n      sub(shl(0xa0, 0x01), 0x01)\n        /* \"contracts/event.sol\":602:614  _balance[to] */\n      dup3\n      and\n      0x00\n      swap1\n      dup2\n      mstore\n        /* \"contracts/event.sol\":602:610  _balance */\n      0x01\n        /* \"contracts/event.sol\":602:614  _balance[to] */\n      0x20\n      mstore\n      0x40\n      dup2\n      keccak256\n        /* \"contracts/event.sol\":602:624  _balance[to] += amount */\n      dup1\n      sload\n        /* \"contracts/event.sol\":618:624  amount */\n      dup4\n      swap3\n        /* \"contracts/event.sol\":602:614  _balance[to] */\n      swap1\n        /* \"contracts/event.sol\":602:624  _balance[to] += amount */\n      tag_23\n      swap1\n        /* \"contracts/event.sol\":618:624  amount */\n      dup5\n      swap1\n        /* \"contracts/event.sol\":602:624  _balance[to] += amount */\n      tag_24\n      jump\t// in\n    tag_23:\n      swap1\n      swap2\n      sstore\n      pop\n      pop\n        /* \"contracts/event.sol\":657:670  contractOwner */\n      sload(0x00)\n        /* \"contracts/event.sol\":648:683  Transfer(contractOwner, to, amount) */\n      mload(0x40)\n        /* \"#utility.yul\":996:1021   */\n      dup3\n      dup2\n      mstore\n      sub(shl(0xa0, 0x01), 0x01)\n        /* \"contracts/event.sol\":648:683  Transfer(contractOwner, to, amount) */\n      dup5\n      dup2\n      and\n      swap3\n        /* \"contracts/event.sol\":657:670  contractOwner */\n      and\n      swap1\n        /* \"contracts/event.sol\":648:683  Transfer(contractOwner, to, amount) */\n      0xddf252ad1be2c89b69c2b068fc378daa952ba7f163c4a11628f55a4df523b3ef\n      swap1\n        /* \"#utility.yul\":984:986   */\n      0x20\n        /* \"#utility.yul\":969:987   */\n      add\n        /* \"contracts/event.sol\":648:683  Transfer(contractOwner, to, amount) */\n      mload(0x40)\n      dup1\n      swap2\n      sub\n      swap1\n      log3\n        /* \"contracts/event.sol\":463:690  function transfer(... */\n      pop\n      pop\n      jump\t// out\n        /* \"#utility.yul\":14:187   */\n    tag_26:\n        /* \"#utility.yul\":82:102   */\n      dup1\n      calldataload\n      sub(shl(0xa0, 0x01), 0x01)\n        /* \"#utility.yul\":131:162   */\n      dup2\n      and\n        /* \"#utility.yul\":121:163   */\n      dup2\n      eq\n        /* \"#utility.yul\":111:181   */\n      tag_30\n      jumpi\n        /* \"#utility.yul\":177:178   */\n      0x00\n        /* \"#utility.yul\":174:175   */\n      dup1\n        /* \"#utility.yul\":167:179   */\n      revert\n        /* \"#utility.yul\":111:181   */\n    tag_30:\n        /* \"#utility.yul\":14:187   */\n      swap2\n      swap1\n      pop\n      jump\t// out\n        /* \"#utility.yul\":192:446   */\n    tag_8:\n        /* \"#utility.yul\":260:266   */\n      0x00\n        /* \"#utility.yul\":268:274   */\n      dup1\n        /* \"#utility.yul\":321:323   */\n      0x40\n        /* \"#utility.yul\":309:318   */\n      dup4\n        /* \"#utility.yul\":300:307   */\n      dup6\n        /* \"#utility.yul\":296:319   */\n      sub\n        /* \"#utility.yul\":292:324   */\n      slt\n        /* \"#utility.yul\":289:341   */\n      iszero\n      tag_32\n      jumpi\n        /* \"#utility.yul\":337:338   */\n      0x00\n        /* \"#utility.yul\":334:335   */\n      dup1\n        /* \"#utility.yul\":327:339   */\n      revert\n        /* \"#utility.yul\":289:341   */\n    tag_32:\n        /* \"#utility.yul\":360:389   */\n      tag_33\n        /* \"#utility.yul\":379:388   */\n      dup4\n        /* \"#utility.yul\":360:389   */\n      tag_26\n      jump\t// in\n    tag_33:\n        /* \"#utility.yul\":350:389   */\n      swap5\n        /* \"#utility.yul\":436:438   */\n      0x20\n        /* \"#utility.yul\":421:439   */\n      swap4\n      swap1\n      swap4\n      add\n        /* \"#utility.yul\":408:440   */\n      calldataload\n      swap4\n      pop\n      pop\n      pop\n        /* \"#utility.yul\":192:446   */\n      jump\t// out\n        /* \"#utility.yul\":659:845   */\n    tag_16:\n        /* \"#utility.yul\":718:724   */\n      0x00\n        /* \"#utility.yul\":771:773   */\n      0x20\n        /* \"#utility.yul\":759:768   */\n      dup3\n        /* \"#utility.yul\":750:757   */\n      dup5\n        /* \"#utility.yul\":746:769   */\n      sub\n        /* \"#utility.yul\":742:774   */\n      slt\n        /* \"#utility.yul\":739:791   */\n      iszero\n      tag_36\n      jumpi\n        /* \"#utility.yul\":787:788   */\n      0x00\n        /* \"#utility.yul\":784:785   */\n      dup1\n        /* \"#utility.yul\":777:789   */\n      revert\n        /* \"#utility.yul\":739:791   */\n    tag_36:\n        /* \"#utility.yul\":810:839   */\n      tag_37\n        /* \"#utility.yul\":829:838   */\n      dup3\n        /* \"#utility.yul\":810:839   */\n      tag_26\n      jump\t// in\n    tag_37:\n        /* \"#utility.yul\":800:839   */\n      swap4\n        /* \"#utility.yul\":659:845   */\n      swap3\n      pop\n      pop\n      pop\n      jump\t// out\n        /* \"#utility.yul\":1032:1159   */\n    tag_27:\n        /* \"#utility.yul\":1093:1103   */\n      0x4e487b71\n        /* \"#utility.yul\":1088:1091   */\n      0xe0\n        /* \"#utility.yul\":1084:1104   */\n      shl\n        /* \"#utility.yul\":1081:1082   */\n      0x00\n        /* \"#utility.yul\":1074:1105   */\n      mstore\n        /* \"#utility.yul\":1124:1128   */\n      0x11\n        /* \"#utility.yul\":1121:1122   */\n      0x04\n        /* \"#utility.yul\":1114:1129   */\n      mstore\n        /* \"#utility.yul\":1148:1152   */\n      0x24\n        /* \"#utility.yul\":1145:1146   */\n      0x00\n        /* \"#utility.yul\":1138:1153   */\n      revert\n        /* \"#utility.yul\":1164:1292   */\n    tag_22:\n        /* \"#utility.yul\":1231:1240   */\n      dup2\n      dup2\n      sub\n        /* \"#utility.yul\":1252:1263   */\n      dup2\n      dup2\n      gt\n        /* \"#utility.yul\":1249:1286   */\n      iszero\n      tag_42\n      jumpi\n        /* \"#utility.yul\":1266:1284   */\n      tag_42\n      tag_27\n      jump\t// in\n    tag_42:\n        /* \"#utility.yul\":1164:1292   */\n      swap3\n      swap2\n      pop\n      pop\n      jump\t// out\n        /* \"#utility.yul\":1297:1422   */\n    tag_24:\n        /* \"#utility.yul\":1362:1371   */\n      dup1\n      dup3\n      add\n        /* \"#utility.yul\":1383:1393   */\n      dup1\n      dup3\n      gt\n        /* \"#utility.yul\":1380:1416   */\n      iszero\n      tag_42\n      jumpi\n        /* \"#utility.yul\":1396:1414   */\n      tag_42\n      tag_27\n      jump\t// in\n\n    auxdata: 0xa26469706673582212207d8171fa8680308b8be63ad1acc2e022cfb85e6ba67b67ae11ad4db58cedd7ce64736f6c63430008180033\n}\n",
				"bytecode": {
					"linkReferences": {},
					"object": "608060409081525f80546001600160a01b0319163390811782558152600160205220633b9aca00905561022c806100355f395ff3fe608060405234801561000f575f80fd5b506004361061003f575f3560e01c8063a9059cbb14610043578063ce606ee014610058578063d3aceae214610087575b5f80fd5b61005661005136600461016e565b6100b4565b005b5f5461006a906001600160a01b031681565b6040516001600160a01b0390911681526020015b60405180910390f35b6100a6610095366004610196565b60016020525f908152604090205481565b60405190815260200161007e565b5f80546001600160a01b0316815260016020526040812080548392906100db9084906101ca565b90915550506001600160a01b0382165f90815260016020526040812080548392906101079084906101e3565b90915550505f546040518281526001600160a01b038481169216907fddf252ad1be2c89b69c2b068fc378daa952ba7f163c4a11628f55a4df523b3ef9060200160405180910390a35050565b80356001600160a01b0381168114610169575f80fd5b919050565b5f806040838503121561017f575f80fd5b61018883610153565b946020939093013593505050565b5f602082840312156101a6575f80fd5b6101af82610153565b9392505050565b634e487b7160e01b5f52601160045260245ffd5b818103818111156101dd576101dd6101b6565b92915050565b808201808211156101dd576101dd6101b656fea26469706673582212207d8171fa8680308b8be63ad1acc2e022cfb85e6ba67b67ae11ad4db58cedd7ce64736f6c63430008180033",
					"opcodes": "PUSH1 0x80 PUSH1 0x40 SWAP1 DUP2 MSTORE PUSH0 DUP1 SLOAD PUSH1 0x1 PUSH1 0x1 PUSH1 0xA0 SHL SUB NOT AND CALLER SWAP1 DUP2 OR DUP3 SSTORE DUP2 MSTORE PUSH1 0x1 PUSH1 0x20 MSTORE KECCAK256 PUSH4 0x3B9ACA00 SWAP1 SSTORE PUSH2 0x22C DUP1 PUSH2 0x35 PUSH0 CODECOPY PUSH0 RETURN INVALID PUSH1 0x80 PUSH1 0x40 MSTORE CALLVALUE DUP1 ISZERO PUSH2 0xF JUMPI PUSH0 DUP1 REVERT JUMPDEST POP PUSH1 0x4 CALLDATASIZE LT PUSH2 0x3F JUMPI PUSH0 CALLDATALOAD PUSH1 0xE0 SHR DUP1 PUSH4 0xA9059CBB EQ PUSH2 0x43 JUMPI DUP1 PUSH4 0xCE606EE0 EQ PUSH2 0x58 JUMPI DUP1 PUSH4 0xD3ACEAE2 EQ PUSH2 0x87 JUMPI JUMPDEST PUSH0 DUP1 REVERT JUMPDEST PUSH2 0x56 PUSH2 0x51 CALLDATASIZE PUSH1 0x4 PUSH2 0x16E JUMP JUMPDEST PUSH2 0xB4 JUMP JUMPDEST STOP JUMPDEST PUSH0 SLOAD PUSH2 0x6A SWAP1 PUSH1 0x1 PUSH1 0x1 PUSH1 0xA0 SHL SUB AND DUP2 JUMP JUMPDEST PUSH1 0x40 MLOAD PUSH1 0x1 PUSH1 0x1 PUSH1 0xA0 SHL SUB SWAP1 SWAP2 AND DUP2 MSTORE PUSH1 0x20 ADD JUMPDEST PUSH1 0x40 MLOAD DUP1 SWAP2 SUB SWAP1 RETURN JUMPDEST PUSH2 0xA6 PUSH2 0x95 CALLDATASIZE PUSH1 0x4 PUSH2 0x196 JUMP JUMPDEST PUSH1 0x1 PUSH1 0x20 MSTORE PUSH0 SWAP1 DUP2 MSTORE PUSH1 0x40 SWAP1 KECCAK256 SLOAD DUP2 JUMP JUMPDEST PUSH1 0x40 MLOAD SWAP1 DUP2 MSTORE PUSH1 0x20 ADD PUSH2 0x7E JUMP JUMPDEST PUSH0 DUP1 SLOAD PUSH1 0x1 PUSH1 0x1 PUSH1 0xA0 SHL SUB AND DUP2 MSTORE PUSH1 0x1 PUSH1 0x20 MSTORE PUSH1 0x40 DUP2 KECCAK256 DUP1 SLOAD DUP4 SWAP3 SWAP1 PUSH2 0xDB SWAP1 DUP5 SWAP1 PUSH2 0x1CA JUMP JUMPDEST SWAP1 SWAP2 SSTORE POP POP PUSH1 0x1 PUSH1 0x1 PUSH1 0xA0 SHL SUB DUP3 AND PUSH0 SWAP1 DUP2 MSTORE PUSH1 0x1 PUSH1 0x20 MSTORE PUSH1 0x40 DUP2 KECCAK256 DUP1 SLOAD DUP4 SWAP3 SWAP1 PUSH2 0x107 SWAP1 DUP5 SWAP1 PUSH2 0x1E3 JUMP JUMPDEST SWAP1 SWAP2 SSTORE POP POP PUSH0 SLOAD PUSH1 0x40 MLOAD DUP3 DUP2 MSTORE PUSH1 0x1 PUSH1 0x1 PUSH1 0xA0 SHL SUB DUP5 DUP2 AND SWAP3 AND SWAP1 PUSH32 0xDDF252AD1BE2C89B69C2B068FC378DAA952BA7F163C4A11628F55A4DF523B3EF SWAP1 PUSH1 0x20 ADD PUSH1 0x40 MLOAD DUP1 SWAP2 SUB SWAP1 LOG3 POP POP JUMP JUMPDEST DUP1 CALLDATALOAD PUSH1 0x1 PUSH1 0x1 PUSH1 0xA0 SHL SUB DUP2 AND DUP2 EQ PUSH2 0x169 JUMPI PUSH0 DUP1 REVERT JUMPDEST SWAP2 SWAP1 POP JUMP JUMPDEST PUSH0 DUP1 PUSH1 0x40 DUP4 DUP6 SUB SLT ISZERO PUSH2 0x17F JUMPI PUSH0 DUP1 REVERT JUMPDEST PUSH2 0x188 DUP4 PUSH2 0x153 JUMP JUMPDEST SWAP5 PUSH1 0x20 SWAP4 SWAP1 SWAP4 ADD CALLDATALOAD SWAP4 POP POP POP JUMP JUMPDEST PUSH0 PUSH1 0x20 DUP3 DUP5 SUB SLT ISZERO PUSH2 0x1A6 JUMPI PUSH0 DUP1 REVERT JUMPDEST PUSH2 0x1AF DUP3 PUSH2 0x153 JUMP JUMPDEST SWAP4 SWAP3 POP POP POP JUMP JUMPDEST PUSH4 0x4E487B71 PUSH1 0xE0 SHL PUSH0 MSTORE PUSH1 0x11 PUSH1 0x4 MSTORE PUSH1 0x24 PUSH0 REVERT JUMPDEST DUP2 DUP2 SUB DUP2 DUP2 GT ISZERO PUSH2 0x1DD JUMPI PUSH2 0x1DD PUSH2 0x1B6 JUMP JUMPDEST SWAP3 SWAP2 POP POP JUMP JUMPDEST DUP1 DUP3 ADD DUP1 DUP3 GT ISZERO PUSH2 0x1DD JUMPI PUSH2 0x1DD PUSH2 0x1B6 JUMP INVALID LOG2 PUSH5 0x6970667358 0x22 SLT KECCAK256 PUSH30 0x8171FA8680308B8BE63AD1ACC2E022CFB85E6BA67B67AE11AD4DB58CEDD7 0xCE PUSH5 0x736F6C6343 STOP ADDMOD XOR STOP CALLER "
				},
				"gasEstimates": {
					"creation": {
						"codeDepositCost": "111200",
						"executionCost": "46542",
						"totalCost": "157742"
					},
					"external": {
						"_balance(address)": "2538",
						"contractOwner()": "2324",
						"transfer(address,uint256)": "infinite"
					}
				},
				"methodIdentifiers": {
					"_balance(address)": "d3aceae2",
					"contractOwner()": "ce606ee0",
					"transfer(address,uint256)": "a9059cbb"
				}
			},
			"storageLayout": {
				"storage": [
					{
						"astId": 3,
						"contract": "contracts/event.sol:WTF_Event",
						"label": "contractOwner",
						"offset": 0,
						"slot": "0",
						"type": "t_address"
					},
					{
						"astId": 22,
						"contract": "contracts/event.sol:WTF_Event",
						"label": "_balance",
						"offset": 0,
						"slot": "1",
						"type": "t_mapping(t_address,t_uint256)"
					}
				],
				"types": {
					"t_address": {
						"encoding": "inplace",
						"label": "address",
						"numberOfBytes": "20"
					},
					"t_mapping(t_address,t_uint256)": {
						"encoding": "mapping",
						"key": "t_address",
						"label": "mapping(address => uint256)",
						"numberOfBytes": "32",
						"value": "t_uint256"
					},
					"t_uint256": {
						"encoding": "inplace",
						"label": "uint256",
						"numberOfBytes": "32"
					}
				}
			},
			"userdoc": {
				"kind": "user",
				"methods": {},
				"version": 1
			}
		}
	}
}