{
	".learneth/ethereum/remix-workshops/10.3 Transactions - Sending Ether/sendingEther.sol": {
		"SendEther": {
			"abi": [
				{
					"inputs": [
						{
							"internalType": "address payable",
							"name": "_to",
							"type": "address"
						}
					],
					"name": "sendViaCall",
					"outputs": [],
					"stateMutability": "payable",
					"type": "function"
				},
				{
					"inputs": [
						{
							"internalType": "address payable",
							"name": "_to",
							"type": "address"
						}
					],
					"name": "sendViaSend",
					"outputs": [],
					"stateMutability": "payable",
					"type": "function"
				},
				{
					"inputs": [
						{
							"internalType": "address payable",
							"name": "_to",
							"type": "address"
						}
					],
					"name": "sendViaTransfer",
					"outputs": [],
					"stateMutability": "payable",
					"type": "function"
				}
			],
			"devdoc": {
				"kind": "dev",
				"methods": {},
				"version": 1
			},
			"evm": {
				"assembly": "    /* \".learneth/ethereum/remix-workshops/10.3 Transactions - Sending Ether/sendingEther.sol\":675:1483  contract SendEther {... */\n  mstore(0x40, 0x80)\n  callvalue\n  dup1\n  iszero\n  tag_1\n  jumpi\n  0x00\n  dup1\n  revert\ntag_1:\n  pop\n  dataSize(sub_0)\n  dup1\n  dataOffset(sub_0)\n  0x00\n  codecopy\n  0x00\n  return\nstop\n\nsub_0: assembly {\n        /* \".learneth/ethereum/remix-workshops/10.3 Transactions - Sending Ether/sendingEther.sol\":675:1483  contract SendEther {... */\n      mstore(0x40, 0x80)\n      jumpi(tag_1, lt(calldatasize, 0x04))\n      shr(0xe0, calldataload(0x00))\n      dup1\n      0x636e082b\n      eq\n      tag_2\n      jumpi\n      dup1\n      0x74be4806\n      eq\n      tag_3\n      jumpi\n      dup1\n      0x830c29ae\n      eq\n      tag_4\n      jumpi\n    tag_1:\n      0x00\n      dup1\n      revert\n        /* \".learneth/ethereum/remix-workshops/10.3 Transactions - Sending Ether/sendingEther.sol\":700:870  function sendViaTransfer(address payable _to) public payable {... */\n    tag_2:\n      tag_5\n      tag_6\n      calldatasize\n      0x04\n      tag_7\n      jump\t// in\n    tag_6:\n      tag_8\n      jump\t// in\n    tag_5:\n      stop\n        /* \".learneth/ethereum/remix-workshops/10.3 Transactions - Sending Ether/sendingEther.sol\":876:1162  function sendViaSend(address payable _to) public payable {... */\n    tag_3:\n      tag_5\n      tag_10\n      calldatasize\n      0x04\n      tag_7\n      jump\t// in\n    tag_10:\n      tag_11\n      jump\t// in\n        /* \".learneth/ethereum/remix-workshops/10.3 Transactions - Sending Ether/sendingEther.sol\":1168:1481  function sendViaCall(address payable _to) public payable {... */\n    tag_4:\n      tag_5\n      tag_13\n      calldatasize\n      0x04\n      tag_7\n      jump\t// in\n    tag_13:\n      tag_14\n      jump\t// in\n        /* \".learneth/ethereum/remix-workshops/10.3 Transactions - Sending Ether/sendingEther.sol\":700:870  function sendViaTransfer(address payable _to) public payable {... */\n    tag_8:\n        /* \".learneth/ethereum/remix-workshops/10.3 Transactions - Sending Ether/sendingEther.sol\":840:863  _to.transfer(msg.value) */\n      mload(0x40)\n      sub(shl(0xa0, 0x01), 0x01)\n        /* \".learneth/ethereum/remix-workshops/10.3 Transactions - Sending Ether/sendingEther.sol\":840:852  _to.transfer */\n      dup3\n      and\n      swap1\n        /* \".learneth/ethereum/remix-workshops/10.3 Transactions - Sending Ether/sendingEther.sol\":853:862  msg.value */\n      callvalue\n        /* \".learneth/ethereum/remix-workshops/10.3 Transactions - Sending Ether/sendingEther.sol\":840:863  _to.transfer(msg.value) */\n      dup1\n      iszero\n      0x08fc\n      mul\n      swap2\n      0x00\n      dup2\n      dup2\n      dup2\n        /* \".learneth/ethereum/remix-workshops/10.3 Transactions - Sending Ether/sendingEther.sol\":853:862  msg.value */\n      dup6\n        /* \".learneth/ethereum/remix-workshops/10.3 Transactions - Sending Ether/sendingEther.sol\":840:852  _to.transfer */\n      dup9\n        /* \".learneth/ethereum/remix-workshops/10.3 Transactions - Sending Ether/sendingEther.sol\":840:863  _to.transfer(msg.value) */\n      dup9\n      call\n      swap4\n      pop\n      pop\n      pop\n      pop\n      iszero\n      dup1\n      iszero\n      tag_17\n      jumpi\n      returndatasize\n      0x00\n      dup1\n      returndatacopy\n      revert(0x00, returndatasize)\n    tag_17:\n      pop\n        /* \".learneth/ethereum/remix-workshops/10.3 Transactions - Sending Ether/sendingEther.sol\":700:870  function sendViaTransfer(address payable _to) public payable {... */\n      pop\n      jump\t// out\n        /* \".learneth/ethereum/remix-workshops/10.3 Transactions - Sending Ether/sendingEther.sol\":876:1162  function sendViaSend(address payable _to) public payable {... */\n    tag_11:\n        /* \".learneth/ethereum/remix-workshops/10.3 Transactions - Sending Ether/sendingEther.sol\":1089:1108  _to.send(msg.value) */\n      mload(0x40)\n        /* \".learneth/ethereum/remix-workshops/10.3 Transactions - Sending Ether/sendingEther.sol\":1077:1086  bool sent */\n      0x00\n      swap1\n      sub(shl(0xa0, 0x01), 0x01)\n        /* \".learneth/ethereum/remix-workshops/10.3 Transactions - Sending Ether/sendingEther.sol\":1089:1097  _to.send */\n      dup4\n      and\n      swap1\n        /* \".learneth/ethereum/remix-workshops/10.3 Transactions - Sending Ether/sendingEther.sol\":1098:1107  msg.value */\n      callvalue\n        /* \".learneth/ethereum/remix-workshops/10.3 Transactions - Sending Ether/sendingEther.sol\":1089:1108  _to.send(msg.value) */\n      dup1\n      iszero\n      0x08fc\n      mul\n      swap2\n        /* \".learneth/ethereum/remix-workshops/10.3 Transactions - Sending Ether/sendingEther.sol\":1077:1086  bool sent */\n      dup5\n        /* \".learneth/ethereum/remix-workshops/10.3 Transactions - Sending Ether/sendingEther.sol\":1089:1108  _to.send(msg.value) */\n      dup2\n        /* \".learneth/ethereum/remix-workshops/10.3 Transactions - Sending Ether/sendingEther.sol\":1077:1086  bool sent */\n      dup2\n        /* \".learneth/ethereum/remix-workshops/10.3 Transactions - Sending Ether/sendingEther.sol\":1089:1108  _to.send(msg.value) */\n      dup2\n        /* \".learneth/ethereum/remix-workshops/10.3 Transactions - Sending Ether/sendingEther.sol\":1098:1107  msg.value */\n      dup6\n        /* \".learneth/ethereum/remix-workshops/10.3 Transactions - Sending Ether/sendingEther.sol\":1089:1097  _to.send */\n      dup9\n        /* \".learneth/ethereum/remix-workshops/10.3 Transactions - Sending Ether/sendingEther.sol\":1089:1108  _to.send(msg.value) */\n      dup9\n      call\n      swap4\n      pop\n      pop\n      pop\n      pop\n        /* \".learneth/ethereum/remix-workshops/10.3 Transactions - Sending Ether/sendingEther.sol\":1077:1108  bool sent = _to.send(msg.value) */\n      swap1\n      pop\n        /* \".learneth/ethereum/remix-workshops/10.3 Transactions - Sending Ether/sendingEther.sol\":1126:1130  sent */\n      dup1\n        /* \".learneth/ethereum/remix-workshops/10.3 Transactions - Sending Ether/sendingEther.sol\":1118:1155  require(sent, \"Failed to send Ether\") */\n      tag_17\n      jumpi\n      mload(0x40)\n      shl(0xe5, 0x461bcd)\n      dup2\n      mstore\n        /* \"#utility.yul\":515:517   */\n      0x20\n        /* \".learneth/ethereum/remix-workshops/10.3 Transactions - Sending Ether/sendingEther.sol\":1118:1155  require(sent, \"Failed to send Ether\") */\n      0x04\n      dup3\n      add\n        /* \"#utility.yul\":497:518   */\n      mstore\n        /* \"#utility.yul\":554:556   */\n      0x14\n        /* \"#utility.yul\":534:552   */\n      0x24\n      dup3\n      add\n        /* \"#utility.yul\":527:557   */\n      mstore\n      shl(0x61, 0x2330b4b632b2103a379039b2b7321022ba3432b9)\n        /* \"#utility.yul\":573:591   */\n      0x44\n      dup3\n      add\n        /* \"#utility.yul\":566:616   */\n      mstore\n        /* \"#utility.yul\":633:651   */\n      0x64\n      add\n        /* \".learneth/ethereum/remix-workshops/10.3 Transactions - Sending Ether/sendingEther.sol\":1118:1155  require(sent, \"Failed to send Ether\") */\n    tag_21:\n      mload(0x40)\n      dup1\n      swap2\n      sub\n      swap1\n      revert\n        /* \".learneth/ethereum/remix-workshops/10.3 Transactions - Sending Ether/sendingEther.sol\":1168:1481  function sendViaCall(address payable _to) public payable {... */\n    tag_14:\n        /* \".learneth/ethereum/remix-workshops/10.3 Transactions - Sending Ether/sendingEther.sol\":1365:1374  bool sent */\n      0x00\n        /* \".learneth/ethereum/remix-workshops/10.3 Transactions - Sending Ether/sendingEther.sol\":1376:1393  bytes memory data */\n      dup1\n        /* \".learneth/ethereum/remix-workshops/10.3 Transactions - Sending Ether/sendingEther.sol\":1397:1400  _to */\n      dup3\n      sub(shl(0xa0, 0x01), 0x01)\n        /* \".learneth/ethereum/remix-workshops/10.3 Transactions - Sending Ether/sendingEther.sol\":1397:1405  _to.call */\n      and\n        /* \".learneth/ethereum/remix-workshops/10.3 Transactions - Sending Ether/sendingEther.sol\":1413:1422  msg.value */\n      callvalue\n        /* \".learneth/ethereum/remix-workshops/10.3 Transactions - Sending Ether/sendingEther.sol\":1397:1427  _to.call{value: msg.value}(\"\") */\n      mload(0x40)\n      0x00\n      mload(0x40)\n      dup1\n      dup4\n      sub\n      dup2\n      dup6\n      dup8\n      gas\n      call\n      swap3\n      pop\n      pop\n      pop\n      returndatasize\n      dup1\n      0x00\n      dup2\n      eq\n      tag_28\n      jumpi\n      mload(0x40)\n      swap2\n      pop\n      and(add(returndatasize, 0x3f), not(0x1f))\n      dup3\n      add\n      0x40\n      mstore\n      returndatasize\n      dup3\n      mstore\n      returndatasize\n      0x00\n      0x20\n      dup5\n      add\n      returndatacopy\n      jump(tag_27)\n    tag_28:\n      0x60\n      swap2\n      pop\n    tag_27:\n      pop\n        /* \".learneth/ethereum/remix-workshops/10.3 Transactions - Sending Ether/sendingEther.sol\":1364:1427  (bool sent, bytes memory data) = _to.call{value: msg.value}(\"\") */\n      swap2\n      pop\n      swap2\n      pop\n        /* \".learneth/ethereum/remix-workshops/10.3 Transactions - Sending Ether/sendingEther.sol\":1445:1449  sent */\n      dup2\n        /* \".learneth/ethereum/remix-workshops/10.3 Transactions - Sending Ether/sendingEther.sol\":1437:1474  require(sent, \"Failed to send Ether\") */\n      tag_29\n      jumpi\n      mload(0x40)\n      shl(0xe5, 0x461bcd)\n      dup2\n      mstore\n        /* \"#utility.yul\":515:517   */\n      0x20\n        /* \".learneth/ethereum/remix-workshops/10.3 Transactions - Sending Ether/sendingEther.sol\":1437:1474  require(sent, \"Failed to send Ether\") */\n      0x04\n      dup3\n      add\n        /* \"#utility.yul\":497:518   */\n      mstore\n        /* \"#utility.yul\":554:556   */\n      0x14\n        /* \"#utility.yul\":534:552   */\n      0x24\n      dup3\n      add\n        /* \"#utility.yul\":527:557   */\n      mstore\n      shl(0x61, 0x2330b4b632b2103a379039b2b7321022ba3432b9)\n        /* \"#utility.yul\":573:591   */\n      0x44\n      dup3\n      add\n        /* \"#utility.yul\":566:616   */\n      mstore\n        /* \"#utility.yul\":633:651   */\n      0x64\n      add\n        /* \".learneth/ethereum/remix-workshops/10.3 Transactions - Sending Ether/sendingEther.sol\":1437:1474  require(sent, \"Failed to send Ether\") */\n      tag_21\n        /* \"#utility.yul\":313:657   */\n      jump\n        /* \".learneth/ethereum/remix-workshops/10.3 Transactions - Sending Ether/sendingEther.sol\":1437:1474  require(sent, \"Failed to send Ether\") */\n    tag_29:\n        /* \".learneth/ethereum/remix-workshops/10.3 Transactions - Sending Ether/sendingEther.sol\":1225:1481  {... */\n      pop\n      pop\n        /* \".learneth/ethereum/remix-workshops/10.3 Transactions - Sending Ether/sendingEther.sol\":1168:1481  function sendViaCall(address payable _to) public payable {... */\n      pop\n      jump\t// out\n        /* \"#utility.yul\":14:308   */\n    tag_7:\n        /* \"#utility.yul\":81:87   */\n      0x00\n        /* \"#utility.yul\":134:136   */\n      0x20\n        /* \"#utility.yul\":122:131   */\n      dup3\n        /* \"#utility.yul\":113:120   */\n      dup5\n        /* \"#utility.yul\":109:132   */\n      sub\n        /* \"#utility.yul\":105:137   */\n      slt\n        /* \"#utility.yul\":102:154   */\n      iszero\n      tag_33\n      jumpi\n        /* \"#utility.yul\":150:151   */\n      0x00\n        /* \"#utility.yul\":147:148   */\n      dup1\n        /* \"#utility.yul\":140:152   */\n      revert\n        /* \"#utility.yul\":102:154   */\n    tag_33:\n        /* \"#utility.yul\":176:199   */\n      dup2\n      calldataload\n      sub(shl(0xa0, 0x01), 0x01)\n        /* \"#utility.yul\":228:259   */\n      dup2\n      and\n        /* \"#utility.yul\":218:260   */\n      dup2\n      eq\n        /* \"#utility.yul\":208:278   */\n      tag_34\n      jumpi\n        /* \"#utility.yul\":274:275   */\n      0x00\n        /* \"#utility.yul\":271:272   */\n      dup1\n        /* \"#utility.yul\":264:276   */\n      revert\n        /* \"#utility.yul\":208:278   */\n    tag_34:\n        /* \"#utility.yul\":297:302   */\n      swap4\n        /* \"#utility.yul\":14:308   */\n      swap3\n      pop\n      pop\n      pop\n      jump\t// out\n\n    auxdata: 0xa2646970667358221220a089b11144d4fc1e41c198472a8f5140330dc70e7fa6778f0c90b9bbf28c7eae64736f6c63430008180033\n}\n",
				"bytecode": {
					"linkReferences": {},
					"object": "608060405234801561000f575f80fd5b506102188061001d5f395ff3fe608060405260043610610033575f3560e01c8063636e082b1461003757806374be48061461004c578063830c29ae1461005f575b5f80fd5b61004a6100453660046101b5565b610072565b005b61004a61005a3660046101b5565b6100a8565b61004a61006d3660046101b5565b610118565b6040516001600160a01b038216903480156108fc02915f818181858888f193505050501580156100a4573d5f803e3d5ffd5b5050565b6040515f906001600160a01b038316903480156108fc029184818181858888f193505050509050806100a45760405162461bcd60e51b81526020600482015260146024820152732330b4b632b2103a379039b2b7321022ba3432b960611b60448201526064015b60405180910390fd5b5f80826001600160a01b0316346040515f6040518083038185875af1925050503d805f8114610162576040519150601f19603f3d011682016040523d82523d5f602084013e610167565b606091505b5091509150816101b05760405162461bcd60e51b81526020600482015260146024820152732330b4b632b2103a379039b2b7321022ba3432b960611b604482015260640161010f565b505050565b5f602082840312156101c5575f80fd5b81356001600160a01b03811681146101db575f80fd5b939250505056fea2646970667358221220a089b11144d4fc1e41c198472a8f5140330dc70e7fa6778f0c90b9bbf28c7eae64736f6c63430008180033",
					"opcodes": "PUSH1 0x80 PUSH1 0x40 MSTORE CALLVALUE DUP1 ISZERO PUSH2 0xF JUMPI PUSH0 DUP1 REVERT JUMPDEST POP PUSH2 0x218 DUP1 PUSH2 0x1D PUSH0 CODECOPY PUSH0 RETURN INVALID PUSH1 0x80 PUSH1 0x40 MSTORE PUSH1 0x4 CALLDATASIZE LT PUSH2 0x33 JUMPI PUSH0 CALLDATALOAD PUSH1 0xE0 SHR DUP1 PUSH4 0x636E082B EQ PUSH2 0x37 JUMPI DUP1 PUSH4 0x74BE4806 EQ PUSH2 0x4C JUMPI DUP1 PUSH4 0x830C29AE EQ PUSH2 0x5F JUMPI JUMPDEST PUSH0 DUP1 REVERT JUMPDEST PUSH2 0x4A PUSH2 0x45 CALLDATASIZE PUSH1 0x4 PUSH2 0x1B5 JUMP JUMPDEST PUSH2 0x72 JUMP JUMPDEST STOP JUMPDEST PUSH2 0x4A PUSH2 0x5A CALLDATASIZE PUSH1 0x4 PUSH2 0x1B5 JUMP JUMPDEST PUSH2 0xA8 JUMP JUMPDEST PUSH2 0x4A PUSH2 0x6D CALLDATASIZE PUSH1 0x4 PUSH2 0x1B5 JUMP JUMPDEST PUSH2 0x118 JUMP JUMPDEST PUSH1 0x40 MLOAD PUSH1 0x1 PUSH1 0x1 PUSH1 0xA0 SHL SUB DUP3 AND SWAP1 CALLVALUE DUP1 ISZERO PUSH2 0x8FC MUL SWAP2 PUSH0 DUP2 DUP2 DUP2 DUP6 DUP9 DUP9 CALL SWAP4 POP POP POP POP ISZERO DUP1 ISZERO PUSH2 0xA4 JUMPI RETURNDATASIZE PUSH0 DUP1 RETURNDATACOPY RETURNDATASIZE PUSH0 REVERT JUMPDEST POP POP JUMP JUMPDEST PUSH1 0x40 MLOAD PUSH0 SWAP1 PUSH1 0x1 PUSH1 0x1 PUSH1 0xA0 SHL SUB DUP4 AND SWAP1 CALLVALUE DUP1 ISZERO PUSH2 0x8FC MUL SWAP2 DUP5 DUP2 DUP2 DUP2 DUP6 DUP9 DUP9 CALL SWAP4 POP POP POP POP SWAP1 POP DUP1 PUSH2 0xA4 JUMPI PUSH1 0x40 MLOAD PUSH3 0x461BCD PUSH1 0xE5 SHL DUP2 MSTORE PUSH1 0x20 PUSH1 0x4 DUP3 ADD MSTORE PUSH1 0x14 PUSH1 0x24 DUP3 ADD MSTORE PUSH20 0x2330B4B632B2103A379039B2B7321022BA3432B9 PUSH1 0x61 SHL PUSH1 0x44 DUP3 ADD MSTORE PUSH1 0x64 ADD JUMPDEST PUSH1 0x40 MLOAD DUP1 SWAP2 SUB SWAP1 REVERT JUMPDEST PUSH0 DUP1 DUP3 PUSH1 0x1 PUSH1 0x1 PUSH1 0xA0 SHL SUB AND CALLVALUE PUSH1 0x40 MLOAD PUSH0 PUSH1 0x40 MLOAD DUP1 DUP4 SUB DUP2 DUP6 DUP8 GAS CALL SWAP3 POP POP POP RETURNDATASIZE DUP1 PUSH0 DUP2 EQ PUSH2 0x162 JUMPI PUSH1 0x40 MLOAD SWAP2 POP PUSH1 0x1F NOT PUSH1 0x3F RETURNDATASIZE ADD AND DUP3 ADD PUSH1 0x40 MSTORE RETURNDATASIZE DUP3 MSTORE RETURNDATASIZE PUSH0 PUSH1 0x20 DUP5 ADD RETURNDATACOPY PUSH2 0x167 JUMP JUMPDEST PUSH1 0x60 SWAP2 POP JUMPDEST POP SWAP2 POP SWAP2 POP DUP2 PUSH2 0x1B0 JUMPI PUSH1 0x40 MLOAD PUSH3 0x461BCD PUSH1 0xE5 SHL DUP2 MSTORE PUSH1 0x20 PUSH1 0x4 DUP3 ADD MSTORE PUSH1 0x14 PUSH1 0x24 DUP3 ADD MSTORE PUSH20 0x2330B4B632B2103A379039B2B7321022BA3432B9 PUSH1 0x61 SHL PUSH1 0x44 DUP3 ADD MSTORE PUSH1 0x64 ADD PUSH2 0x10F JUMP JUMPDEST POP POP POP JUMP JUMPDEST PUSH0 PUSH1 0x20 DUP3 DUP5 SUB SLT ISZERO PUSH2 0x1C5 JUMPI PUSH0 DUP1 REVERT JUMPDEST DUP2 CALLDATALOAD PUSH1 0x1 PUSH1 0x1 PUSH1 0xA0 SHL SUB DUP2 AND DUP2 EQ PUSH2 0x1DB JUMPI PUSH0 DUP1 REVERT JUMPDEST SWAP4 SWAP3 POP POP POP JUMP INVALID LOG2 PUSH5 0x6970667358 0x22 SLT KECCAK256 LOG0 DUP10 0xB1 GT PREVRANDAO 0xD4 0xFC 0x1E COINBASE 0xC1 SWAP9 SELFBALANCE 0x2A DUP16 MLOAD BLOCKHASH CALLER 0xD 0xC7 0xE PUSH32 0xA6778F0C90B9BBF28C7EAE64736F6C6343000818003300000000000000000000 "
				},
				"gasEstimates": {
					"creation": {
						"codeDepositCost": "107200",
						"executionCost": "151",
						"totalCost": "107351"
					},
					"external": {
						"sendViaCall(address)": "infinite",
						"sendViaSend(address)": "infinite",
						"sendViaTransfer(address)": "infinite"
					}
				},
				"methodIdentifiers": {
					"sendViaCall(address)": "830c29ae",
					"sendViaSend(address)": "74be4806",
					"sendViaTransfer(address)": "636e082b"
				}
			},
			"storageLayout": {
				"storage": [],
				"types": null
			},
			"userdoc": {
				"kind": "user",
				"methods": {},
				"version": 1
			}
		}
	}
}