{
	".learneth/ethereum/remix-workshops/10.3 Transactions - Sending Ether/sendingEther.sol": {
		"ReceiveEther": {
			"abi": [
				{
					"stateMutability": "payable",
					"type": "fallback"
				},
				{
					"inputs": [],
					"name": "getBalance",
					"outputs": [
						{
							"internalType": "uint256",
							"name": "",
							"type": "uint256"
						}
					],
					"stateMutability": "view",
					"type": "function"
				},
				{
					"stateMutability": "payable",
					"type": "receive"
				}
			],
			"devdoc": {
				"kind": "dev",
				"methods": {},
				"version": 1
			},
			"evm": {
				"assembly": "    /* \".learneth/ethereum/remix-workshops/10.3 Transactions - Sending Ether/sendingEther.sol\":57:673  contract ReceiveEther {... */\n  mstore(0x40, 0x80)\n  callvalue\n  dup1\n  iszero\n  tag_1\n  jumpi\n  0x00\n  dup1\n  revert\ntag_1:\n  pop\n  dataSize(sub_0)\n  dup1\n  dataOffset(sub_0)\n  0x00\n  codecopy\n  0x00\n  return\nstop\n\nsub_0: assembly {\n        /* \".learneth/ethereum/remix-workshops/10.3 Transactions - Sending Ether/sendingEther.sol\":57:673  contract ReceiveEther {... */\n      mstore(0x40, 0x80)\n      jumpi(tag_1, lt(calldatasize, 0x04))\n      shr(0xe0, calldataload(0x00))\n      dup1\n      0x12065fe0\n      eq\n      tag_3\n      jumpi\n      stop\n    tag_1:\n      jumpi(tag_2, calldatasize)\n      stop\n    tag_2:\n      stop\n        /* \".learneth/ethereum/remix-workshops/10.3 Transactions - Sending Ether/sendingEther.sol\":577:671  function getBalance() public view returns (uint) {... */\n    tag_3:\n      callvalue\n      dup1\n      iszero\n      tag_8\n      jumpi\n      0x00\n      dup1\n      revert\n    tag_8:\n      pop\n        /* \".learneth/ethereum/remix-workshops/10.3 Transactions - Sending Ether/sendingEther.sol\":643:664  address(this).balance */\n      selfbalance\n        /* \".learneth/ethereum/remix-workshops/10.3 Transactions - Sending Ether/sendingEther.sol\":577:671  function getBalance() public view returns (uint) {... */\n      mload(0x40)\n        /* \"#utility.yul\":160:185   */\n      swap1\n      dup2\n      mstore\n        /* \"#utility.yul\":148:150   */\n      0x20\n        /* \"#utility.yul\":133:151   */\n      add\n        /* \".learneth/ethereum/remix-workshops/10.3 Transactions - Sending Ether/sendingEther.sol\":577:671  function getBalance() public view returns (uint) {... */\n      mload(0x40)\n      dup1\n      swap2\n      sub\n      swap1\n      return\n\n    auxdata: 0xa26469706673582212200ac41d50fdf0a5c1afa44aaa43fe24573c2713ecf3bbb294b58a15c5e8e928ae64736f6c63430008180033\n}\n",
				"bytecode": {
					"linkReferences": {},
					"object": "6080604052348015600e575f80fd5b50607880601a5f395ff3fe608060405260043610601c575f3560e01c806312065fe014602457005b36602257005b005b348015602e575f80fd5b504760405190815260200160405180910390f3fea26469706673582212200ac41d50fdf0a5c1afa44aaa43fe24573c2713ecf3bbb294b58a15c5e8e928ae64736f6c63430008180033",
					"opcodes": "PUSH1 0x80 PUSH1 0x40 MSTORE CALLVALUE DUP1 ISZERO PUSH1 0xE JUMPI PUSH0 DUP1 REVERT JUMPDEST POP PUSH1 0x78 DUP1 PUSH1 0x1A PUSH0 CODECOPY PUSH0 RETURN INVALID PUSH1 0x80 PUSH1 0x40 MSTORE PUSH1 0x4 CALLDATASIZE LT PUSH1 0x1C JUMPI PUSH0 CALLDATALOAD PUSH1 0xE0 SHR DUP1 PUSH4 0x12065FE0 EQ PUSH1 0x24 JUMPI STOP JUMPDEST CALLDATASIZE PUSH1 0x22 JUMPI STOP JUMPDEST STOP JUMPDEST CALLVALUE DUP1 ISZERO PUSH1 0x2E JUMPI PUSH0 DUP1 REVERT JUMPDEST POP SELFBALANCE PUSH1 0x40 MLOAD SWAP1 DUP2 MSTORE PUSH1 0x20 ADD PUSH1 0x40 MLOAD DUP1 SWAP2 SUB SWAP1 RETURN INVALID LOG2 PUSH5 0x6970667358 0x22 SLT KECCAK256 EXP 0xC4 SAR POP REVERT CREATE 0xA5 0xC1 0xAF LOG4 BLOBBASEFEE 0xAA NUMBER INVALID 0x24 JUMPI EXTCODECOPY 0x27 SGT 0xEC RETURN 0xBB 0xB2 SWAP5 0xB5 DUP11 ISZERO 0xC5 0xE8 0xE9 0x28 0xAE PUSH5 0x736F6C6343 STOP ADDMOD XOR STOP CALLER "
				},
				"gasEstimates": {
					"creation": {
						"codeDepositCost": "24000",
						"executionCost": "73",
						"totalCost": "24073"
					},
					"external": {
						"": "72",
						"getBalance()": "147"
					}
				},
				"methodIdentifiers": {
					"getBalance()": "12065fe0"
				}
			},
			"storageLayout": {
				"storage": [],
				"types": null
			},
			"userdoc": {
				"kind": "user",
				"methods": {},
				"version": 1
			}
		}
	}
}