{
	".learneth/ethereum/remix-workshops/10.3 Transactions - Sending Ether/sendingEther.sol": {
		"Charity": {
			"abi": [
				{
					"inputs": [],
					"stateMutability": "nonpayable",
					"type": "constructor"
				},
				{
					"inputs": [],
					"name": "donate",
					"outputs": [],
					"stateMutability": "payable",
					"type": "function"
				},
				{
					"inputs": [],
					"name": "owner",
					"outputs": [
						{
							"internalType": "address",
							"name": "",
							"type": "address"
						}
					],
					"stateMutability": "view",
					"type": "function"
				},
				{
					"inputs": [],
					"name": "withdraw",
					"outputs": [],
					"stateMutability": "nonpayable",
					"type": "function"
				}
			],
			"devdoc": {
				"kind": "dev",
				"methods": {},
				"version": 1
			},
			"evm": {
				"assembly": "    /* \".learneth/ethereum/remix-workshops/10.3 Transactions - Sending Ether/sendingEther.sol\":1485:1835  contract Charity {... */\n  mstore(0x40, 0x80)\n    /* \".learneth/ethereum/remix-workshops/10.3 Transactions - Sending Ether/sendingEther.sol\":1535:1584  constructor() {... */\n  callvalue\n  dup1\n  iszero\n  tag_1\n  jumpi\n  0x00\n  dup1\n  revert\ntag_1:\n  pop\n    /* \".learneth/ethereum/remix-workshops/10.3 Transactions - Sending Ether/sendingEther.sol\":1559:1564  owner */\n  0x00\n    /* \".learneth/ethereum/remix-workshops/10.3 Transactions - Sending Ether/sendingEther.sol\":1559:1577  owner = msg.sender */\n  dup1\n  sload\n  not(sub(shl(0xa0, 0x01), 0x01))\n  and\n    /* \".learneth/ethereum/remix-workshops/10.3 Transactions - Sending Ether/sendingEther.sol\":1567:1577  msg.sender */\n  caller\n    /* \".learneth/ethereum/remix-workshops/10.3 Transactions - Sending Ether/sendingEther.sol\":1559:1577  owner = msg.sender */\n  or\n  swap1\n  sstore\n    /* \".learneth/ethereum/remix-workshops/10.3 Transactions - Sending Ether/sendingEther.sol\":1485:1835  contract Charity {... */\n  dataSize(sub_0)\n  dup1\n  dataOffset(sub_0)\n  0x00\n  codecopy\n  0x00\n  return\nstop\n\nsub_0: assembly {\n        /* \".learneth/ethereum/remix-workshops/10.3 Transactions - Sending Ether/sendingEther.sol\":1485:1835  contract Charity {... */\n      mstore(0x40, 0x80)\n      jumpi(tag_1, lt(calldatasize, 0x04))\n      shr(0xe0, calldataload(0x00))\n      dup1\n      0x3ccfd60b\n      eq\n      tag_2\n      jumpi\n      dup1\n      0x8da5cb5b\n      eq\n      tag_3\n      jumpi\n      dup1\n      0xed88c68e\n      eq\n      tag_6\n      jumpi\n    tag_1:\n      0x00\n      dup1\n      revert\n        /* \".learneth/ethereum/remix-workshops/10.3 Transactions - Sending Ether/sendingEther.sol\":1630:1833  function withdraw() public {... */\n    tag_2:\n      callvalue\n      dup1\n      iszero\n      tag_5\n      jumpi\n      0x00\n      dup1\n      revert\n    tag_5:\n      pop\n      tag_6\n      tag_7\n      jump\t// in\n    tag_6:\n      stop\n        /* \".learneth/ethereum/remix-workshops/10.3 Transactions - Sending Ether/sendingEther.sol\":1508:1528  address public owner */\n    tag_3:\n      callvalue\n      dup1\n      iszero\n      tag_8\n      jumpi\n      0x00\n      dup1\n      revert\n    tag_8:\n      pop\n      sload(0x00)\n      tag_9\n      swap1\n      sub(shl(0xa0, 0x01), 0x01)\n      and\n      dup2\n      jump\n    tag_9:\n      mload(0x40)\n      sub(shl(0xa0, 0x01), 0x01)\n        /* \"#utility.yul\":178:210   */\n      swap1\n      swap2\n      and\n        /* \"#utility.yul\":160:211   */\n      dup2\n      mstore\n        /* \"#utility.yul\":148:150   */\n      0x20\n        /* \"#utility.yul\":133:151   */\n      add\n        /* \".learneth/ethereum/remix-workshops/10.3 Transactions - Sending Ether/sendingEther.sol\":1508:1528  address public owner */\n      mload(0x40)\n      dup1\n      swap2\n      sub\n      swap1\n      return\n        /* \".learneth/ethereum/remix-workshops/10.3 Transactions - Sending Ether/sendingEther.sol\":1630:1833  function withdraw() public {... */\n    tag_7:\n        /* \".learneth/ethereum/remix-workshops/10.3 Transactions - Sending Ether/sendingEther.sol\":1667:1678  uint amount */\n      0x00\n        /* \".learneth/ethereum/remix-workshops/10.3 Transactions - Sending Ether/sendingEther.sol\":1746:1751  owner */\n      dup1\n      sload\n        /* \".learneth/ethereum/remix-workshops/10.3 Transactions - Sending Ether/sendingEther.sol\":1746:1775  owner.call{value: amount}(\"\") */\n      mload(0x40)\n        /* \".learneth/ethereum/remix-workshops/10.3 Transactions - Sending Ether/sendingEther.sol\":1681:1702  address(this).balance */\n      selfbalance\n      swap3\n        /* \".learneth/ethereum/remix-workshops/10.3 Transactions - Sending Ether/sendingEther.sol\":1667:1678  uint amount */\n      swap2\n      dup3\n      swap2\n      sub(shl(0xa0, 0x01), 0x01)\n        /* \".learneth/ethereum/remix-workshops/10.3 Transactions - Sending Ether/sendingEther.sol\":1746:1751  owner */\n      swap1\n      swap2\n      and\n      swap1\n        /* \".learneth/ethereum/remix-workshops/10.3 Transactions - Sending Ether/sendingEther.sol\":1681:1702  address(this).balance */\n      dup5\n      swap1\n        /* \".learneth/ethereum/remix-workshops/10.3 Transactions - Sending Ether/sendingEther.sol\":1667:1678  uint amount */\n      dup4\n        /* \".learneth/ethereum/remix-workshops/10.3 Transactions - Sending Ether/sendingEther.sol\":1746:1775  owner.call{value: amount}(\"\") */\n      dup2\n        /* \".learneth/ethereum/remix-workshops/10.3 Transactions - Sending Ether/sendingEther.sol\":1667:1678  uint amount */\n      dup2\n        /* \".learneth/ethereum/remix-workshops/10.3 Transactions - Sending Ether/sendingEther.sol\":1746:1775  owner.call{value: amount}(\"\") */\n      dup2\n        /* \".learneth/ethereum/remix-workshops/10.3 Transactions - Sending Ether/sendingEther.sol\":1681:1702  address(this).balance */\n      dup6\n        /* \".learneth/ethereum/remix-workshops/10.3 Transactions - Sending Ether/sendingEther.sol\":1746:1751  owner */\n      dup8\n        /* \".learneth/ethereum/remix-workshops/10.3 Transactions - Sending Ether/sendingEther.sol\":1746:1775  owner.call{value: amount}(\"\") */\n      gas\n      call\n      swap3\n      pop\n      pop\n      pop\n      returndatasize\n      dup1\n      0x00\n      dup2\n      eq\n      tag_20\n      jumpi\n      mload(0x40)\n      swap2\n      pop\n      and(add(returndatasize, 0x3f), not(0x1f))\n      dup3\n      add\n      0x40\n      mstore\n      returndatasize\n      dup3\n      mstore\n      returndatasize\n      0x00\n      0x20\n      dup5\n      add\n      returndatacopy\n      jump(tag_19)\n    tag_20:\n      0x60\n      swap2\n      pop\n    tag_19:\n      pop\n        /* \".learneth/ethereum/remix-workshops/10.3 Transactions - Sending Ether/sendingEther.sol\":1713:1775  (bool sent, bytes memory data) = owner.call{value: amount}(\"\") */\n      swap2\n      pop\n      swap2\n      pop\n        /* \".learneth/ethereum/remix-workshops/10.3 Transactions - Sending Ether/sendingEther.sol\":1793:1797  sent */\n      dup2\n        /* \".learneth/ethereum/remix-workshops/10.3 Transactions - Sending Ether/sendingEther.sol\":1785:1826  require(sent, \"Failed to withdraw Ether\") */\n      tag_21\n      jumpi\n      mload(0x40)\n      shl(0xe5, 0x461bcd)\n      dup2\n      mstore\n        /* \"#utility.yul\":634:636   */\n      0x20\n        /* \".learneth/ethereum/remix-workshops/10.3 Transactions - Sending Ether/sendingEther.sol\":1785:1826  require(sent, \"Failed to withdraw Ether\") */\n      0x04\n      dup3\n      add\n        /* \"#utility.yul\":616:637   */\n      mstore\n        /* \"#utility.yul\":673:675   */\n      0x18\n        /* \"#utility.yul\":653:671   */\n      0x24\n      dup3\n      add\n        /* \"#utility.yul\":646:676   */\n      mstore\n        /* \"#utility.yul\":712:738   */\n      0x4661696c656420746f2077697468647261772045746865720000000000000000\n        /* \"#utility.yul\":692:710   */\n      0x44\n      dup3\n      add\n        /* \"#utility.yul\":685:739   */\n      mstore\n        /* \"#utility.yul\":756:774   */\n      0x64\n      add\n        /* \".learneth/ethereum/remix-workshops/10.3 Transactions - Sending Ether/sendingEther.sol\":1785:1826  require(sent, \"Failed to withdraw Ether\") */\n      mload(0x40)\n      dup1\n      swap2\n      sub\n      swap1\n      revert\n    tag_21:\n        /* \".learneth/ethereum/remix-workshops/10.3 Transactions - Sending Ether/sendingEther.sol\":1657:1833  {... */\n      pop\n      pop\n      pop\n        /* \".learneth/ethereum/remix-workshops/10.3 Transactions - Sending Ether/sendingEther.sol\":1630:1833  function withdraw() public {... */\n      jump\t// out\n\n    auxdata: 0xa2646970667358221220e0128e51ae54cfc1e409d1154bfd7071689cd5b6c8e2f3b05cc27897e7e8fa1164736f6c63430008180033\n}\n",
				"bytecode": {
					"linkReferences": {},
					"object": "608060405234801561000f575f80fd5b505f80546001600160a01b0319163317905561016c8061002e5f395ff3fe608060405260043610610033575f3560e01c80633ccfd60b146100375780638da5cb5b1461004d578063ed88c68e1461004b575b5f80fd5b348015610042575f80fd5b5061004b610087565b005b348015610058575f80fd5b505f5461006b906001600160a01b031681565b6040516001600160a01b03909116815260200160405180910390f35b5f805460405147929182916001600160a01b039091169084908381818185875af1925050503d805f81146100d6576040519150601f19603f3d011682016040523d82523d5f602084013e6100db565b606091505b5091509150816101315760405162461bcd60e51b815260206004820152601860248201527f4661696c656420746f2077697468647261772045746865720000000000000000604482015260640160405180910390fd5b50505056fea2646970667358221220e0128e51ae54cfc1e409d1154bfd7071689cd5b6c8e2f3b05cc27897e7e8fa1164736f6c63430008180033",
					"opcodes": "PUSH1 0x80 PUSH1 0x40 MSTORE CALLVALUE DUP1 ISZERO PUSH2 0xF JUMPI PUSH0 DUP1 REVERT JUMPDEST POP PUSH0 DUP1 SLOAD PUSH1 0x1 PUSH1 0x1 PUSH1 0xA0 SHL SUB NOT AND CALLER OR SWAP1 SSTORE PUSH2 0x16C DUP1 PUSH2 0x2E PUSH0 CODECOPY PUSH0 RETURN INVALID PUSH1 0x80 PUSH1 0x40 MSTORE PUSH1 0x4 CALLDATASIZE LT PUSH2 0x33 JUMPI PUSH0 CALLDATALOAD PUSH1 0xE0 SHR DUP1 PUSH4 0x3CCFD60B EQ PUSH2 0x37 JUMPI DUP1 PUSH4 0x8DA5CB5B EQ PUSH2 0x4D JUMPI DUP1 PUSH4 0xED88C68E EQ PUSH2 0x4B JUMPI JUMPDEST PUSH0 DUP1 REVERT JUMPDEST CALLVALUE DUP1 ISZERO PUSH2 0x42 JUMPI PUSH0 DUP1 REVERT JUMPDEST POP PUSH2 0x4B PUSH2 0x87 JUMP JUMPDEST STOP JUMPDEST CALLVALUE DUP1 ISZERO PUSH2 0x58 JUMPI PUSH0 DUP1 REVERT JUMPDEST POP PUSH0 SLOAD PUSH2 0x6B SWAP1 PUSH1 0x1 PUSH1 0x1 PUSH1 0xA0 SHL SUB AND DUP2 JUMP JUMPDEST PUSH1 0x40 MLOAD PUSH1 0x1 PUSH1 0x1 PUSH1 0xA0 SHL SUB SWAP1 SWAP2 AND DUP2 MSTORE PUSH1 0x20 ADD PUSH1 0x40 MLOAD DUP1 SWAP2 SUB SWAP1 RETURN JUMPDEST PUSH0 DUP1 SLOAD PUSH1 0x40 MLOAD SELFBALANCE SWAP3 SWAP2 DUP3 SWAP2 PUSH1 0x1 PUSH1 0x1 PUSH1 0xA0 SHL SUB SWAP1 SWAP2 AND SWAP1 DUP5 SWAP1 DUP4 DUP2 DUP2 DUP2 DUP6 DUP8 GAS CALL SWAP3 POP POP POP RETURNDATASIZE DUP1 PUSH0 DUP2 EQ PUSH2 0xD6 JUMPI PUSH1 0x40 MLOAD SWAP2 POP PUSH1 0x1F NOT PUSH1 0x3F RETURNDATASIZE ADD AND DUP3 ADD PUSH1 0x40 MSTORE RETURNDATASIZE DUP3 MSTORE RETURNDATASIZE PUSH0 PUSH1 0x20 DUP5 ADD RETURNDATACOPY PUSH2 0xDB JUMP JUMPDEST PUSH1 0x60 SWAP2 POP JUMPDEST POP SWAP2 POP SWAP2 POP DUP2 PUSH2 0x131 JUMPI PUSH1 0x40 MLOAD PUSH3 0x461BCD PUSH1 0xE5 SHL DUP2 MSTORE PUSH1 0x20 PUSH1 0x4 DUP3 ADD MSTORE PUSH1 0x18 PUSH1 0x24 DUP3 ADD MSTORE PUSH32 0x4661696C656420746F2077697468647261772045746865720000000000000000 PUSH1 0x44 DUP3 ADD MSTORE PUSH1 0x64 ADD PUSH1 0x40 MLOAD DUP1 SWAP2 SUB SWAP1 REVERT JUMPDEST POP POP POP JUMP INVALID LOG2 PUSH5 0x6970667358 0x22 SLT KECCAK256 0xE0 SLT DUP15 MLOAD 0xAE SLOAD 0xCF 0xC1 0xE4 MULMOD 0xD1 ISZERO 0x4B REVERT PUSH17 0x71689CD5B6C8E2F3B05CC27897E7E8FA11 PUSH5 0x736F6C6343 STOP ADDMOD XOR STOP CALLER "
				},
				"gasEstimates": {
					"creation": {
						"codeDepositCost": "72800",
						"executionCost": "24355",
						"totalCost": "97155"
					},
					"external": {
						"donate()": "117",
						"owner()": "2323",
						"withdraw()": "infinite"
					}
				},
				"methodIdentifiers": {
					"donate()": "ed88c68e",
					"owner()": "8da5cb5b",
					"withdraw()": "3ccfd60b"
				}
			},
			"storageLayout": {
				"storage": [
					{
						"astId": 80,
						"contract": ".learneth/ethereum/remix-workshops/10.3 Transactions - Sending Ether/sendingEther.sol:Charity",
						"label": "owner",
						"offset": 0,
						"slot": "0",
						"type": "t_address"
					}
				],
				"types": {
					"t_address": {
						"encoding": "inplace",
						"label": "address",
						"numberOfBytes": "20"
					}
				}
			},
			"userdoc": {
				"kind": "user",
				"methods": {},
				"version": 1
			}
		}
	}
}