{
	".learneth/ethereum/remix-workshops/5.1 Functions - Reading and Writing to a State Variable/readAndWrite.sol": {
		"SimpleStorage": {
			"abi": [
				{
					"inputs": [],
					"name": "b",
					"outputs": [
						{
							"internalType": "bool",
							"name": "",
							"type": "bool"
						}
					],
					"stateMutability": "view",
					"type": "function"
				},
				{
					"inputs": [],
					"name": "get",
					"outputs": [
						{
							"internalType": "uint256",
							"name": "",
							"type": "uint256"
						}
					],
					"stateMutability": "view",
					"type": "function"
				},
				{
					"inputs": [],
					"name": "get_b",
					"outputs": [
						{
							"internalType": "bool",
							"name": "",
							"type": "bool"
						}
					],
					"stateMutability": "view",
					"type": "function"
				},
				{
					"inputs": [],
					"name": "num",
					"outputs": [
						{
							"internalType": "uint256",
							"name": "",
							"type": "uint256"
						}
					],
					"stateMutability": "view",
					"type": "function"
				},
				{
					"inputs": [
						{
							"internalType": "bool",
							"name": "_b",
							"type": "bool"
						}
					],
					"name": "set",
					"outputs": [],
					"stateMutability": "nonpayable",
					"type": "function"
				},
				{
					"inputs": [
						{
							"internalType": "uint256",
							"name": "_num",
							"type": "uint256"
						}
					],
					"name": "set",
					"outputs": [],
					"stateMutability": "nonpayable",
					"type": "function"
				}
			],
			"devdoc": {
				"kind": "dev",
				"methods": {},
				"version": 1
			},
			"evm": {
				"assembly": "    /* \".learneth/ethereum/remix-workshops/5.1 Functions - Reading and Writing to a State Variable/readAndWrite.sol\":57:576  contract SimpleStorage {... */\n  mstore(0x40, 0x80)\n  callvalue\n  dup1\n  iszero\n  tag_1\n  jumpi\n  0x00\n  dup1\n  revert\ntag_1:\n  pop\n  dataSize(sub_0)\n  dup1\n  dataOffset(sub_0)\n  0x00\n  codecopy\n  0x00\n  return\nstop\n\nsub_0: assembly {\n        /* \".learneth/ethereum/remix-workshops/5.1 Functions - Reading and Writing to a State Variable/readAndWrite.sol\":57:576  contract SimpleStorage {... */\n      mstore(0x40, 0x80)\n      callvalue\n      dup1\n      iszero\n      tag_1\n      jumpi\n      0x00\n      dup1\n      revert\n    tag_1:\n      pop\n      jumpi(tag_2, lt(calldatasize, 0x04))\n      shr(0xe0, calldataload(0x00))\n      dup1\n      0x4df7e3d0\n      eq\n      tag_3\n      jumpi\n      dup1\n      0x4e70b1dc\n      eq\n      tag_4\n      jumpi\n      dup1\n      0x5f76f6ab\n      eq\n      tag_5\n      jumpi\n      dup1\n      0x60fe47b1\n      eq\n      tag_6\n      jumpi\n      dup1\n      0x6d4ce63c\n      eq\n      tag_7\n      jumpi\n      dup1\n      0xf3d33cf4\n      eq\n      tag_8\n      jumpi\n    tag_2:\n      0x00\n      dup1\n      revert\n        /* \".learneth/ethereum/remix-workshops/5.1 Functions - Reading and Writing to a State Variable/readAndWrite.sol\":147:160  bool public b */\n    tag_3:\n      sload(0x01)\n      tag_9\n      swap1\n      0xff\n      and\n      dup2\n      jump\n    tag_9:\n      mload(0x40)\n        /* \"#utility.yul\":179:193   */\n      swap1\n      iszero\n        /* \"#utility.yul\":172:194   */\n      iszero\n        /* \"#utility.yul\":154:195   */\n      dup2\n      mstore\n        /* \"#utility.yul\":142:144   */\n      0x20\n        /* \"#utility.yul\":127:145   */\n      add\n        /* \".learneth/ethereum/remix-workshops/5.1 Functions - Reading and Writing to a State Variable/readAndWrite.sol\":147:160  bool public b */\n    tag_11:\n      mload(0x40)\n      dup1\n      swap2\n      sub\n      swap1\n      return\n        /* \".learneth/ethereum/remix-workshops/5.1 Functions - Reading and Writing to a State Variable/readAndWrite.sol\":126:141  uint public num */\n    tag_4:\n      tag_13\n      sload(0x00)\n      dup2\n      jump\n    tag_13:\n      mload(0x40)\n        /* \"#utility.yul\":352:377   */\n      swap1\n      dup2\n      mstore\n        /* \"#utility.yul\":340:342   */\n      0x20\n        /* \"#utility.yul\":325:343   */\n      add\n        /* \".learneth/ethereum/remix-workshops/5.1 Functions - Reading and Writing to a State Variable/readAndWrite.sol\":126:141  uint public num */\n      tag_11\n        /* \"#utility.yul\":206:383   */\n      jump\n        /* \".learneth/ethereum/remix-workshops/5.1 Functions - Reading and Writing to a State Variable/readAndWrite.sol\":167:220  function set(bool _b) public  {... */\n    tag_5:\n      tag_17\n      tag_18\n      calldatasize\n      0x04\n      tag_19\n      jump\t// in\n    tag_18:\n        /* \".learneth/ethereum/remix-workshops/5.1 Functions - Reading and Writing to a State Variable/readAndWrite.sol\":207:208  b */\n      0x01\n        /* \".learneth/ethereum/remix-workshops/5.1 Functions - Reading and Writing to a State Variable/readAndWrite.sol\":207:213  b = _b */\n      dup1\n      sload\n      not(0xff)\n      and\n      swap2\n      iszero\n      iszero\n      swap2\n      swap1\n      swap2\n      or\n      swap1\n      sstore\n        /* \".learneth/ethereum/remix-workshops/5.1 Functions - Reading and Writing to a State Variable/readAndWrite.sol\":167:220  function set(bool _b) public  {... */\n      jump\n    tag_17:\n      stop\n        /* \".learneth/ethereum/remix-workshops/5.1 Functions - Reading and Writing to a State Variable/readAndWrite.sol\":368:426  function set(uint _num) public {... */\n    tag_6:\n      tag_17\n      tag_22\n      calldatasize\n      0x04\n      tag_23\n      jump\t// in\n    tag_22:\n        /* \".learneth/ethereum/remix-workshops/5.1 Functions - Reading and Writing to a State Variable/readAndWrite.sol\":409:412  num */\n      0x00\n        /* \".learneth/ethereum/remix-workshops/5.1 Functions - Reading and Writing to a State Variable/readAndWrite.sol\":409:419  num = _num */\n      sstore\n        /* \".learneth/ethereum/remix-workshops/5.1 Functions - Reading and Writing to a State Variable/readAndWrite.sol\":368:426  function set(uint _num) public {... */\n      jump\n        /* \".learneth/ethereum/remix-workshops/5.1 Functions - Reading and Writing to a State Variable/readAndWrite.sol\":505:574  function get() public view returns (uint) {... */\n    tag_7:\n        /* \".learneth/ethereum/remix-workshops/5.1 Functions - Reading and Writing to a State Variable/readAndWrite.sol\":541:545  uint */\n      0x00\n        /* \".learneth/ethereum/remix-workshops/5.1 Functions - Reading and Writing to a State Variable/readAndWrite.sol\":564:567  num */\n      sload\n        /* \".learneth/ethereum/remix-workshops/5.1 Functions - Reading and Writing to a State Variable/readAndWrite.sol\":505:574  function get() public view returns (uint) {... */\n      jump(tag_13)\n        /* \".learneth/ethereum/remix-workshops/5.1 Functions - Reading and Writing to a State Variable/readAndWrite.sol\":226:294  function get_b() public view returns (bool){... */\n    tag_8:\n        /* \".learneth/ethereum/remix-workshops/5.1 Functions - Reading and Writing to a State Variable/readAndWrite.sol\":286:287  b */\n      and(0xff, sload(0x01))\n        /* \".learneth/ethereum/remix-workshops/5.1 Functions - Reading and Writing to a State Variable/readAndWrite.sol\":226:294  function get_b() public view returns (bool){... */\n      jump(tag_9)\n        /* \"#utility.yul\":388:661   */\n    tag_19:\n        /* \"#utility.yul\":444:450   */\n      0x00\n        /* \"#utility.yul\":497:499   */\n      0x20\n        /* \"#utility.yul\":485:494   */\n      dup3\n        /* \"#utility.yul\":476:483   */\n      dup5\n        /* \"#utility.yul\":472:495   */\n      sub\n        /* \"#utility.yul\":468:500   */\n      slt\n        /* \"#utility.yul\":465:517   */\n      iszero\n      tag_39\n      jumpi\n        /* \"#utility.yul\":513:514   */\n      0x00\n        /* \"#utility.yul\":510:511   */\n      dup1\n        /* \"#utility.yul\":503:515   */\n      revert\n        /* \"#utility.yul\":465:517   */\n    tag_39:\n        /* \"#utility.yul\":552:561   */\n      dup2\n        /* \"#utility.yul\":539:562   */\n      calldataload\n        /* \"#utility.yul\":605:610   */\n      dup1\n        /* \"#utility.yul\":598:611   */\n      iszero\n        /* \"#utility.yul\":591:612   */\n      iszero\n        /* \"#utility.yul\":584:589   */\n      dup2\n        /* \"#utility.yul\":581:613   */\n      eq\n        /* \"#utility.yul\":571:631   */\n      tag_40\n      jumpi\n        /* \"#utility.yul\":627:628   */\n      0x00\n        /* \"#utility.yul\":624:625   */\n      dup1\n        /* \"#utility.yul\":617:629   */\n      revert\n        /* \"#utility.yul\":571:631   */\n    tag_40:\n        /* \"#utility.yul\":650:655   */\n      swap4\n        /* \"#utility.yul\":388:661   */\n      swap3\n      pop\n      pop\n      pop\n      jump\t// out\n        /* \"#utility.yul\":666:846   */\n    tag_23:\n        /* \"#utility.yul\":725:731   */\n      0x00\n        /* \"#utility.yul\":778:780   */\n      0x20\n        /* \"#utility.yul\":766:775   */\n      dup3\n        /* \"#utility.yul\":757:764   */\n      dup5\n        /* \"#utility.yul\":753:776   */\n      sub\n        /* \"#utility.yul\":749:781   */\n      slt\n        /* \"#utility.yul\":746:798   */\n      iszero\n      tag_42\n      jumpi\n        /* \"#utility.yul\":794:795   */\n      0x00\n        /* \"#utility.yul\":791:792   */\n      dup1\n        /* \"#utility.yul\":784:796   */\n      revert\n        /* \"#utility.yul\":746:798   */\n    tag_42:\n      pop\n        /* \"#utility.yul\":817:840   */\n      calldataload\n      swap2\n        /* \"#utility.yul\":666:846   */\n      swap1\n      pop\n      jump\t// out\n\n    auxdata: 0xa2646970667358221220c577fdc41757ac86fb2897a8d2d892c49414b41e04205e6221df185f0d7e00a164736f6c63430008180033\n}\n",
				"bytecode": {
					"linkReferences": {},
					"object": "608060405234801561000f575f80fd5b506101568061001d5f395ff3fe608060405234801561000f575f80fd5b5060043610610060575f3560e01c80634df7e3d0146100645780634e70b1dc146100865780635f76f6ab1461009c57806360fe47b1146100bf5780636d4ce63c146100d1578063f3d33cf4146100d8575b5f80fd5b6001546100719060ff1681565b60405190151581526020015b60405180910390f35b61008e5f5481565b60405190815260200161007d565b6100bd6100aa3660046100e3565b6001805460ff1916911515919091179055565b005b6100bd6100cd366004610109565b5f55565b5f5461008e565b60015460ff16610071565b5f602082840312156100f3575f80fd5b81358015158114610102575f80fd5b9392505050565b5f60208284031215610119575f80fd5b503591905056fea2646970667358221220c577fdc41757ac86fb2897a8d2d892c49414b41e04205e6221df185f0d7e00a164736f6c63430008180033",
					"opcodes": "PUSH1 0x80 PUSH1 0x40 MSTORE CALLVALUE DUP1 ISZERO PUSH2 0xF JUMPI PUSH0 DUP1 REVERT JUMPDEST POP PUSH2 0x156 DUP1 PUSH2 0x1D PUSH0 CODECOPY PUSH0 RETURN INVALID PUSH1 0x80 PUSH1 0x40 MSTORE CALLVALUE DUP1 ISZERO PUSH2 0xF JUMPI PUSH0 DUP1 REVERT JUMPDEST POP PUSH1 0x4 CALLDATASIZE LT PUSH2 0x60 JUMPI PUSH0 CALLDATALOAD PUSH1 0xE0 SHR DUP1 PUSH4 0x4DF7E3D0 EQ PUSH2 0x64 JUMPI DUP1 PUSH4 0x4E70B1DC EQ PUSH2 0x86 JUMPI DUP1 PUSH4 0x5F76F6AB EQ PUSH2 0x9C JUMPI DUP1 PUSH4 0x60FE47B1 EQ PUSH2 0xBF JUMPI DUP1 PUSH4 0x6D4CE63C EQ PUSH2 0xD1 JUMPI DUP1 PUSH4 0xF3D33CF4 EQ PUSH2 0xD8 JUMPI JUMPDEST PUSH0 DUP1 REVERT JUMPDEST PUSH1 0x1 SLOAD PUSH2 0x71 SWAP1 PUSH1 0xFF AND DUP2 JUMP JUMPDEST PUSH1 0x40 MLOAD SWAP1 ISZERO ISZERO DUP2 MSTORE PUSH1 0x20 ADD JUMPDEST PUSH1 0x40 MLOAD DUP1 SWAP2 SUB SWAP1 RETURN JUMPDEST PUSH2 0x8E PUSH0 SLOAD DUP2 JUMP JUMPDEST PUSH1 0x40 MLOAD SWAP1 DUP2 MSTORE PUSH1 0x20 ADD PUSH2 0x7D JUMP JUMPDEST PUSH2 0xBD PUSH2 0xAA CALLDATASIZE PUSH1 0x4 PUSH2 0xE3 JUMP JUMPDEST PUSH1 0x1 DUP1 SLOAD PUSH1 0xFF NOT AND SWAP2 ISZERO ISZERO SWAP2 SWAP1 SWAP2 OR SWAP1 SSTORE JUMP JUMPDEST STOP JUMPDEST PUSH2 0xBD PUSH2 0xCD CALLDATASIZE PUSH1 0x4 PUSH2 0x109 JUMP JUMPDEST PUSH0 SSTORE JUMP JUMPDEST PUSH0 SLOAD PUSH2 0x8E JUMP JUMPDEST PUSH1 0x1 SLOAD PUSH1 0xFF AND PUSH2 0x71 JUMP JUMPDEST PUSH0 PUSH1 0x20 DUP3 DUP5 SUB SLT ISZERO PUSH2 0xF3 JUMPI PUSH0 DUP1 REVERT JUMPDEST DUP2 CALLDATALOAD DUP1 ISZERO ISZERO DUP2 EQ PUSH2 0x102 JUMPI PUSH0 DUP1 REVERT JUMPDEST SWAP4 SWAP3 POP POP POP JUMP JUMPDEST PUSH0 PUSH1 0x20 DUP3 DUP5 SUB SLT ISZERO PUSH2 0x119 JUMPI PUSH0 DUP1 REVERT JUMPDEST POP CALLDATALOAD SWAP2 SWAP1 POP JUMP INVALID LOG2 PUSH5 0x6970667358 0x22 SLT KECCAK256 0xC5 PUSH24 0xFDC41757AC86FB2897A8D2D892C49414B41E04205E6221DF XOR PUSH0 0xD PUSH31 0xA164736F6C63430008180033000000000000000000000000000000000000 "
				},
				"gasEstimates": {
					"creation": {
						"codeDepositCost": "68400",
						"executionCost": "115",
						"totalCost": "68515"
					},
					"external": {
						"b()": "2276",
						"get()": "2356",
						"get_b()": "2380",
						"num()": "2293",
						"set(bool)": "24502",
						"set(uint256)": "22353"
					}
				},
				"methodIdentifiers": {
					"b()": "4df7e3d0",
					"get()": "6d4ce63c",
					"get_b()": "f3d33cf4",
					"num()": "4e70b1dc",
					"set(bool)": "5f76f6ab",
					"set(uint256)": "60fe47b1"
				}
			},
			"storageLayout": {
				"storage": [
					{
						"astId": 3,
						"contract": ".learneth/ethereum/remix-workshops/5.1 Functions - Reading and Writing to a State Variable/readAndWrite.sol:SimpleStorage",
						"label": "num",
						"offset": 0,
						"slot": "0",
						"type": "t_uint256"
					},
					{
						"astId": 5,
						"contract": ".learneth/ethereum/remix-workshops/5.1 Functions - Reading and Writing to a State Variable/readAndWrite.sol:SimpleStorage",
						"label": "b",
						"offset": 0,
						"slot": "1",
						"type": "t_bool"
					}
				],
				"types": {
					"t_bool": {
						"encoding": "inplace",
						"label": "bool",
						"numberOfBytes": "1"
					},
					"t_uint256": {
						"encoding": "inplace",
						"label": "uint256",
						"numberOfBytes": "32"
					}
				}
			},
			"userdoc": {
				"kind": "user",
				"methods": {},
				"version": 1
			}
		}
	}
}