{
	"data": {
		"bytecode": {
			"linkReferences": {},
			"object": "60806040525f805461ffff19166101011790556101c86001819055607b6002556003805460ff60ff1991821617909155600491909155607a196005556006805473ca35b7d915458ef540ade6068dfe2f44e8fa733c6001600160a01b031991821617909155600a80549091169055600b19600b55600c80549091169055348015610087575f80fd5b5061024b806100955f395ff3fe608060405234801561000f575f80fd5b50600436106100f0575f3560e01c80636a76e30711610093578063ab3a58a311610063578063ab3a58a3146101df578063c6a898c5146101f0578063e5aa3d58146101f9578063f2427d3714610202575f80fd5b80636a76e3071461017a578063767800de146101a557806378063b1f146101b8578063921cda74146101c1575f80fd5b8063459b1acf116100ce578063459b1acf146101535780634b3df2001461015c5780634c27fd62146101685780635abe622b14610171575f80fd5b8063074eef3f146100f4578063149d8ffc1461011d5780631570c2cb1461013c575b5f80fd5b60065461010890600160a01b900460ff1681565b60405190151581526020015b60405180910390f35b600c5461012a9060ff1681565b60405160ff9091168152602001610114565b61014560075481565b604051908152602001610114565b61014560015481565b5f546101089060ff1681565b61014560045481565b61014560085481565b600a5461018d906001600160a01b031681565b6040516001600160a01b039091168152602001610114565b60065461018d906001600160a01b031681565b610145600b5481565b6003546101cd905f0b81565b6040515f9190910b8152602001610114565b5f5461012a90610100900460ff1681565b61014560025481565b61014560055481565b60095461018d906001600160a01b03168156fea2646970667358221220008167cc1395fa0125f2971c5c8890a0186792741aa5bceaf70ee6cddb2b6fe564736f6c63430008180033",
			"opcodes": "PUSH1 0x80 PUSH1 0x40 MSTORE PUSH0 DUP1 SLOAD PUSH2 0xFFFF NOT AND PUSH2 0x101 OR SWAP1 SSTORE PUSH2 0x1C8 PUSH1 0x1 DUP2 SWAP1 SSTORE PUSH1 0x7B PUSH1 0x2 SSTORE PUSH1 0x3 DUP1 SLOAD PUSH1 0xFF PUSH1 0xFF NOT SWAP2 DUP3 AND OR SWAP1 SWAP2 SSTORE PUSH1 0x4 SWAP2 SWAP1 SWAP2 SSTORE PUSH1 0x7A NOT PUSH1 0x5 SSTORE PUSH1 0x6 DUP1 SLOAD PUSH20 0xCA35B7D915458EF540ADE6068DFE2F44E8FA733C PUSH1 0x1 PUSH1 0x1 PUSH1 0xA0 SHL SUB NOT SWAP2 DUP3 AND OR SWAP1 SWAP2 SSTORE PUSH1 0xA DUP1 SLOAD SWAP1 SWAP2 AND SWAP1 SSTORE PUSH1 0xB NOT PUSH1 0xB SSTORE PUSH1 0xC DUP1 SLOAD SWAP1 SWAP2 AND SWAP1 SSTORE CALLVALUE DUP1 ISZERO PUSH2 0x87 JUMPI PUSH0 DUP1 REVERT JUMPDEST POP PUSH2 0x24B DUP1 PUSH2 0x95 PUSH0 CODECOPY PUSH0 RETURN INVALID PUSH1 0x80 PUSH1 0x40 MSTORE CALLVALUE DUP1 ISZERO PUSH2 0xF JUMPI PUSH0 DUP1 REVERT JUMPDEST POP PUSH1 0x4 CALLDATASIZE LT PUSH2 0xF0 JUMPI PUSH0 CALLDATALOAD PUSH1 0xE0 SHR DUP1 PUSH4 0x6A76E307 GT PUSH2 0x93 JUMPI DUP1 PUSH4 0xAB3A58A3 GT PUSH2 0x63 JUMPI DUP1 PUSH4 0xAB3A58A3 EQ PUSH2 0x1DF JUMPI DUP1 PUSH4 0xC6A898C5 EQ PUSH2 0x1F0 JUMPI DUP1 PUSH4 0xE5AA3D58 EQ PUSH2 0x1F9 JUMPI DUP1 PUSH4 0xF2427D37 EQ PUSH2 0x202 JUMPI PUSH0 DUP1 REVERT JUMPDEST DUP1 PUSH4 0x6A76E307 EQ PUSH2 0x17A JUMPI DUP1 PUSH4 0x767800DE EQ PUSH2 0x1A5 JUMPI DUP1 PUSH4 0x78063B1F EQ PUSH2 0x1B8 JUMPI DUP1 PUSH4 0x921CDA74 EQ PUSH2 0x1C1 JUMPI PUSH0 DUP1 REVERT JUMPDEST DUP1 PUSH4 0x459B1ACF GT PUSH2 0xCE JUMPI DUP1 PUSH4 0x459B1ACF EQ PUSH2 0x153 JUMPI DUP1 PUSH4 0x4B3DF200 EQ PUSH2 0x15C JUMPI DUP1 PUSH4 0x4C27FD62 EQ PUSH2 0x168 JUMPI DUP1 PUSH4 0x5ABE622B EQ PUSH2 0x171 JUMPI PUSH0 DUP1 REVERT JUMPDEST DUP1 PUSH4 0x74EEF3F EQ PUSH2 0xF4 JUMPI DUP1 PUSH4 0x149D8FFC EQ PUSH2 0x11D JUMPI DUP1 PUSH4 0x1570C2CB EQ PUSH2 0x13C JUMPI JUMPDEST PUSH0 DUP1 REVERT JUMPDEST PUSH1 0x6 SLOAD PUSH2 0x108 SWAP1 PUSH1 0x1 PUSH1 0xA0 SHL SWAP1 DIV PUSH1 0xFF AND DUP2 JUMP JUMPDEST PUSH1 0x40 MLOAD SWAP1 ISZERO ISZERO DUP2 MSTORE PUSH1 0x20 ADD JUMPDEST PUSH1 0x40 MLOAD DUP1 SWAP2 SUB SWAP1 RETURN JUMPDEST PUSH1 0xC SLOAD PUSH2 0x12A SWAP1 PUSH1 0xFF AND DUP2 JUMP JUMPDEST PUSH1 0x40 MLOAD PUSH1 0xFF SWAP1 SWAP2 AND DUP2 MSTORE PUSH1 0x20 ADD PUSH2 0x114 JUMP JUMPDEST PUSH2 0x145 PUSH1 0x7 SLOAD DUP2 JUMP JUMPDEST PUSH1 0x40 MLOAD SWAP1 DUP2 MSTORE PUSH1 0x20 ADD PUSH2 0x114 JUMP JUMPDEST PUSH2 0x145 PUSH1 0x1 SLOAD DUP2 JUMP JUMPDEST PUSH0 SLOAD PUSH2 0x108 SWAP1 PUSH1 0xFF AND DUP2 JUMP JUMPDEST PUSH2 0x145 PUSH1 0x4 SLOAD DUP2 JUMP JUMPDEST PUSH2 0x145 PUSH1 0x8 SLOAD DUP2 JUMP JUMPDEST PUSH1 0xA SLOAD PUSH2 0x18D SWAP1 PUSH1 0x1 PUSH1 0x1 PUSH1 0xA0 SHL SUB AND DUP2 JUMP JUMPDEST PUSH1 0x40 MLOAD PUSH1 0x1 PUSH1 0x1 PUSH1 0xA0 SHL SUB SWAP1 SWAP2 AND DUP2 MSTORE PUSH1 0x20 ADD PUSH2 0x114 JUMP JUMPDEST PUSH1 0x6 SLOAD PUSH2 0x18D SWAP1 PUSH1 0x1 PUSH1 0x1 PUSH1 0xA0 SHL SUB AND DUP2 JUMP JUMPDEST PUSH2 0x145 PUSH1 0xB SLOAD DUP2 JUMP JUMPDEST PUSH1 0x3 SLOAD PUSH2 0x1CD SWAP1 PUSH0 SIGNEXTEND DUP2 JUMP JUMPDEST PUSH1 0x40 MLOAD PUSH0 SWAP2 SWAP1 SWAP2 SIGNEXTEND DUP2 MSTORE PUSH1 0x20 ADD PUSH2 0x114 JUMP JUMPDEST PUSH0 SLOAD PUSH2 0x12A SWAP1 PUSH2 0x100 SWAP1 DIV PUSH1 0xFF AND DUP2 JUMP JUMPDEST PUSH2 0x145 PUSH1 0x2 SLOAD DUP2 JUMP JUMPDEST PUSH2 0x145 PUSH1 0x5 SLOAD DUP2 JUMP JUMPDEST PUSH1 0x9 SLOAD PUSH2 0x18D SWAP1 PUSH1 0x1 PUSH1 0x1 PUSH1 0xA0 SHL SUB AND DUP2 JUMP INVALID LOG2 PUSH5 0x6970667358 0x22 SLT KECCAK256 STOP DUP2 PUSH8 0xCC1395FA0125F297 SHR TLOAD DUP9 SWAP1 LOG0 XOR PUSH8 0x92741AA5BCEAF70E 0xE6 0xCD 0xDB 0x2B PUSH16 0xE564736F6C6343000818003300000000 "
		},
		"gasEstimates": {
			"creation": {
				"codeDepositCost": "117400",
				"executionCost": "231848",
				"totalCost": "349248"
			},
			"external": {
				"addr()": "2381",
				"boo()": "2342",
				"defaultAddr()": "2424",
				"defaultBoo()": "2339",
				"defaultInt()": "2383",
				"defaultUint()": "2362",
				"i()": "2360",
				"i256()": "2361",
				"i8()": "2406",
				"neg()": "2361",
				"newAddr()": "2359",
				"newU()": "2358",
				"u()": "2338",
				"u256()": "2317",
				"u8()": "2344"
			}
		},
		"methodIdentifiers": {
			"addr()": "767800de",
			"boo()": "4b3df200",
			"defaultAddr()": "f2427d37",
			"defaultBoo()": "074eef3f",
			"defaultInt()": "5abe622b",
			"defaultUint()": "1570c2cb",
			"i()": "e5aa3d58",
			"i256()": "4c27fd62",
			"i8()": "921cda74",
			"neg()": "78063b1f",
			"newAddr()": "6a76e307",
			"newU()": "149d8ffc",
			"u()": "c6a898c5",
			"u256()": "459b1acf",
			"u8()": "ab3a58a3"
		}
	},
	"abi": [
		{
			"inputs": [],
			"name": "addr",
			"outputs": [
				{
					"internalType": "address",
					"name": "",
					"type": "address"
				}
			],
			"stateMutability": "view",
			"type": "function"
		},
		{
			"inputs": [],
			"name": "boo",
			"outputs": [
				{
					"internalType": "bool",
					"name": "",
					"type": "bool"
				}
			],
			"stateMutability": "view",
			"type": "function"
		},
		{
			"inputs": [],
			"name": "defaultAddr",
			"outputs": [
				{
					"internalType": "address",
					"name": "",
					"type": "address"
				}
			],
			"stateMutability": "view",
			"type": "function"
		},
		{
			"inputs": [],
			"name": "defaultBoo",
			"outputs": [
				{
					"internalType": "bool",
					"name": "",
					"type": "bool"
				}
			],
			"stateMutability": "view",
			"type": "function"
		},
		{
			"inputs": [],
			"name": "defaultInt",
			"outputs": [
				{
					"internalType": "int256",
					"name": "",
					"type": "int256"
				}
			],
			"stateMutability": "view",
			"type": "function"
		},
		{
			"inputs": [],
			"name": "defaultUint",
			"outputs": [
				{
					"internalType": "uint256",
					"name": "",
					"type": "uint256"
				}
			],
			"stateMutability": "view",
			"type": "function"
		},
		{
			"inputs": [],
			"name": "i",
			"outputs": [
				{
					"internalType": "int256",
					"name": "",
					"type": "int256"
				}
			],
			"stateMutability": "view",
			"type": "function"
		},
		{
			"inputs": [],
			"name": "i256",
			"outputs": [
				{
					"internalType": "int256",
					"name": "",
					"type": "int256"
				}
			],
			"stateMutability": "view",
			"type": "function"
		},
		{
			"inputs": [],
			"name": "i8",
			"outputs": [
				{
					"internalType": "int8",
					"name": "",
					"type": "int8"
				}
			],
			"stateMutability": "view",
			"type": "function"
		},
		{
			"inputs": [],
			"name": "neg",
			"outputs": [
				{
					"internalType": "int256",
					"name": "",
					"type": "int256"
				}
			],
			"stateMutability": "view",
			"type": "function"
		},
		{
			"inputs": [],
			"name": "newAddr",
			"outputs": [
				{
					"internalType": "address",
					"name": "",
					"type": "address"
				}
			],
			"stateMutability": "view",
			"type": "function"
		},
		{
			"inputs": [],
			"name": "newU",
			"outputs": [
				{
					"internalType": "uint8",
					"name": "",
					"type": "uint8"
				}
			],
			"stateMutability": "view",
			"type": "function"
		},
		{
			"inputs": [],
			"name": "u",
			"outputs": [
				{
					"internalType": "uint256",
					"name": "",
					"type": "uint256"
				}
			],
			"stateMutability": "view",
			"type": "function"
		},
		{
			"inputs": [],
			"name": "u256",
			"outputs": [
				{
					"internalType": "uint256",
					"name": "",
					"type": "uint256"
				}
			],
			"stateMutability": "view",
			"type": "function"
		},
		{
			"inputs": [],
			"name": "u8",
			"outputs": [
				{
					"internalType": "uint8",
					"name": "",
					"type": "uint8"
				}
			],
			"stateMutability": "view",
			"type": "function"
		}
	]
}