{
	"data": {
		"bytecode": {
			"linkReferences": {},
			"object": "6080604052348015600e575f80fd5b50607880601a5f395ff3fe608060405260043610601c575f3560e01c806312065fe014602457005b36602257005b005b348015602e575f80fd5b504760405190815260200160405180910390f3fea2646970667358221220e1fe98fbd987b82d53903aa33be1712675c59b03420ab3ea33b7e52d0da0632964736f6c63430008190033",
			"opcodes": "PUSH1 0x80 PUSH1 0x40 MSTORE CALLVALUE DUP1 ISZERO PUSH1 0xE JUMPI PUSH0 DUP1 REVERT JUMPDEST POP PUSH1 0x78 DUP1 PUSH1 0x1A PUSH0 CODECOPY PUSH0 RETURN INVALID PUSH1 0x80 PUSH1 0x40 MSTORE PUSH1 0x4 CALLDATASIZE LT PUSH1 0x1C JUMPI PUSH0 CALLDATALOAD PUSH1 0xE0 SHR DUP1 PUSH4 0x12065FE0 EQ PUSH1 0x24 JUMPI STOP JUMPDEST CALLDATASIZE PUSH1 0x22 JUMPI STOP JUMPDEST STOP JUMPDEST CALLVALUE DUP1 ISZERO PUSH1 0x2E JUMPI PUSH0 DUP1 REVERT JUMPDEST POP SELFBALANCE PUSH1 0x40 MLOAD SWAP1 DUP2 MSTORE PUSH1 0x20 ADD PUSH1 0x40 MLOAD DUP1 SWAP2 SUB SWAP1 RETURN INVALID LOG2 PUSH5 0x6970667358 0x22 SLT KECCAK256 0xE1 INVALID SWAP9 0xFB 0xD9 DUP8 0xB8 0x2D MSTORE8 SWAP1 GASPRICE LOG3 EXTCODESIZE 0xE1 PUSH18 0x2675C59B03420AB3EA33B7E52D0DA0632964 PUSH20 0x6F6C634300081900330000000000000000000000 "
		},
		"gasEstimates": {
			"creation": {
				"codeDepositCost": "24000",
				"executionCost": "73",
				"totalCost": "24073"
			},
			"external": {
				"": "72",
				"getBalance()": "147"
			}
		},
		"methodIdentifiers": {
			"getBalance()": "12065fe0"
		}
	},
	"abi": [
		{
			"stateMutability": "payable",
			"type": "fallback"
		},
		{
			"inputs": [],
			"name": "getBalance",
			"outputs": [
				{
					"internalType": "uint256",
					"name": "",
					"type": "uint256"
				}
			],
			"stateMutability": "view",
			"type": "function"
		},
		{
			"stateMutability": "payable",
			"type": "receive"
		}
	]
}