{
	".learneth/ethereum/remix-workshops/10.2 Transactions - Gas and Gas Price/gasAndGasPrice_answer.sol": {
		"Gas": {
			"abi": [
				{
					"inputs": [],
					"name": "cost",
					"outputs": [
						{
							"internalType": "uint256",
							"name": "",
							"type": "uint256"
						}
					],
					"stateMutability": "view",
					"type": "function"
				},
				{
					"inputs": [],
					"name": "forever",
					"outputs": [],
					"stateMutability": "nonpayable",
					"type": "function"
				},
				{
					"inputs": [],
					"name": "i",
					"outputs": [
						{
							"internalType": "uint256",
							"name": "",
							"type": "uint256"
						}
					],
					"stateMutability": "view",
					"type": "function"
				}
			],
			"devdoc": {
				"kind": "dev",
				"methods": {},
				"version": 1
			},
			"evm": {
				"assembly": "    /* \".learneth/ethereum/remix-workshops/10.2 Transactions - Gas and Gas Price/gasAndGasPrice_answer.sol\":57:463  contract Gas {... */\n  mstore(0x40, 0x80)\n    /* \".learneth/ethereum/remix-workshops/10.2 Transactions - Gas and Gas Price/gasAndGasPrice_answer.sol\":92:93  0 */\n  0x00\n    /* \".learneth/ethereum/remix-workshops/10.2 Transactions - Gas and Gas Price/gasAndGasPrice_answer.sol\":76:93  uint public i = 0 */\n  dup1\n  sstore\n    /* \".learneth/ethereum/remix-workshops/10.2 Transactions - Gas and Gas Price/gasAndGasPrice_answer.sol\":118:124  170367 */\n  0x02997f\n    /* \".learneth/ethereum/remix-workshops/10.2 Transactions - Gas and Gas Price/gasAndGasPrice_answer.sol\":99:124  uint public cost = 170367 */\n  0x01\n  sstore\n    /* \".learneth/ethereum/remix-workshops/10.2 Transactions - Gas and Gas Price/gasAndGasPrice_answer.sol\":57:463  contract Gas {... */\n  callvalue\n  dup1\n  iszero\n  tag_1\n  jumpi\n  0x00\n  dup1\n  revert\ntag_1:\n  pop\n  dataSize(sub_0)\n  dup1\n  dataOffset(sub_0)\n  0x00\n  codecopy\n  0x00\n  return\nstop\n\nsub_0: assembly {\n        /* \".learneth/ethereum/remix-workshops/10.2 Transactions - Gas and Gas Price/gasAndGasPrice_answer.sol\":57:463  contract Gas {... */\n      mstore(0x40, 0x80)\n      callvalue\n      dup1\n      iszero\n      tag_1\n      jumpi\n      0x00\n      dup1\n      revert\n    tag_1:\n      pop\n      jumpi(tag_2, lt(calldatasize, 0x04))\n      shr(0xe0, calldataload(0x00))\n      dup1\n      0x13faede6\n      eq\n      tag_3\n      jumpi\n      dup1\n      0x9ff9a603\n      eq\n      tag_4\n      jumpi\n      dup1\n      0xe5aa3d58\n      eq\n      tag_5\n      jumpi\n    tag_2:\n      0x00\n      dup1\n      revert\n        /* \".learneth/ethereum/remix-workshops/10.2 Transactions - Gas and Gas Price/gasAndGasPrice_answer.sol\":99:124  uint public cost = 170367 */\n    tag_3:\n      tag_6\n      sload(0x01)\n      dup2\n      jump\n    tag_6:\n      mload(0x40)\n        /* \"#utility.yul\":160:185   */\n      swap1\n      dup2\n      mstore\n        /* \"#utility.yul\":148:150   */\n      0x20\n        /* \"#utility.yul\":133:151   */\n      add\n        /* \".learneth/ethereum/remix-workshops/10.2 Transactions - Gas and Gas Price/gasAndGasPrice_answer.sol\":99:124  uint public cost = 170367 */\n      mload(0x40)\n      dup1\n      swap2\n      sub\n      swap1\n      return\n        /* \".learneth/ethereum/remix-workshops/10.2 Transactions - Gas and Gas Price/gasAndGasPrice_answer.sol\":277:461  function forever() public {... */\n    tag_4:\n      tag_10\n      tag_11\n      jump\t// in\n    tag_10:\n      stop\n        /* \".learneth/ethereum/remix-workshops/10.2 Transactions - Gas and Gas Price/gasAndGasPrice_answer.sol\":76:93  uint public i = 0 */\n    tag_5:\n      tag_6\n      sload(0x00)\n      dup2\n      jump\n        /* \".learneth/ethereum/remix-workshops/10.2 Transactions - Gas and Gas Price/gasAndGasPrice_answer.sol\":277:461  function forever() public {... */\n    tag_11:\n        /* \".learneth/ethereum/remix-workshops/10.2 Transactions - Gas and Gas Price/gasAndGasPrice_answer.sol\":443:444  1 */\n      0x01\n        /* \".learneth/ethereum/remix-workshops/10.2 Transactions - Gas and Gas Price/gasAndGasPrice_answer.sol\":438:439  i */\n      0x00\n      dup1\n        /* \".learneth/ethereum/remix-workshops/10.2 Transactions - Gas and Gas Price/gasAndGasPrice_answer.sol\":438:444  i += 1 */\n      dup3\n      dup3\n      sload\n      tag_18\n      swap2\n      swap1\n      tag_19\n      jump\t// in\n    tag_18:\n      swap1\n      swap2\n      sstore\n      pop\n        /* \".learneth/ethereum/remix-workshops/10.2 Transactions - Gas and Gas Price/gasAndGasPrice_answer.sol\":411:455  while (true) {... */\n      tag_11\n      swap1\n      pop\n      jump\n        /* \"#utility.yul\":196:418   */\n    tag_19:\n        /* \"#utility.yul\":261:270   */\n      dup1\n      dup3\n      add\n        /* \"#utility.yul\":282:292   */\n      dup1\n      dup3\n      gt\n        /* \"#utility.yul\":279:412   */\n      iszero\n      tag_23\n      jumpi\n        /* \"#utility.yul\":334:344   */\n      0x4e487b71\n        /* \"#utility.yul\":329:332   */\n      0xe0\n        /* \"#utility.yul\":325:345   */\n      shl\n        /* \"#utility.yul\":322:323   */\n      0x00\n        /* \"#utility.yul\":315:346   */\n      mstore\n        /* \"#utility.yul\":369:373   */\n      0x11\n        /* \"#utility.yul\":366:367   */\n      0x04\n        /* \"#utility.yul\":359:374   */\n      mstore\n        /* \"#utility.yul\":397:401   */\n      0x24\n        /* \"#utility.yul\":394:395   */\n      0x00\n        /* \"#utility.yul\":387:402   */\n      revert\n        /* \"#utility.yul\":279:412   */\n    tag_23:\n        /* \"#utility.yul\":196:418   */\n      swap3\n      swap2\n      pop\n      pop\n      jump\t// out\n\n    auxdata: 0xa2646970667358221220fa4fc0c34921fd70ddc42ebae6e2319cc08b55e6b41053af1c9bd64be569f73d64736f6c63430008180033\n}\n",
				"bytecode": {
					"linkReferences": {},
					"object": "60806040525f80556202997f600155348015610019575f80fd5b5060da806100265f395ff3fe6080604052348015600e575f80fd5b5060043610603a575f3560e01c806313faede614603e5780639ff9a603146058578063e5aa3d58146060575b5f80fd5b604660015481565b60405190815260200160405180910390f35b605e6067565b005b60465f5481565b60015f80828254607691906080565b9091555060679050565b80820180821115609e57634e487b7160e01b5f52601160045260245ffd5b9291505056fea2646970667358221220fa4fc0c34921fd70ddc42ebae6e2319cc08b55e6b41053af1c9bd64be569f73d64736f6c63430008180033",
					"opcodes": "PUSH1 0x80 PUSH1 0x40 MSTORE PUSH0 DUP1 SSTORE PUSH3 0x2997F PUSH1 0x1 SSTORE CALLVALUE DUP1 ISZERO PUSH2 0x19 JUMPI PUSH0 DUP1 REVERT JUMPDEST POP PUSH1 0xDA DUP1 PUSH2 0x26 PUSH0 CODECOPY PUSH0 RETURN INVALID PUSH1 0x80 PUSH1 0x40 MSTORE CALLVALUE DUP1 ISZERO PUSH1 0xE JUMPI PUSH0 DUP1 REVERT JUMPDEST POP PUSH1 0x4 CALLDATASIZE LT PUSH1 0x3A JUMPI PUSH0 CALLDATALOAD PUSH1 0xE0 SHR DUP1 PUSH4 0x13FAEDE6 EQ PUSH1 0x3E JUMPI DUP1 PUSH4 0x9FF9A603 EQ PUSH1 0x58 JUMPI DUP1 PUSH4 0xE5AA3D58 EQ PUSH1 0x60 JUMPI JUMPDEST PUSH0 DUP1 REVERT JUMPDEST PUSH1 0x46 PUSH1 0x1 SLOAD DUP2 JUMP JUMPDEST PUSH1 0x40 MLOAD SWAP1 DUP2 MSTORE PUSH1 0x20 ADD PUSH1 0x40 MLOAD DUP1 SWAP2 SUB SWAP1 RETURN JUMPDEST PUSH1 0x5E PUSH1 0x67 JUMP JUMPDEST STOP JUMPDEST PUSH1 0x46 PUSH0 SLOAD DUP2 JUMP JUMPDEST PUSH1 0x1 PUSH0 DUP1 DUP3 DUP3 SLOAD PUSH1 0x76 SWAP2 SWAP1 PUSH1 0x80 JUMP JUMPDEST SWAP1 SWAP2 SSTORE POP PUSH1 0x67 SWAP1 POP JUMP JUMPDEST DUP1 DUP3 ADD DUP1 DUP3 GT ISZERO PUSH1 0x9E JUMPI PUSH4 0x4E487B71 PUSH1 0xE0 SHL PUSH0 MSTORE PUSH1 0x11 PUSH1 0x4 MSTORE PUSH1 0x24 PUSH0 REVERT JUMPDEST SWAP3 SWAP2 POP POP JUMP INVALID LOG2 PUSH5 0x6970667358 0x22 SLT KECCAK256 STATICCALL 0x4F 0xC0 0xC3 BLOBHASH 0x21 REVERT PUSH17 0xDDC42EBAE6E2319CC08B55E6B41053AF1C SWAP12 0xD6 0x4B 0xE5 PUSH10 0xF73D64736F6C63430008 XOR STOP CALLER "
				},
				"gasEstimates": {
					"creation": {
						"codeDepositCost": "43600",
						"executionCost": "27202",
						"totalCost": "70802"
					},
					"external": {
						"cost()": "2260",
						"forever()": "infinite",
						"i()": "2303"
					}
				},
				"methodIdentifiers": {
					"cost()": "13faede6",
					"forever()": "9ff9a603",
					"i()": "e5aa3d58"
				}
			},
			"storageLayout": {
				"storage": [
					{
						"astId": 4,
						"contract": ".learneth/ethereum/remix-workshops/10.2 Transactions - Gas and Gas Price/gasAndGasPrice_answer.sol:Gas",
						"label": "i",
						"offset": 0,
						"slot": "0",
						"type": "t_uint256"
					},
					{
						"astId": 7,
						"contract": ".learneth/ethereum/remix-workshops/10.2 Transactions - Gas and Gas Price/gasAndGasPrice_answer.sol:Gas",
						"label": "cost",
						"offset": 0,
						"slot": "1",
						"type": "t_uint256"
					}
				],
				"types": {
					"t_uint256": {
						"encoding": "inplace",
						"label": "uint256",
						"numberOfBytes": "32"
					}
				}
			},
			"userdoc": {
				"kind": "user",
				"methods": {},
				"version": 1
			}
		}
	}
}