{
	"data": {
		"bytecode": {
			"linkReferences": {},
			"object": "608060405234801561000f575f80fd5b506101488061001d5f395ff3fe608060405234801561000f575f80fd5b5060043610610055575f3560e01c80630ca21e9c14610059578063370ea142146100635780637bcae55d1461006b578063b0b8579b14610063578063fa030ef114610063575b5f80fd5b610061610073565b005b6100616100c2565b610061610108565b7fcf34ef537ac33ee1ac626ca1587a0a7e8e51561e5514f8cb36afa1c5102b3bab6040516100b8906020808252600390820152626d736760e81b604082015260600190565b60405180910390a1565b7fcf34ef537ac33ee1ac626ca1587a0a7e8e51561e5514f8cb36afa1c5102b3bab6040516100b8906020808252600490820152636261626160e01b604082015260600190565b610110610073565b56fea2646970667358221220996b65afcfad3a01b2f86c436974d2f1e711b6e0cef12cbc8ff856212848012764736f6c63430008180033",
			"opcodes": "PUSH1 0x80 PUSH1 0x40 MSTORE CALLVALUE DUP1 ISZERO PUSH2 0xF JUMPI PUSH0 DUP1 REVERT JUMPDEST POP PUSH2 0x148 DUP1 PUSH2 0x1D PUSH0 CODECOPY PUSH0 RETURN INVALID PUSH1 0x80 PUSH1 0x40 MSTORE CALLVALUE DUP1 ISZERO PUSH2 0xF JUMPI PUSH0 DUP1 REVERT JUMPDEST POP PUSH1 0x4 CALLDATASIZE LT PUSH2 0x55 JUMPI PUSH0 CALLDATALOAD PUSH1 0xE0 SHR DUP1 PUSH4 0xCA21E9C EQ PUSH2 0x59 JUMPI DUP1 PUSH4 0x370EA142 EQ PUSH2 0x63 JUMPI DUP1 PUSH4 0x7BCAE55D EQ PUSH2 0x6B JUMPI DUP1 PUSH4 0xB0B8579B EQ PUSH2 0x63 JUMPI DUP1 PUSH4 0xFA030EF1 EQ PUSH2 0x63 JUMPI JUMPDEST PUSH0 DUP1 REVERT JUMPDEST PUSH2 0x61 PUSH2 0x73 JUMP JUMPDEST STOP JUMPDEST PUSH2 0x61 PUSH2 0xC2 JUMP JUMPDEST PUSH2 0x61 PUSH2 0x108 JUMP JUMPDEST PUSH32 0xCF34EF537AC33EE1AC626CA1587A0A7E8E51561E5514F8CB36AFA1C5102B3BAB PUSH1 0x40 MLOAD PUSH2 0xB8 SWAP1 PUSH1 0x20 DUP1 DUP3 MSTORE PUSH1 0x3 SWAP1 DUP3 ADD MSTORE PUSH3 0x6D7367 PUSH1 0xE8 SHL PUSH1 0x40 DUP3 ADD MSTORE PUSH1 0x60 ADD SWAP1 JUMP JUMPDEST PUSH1 0x40 MLOAD DUP1 SWAP2 SUB SWAP1 LOG1 JUMP JUMPDEST PUSH32 0xCF34EF537AC33EE1AC626CA1587A0A7E8E51561E5514F8CB36AFA1C5102B3BAB PUSH1 0x40 MLOAD PUSH2 0xB8 SWAP1 PUSH1 0x20 DUP1 DUP3 MSTORE PUSH1 0x4 SWAP1 DUP3 ADD MSTORE PUSH4 0x62616261 PUSH1 0xE0 SHL PUSH1 0x40 DUP3 ADD MSTORE PUSH1 0x60 ADD SWAP1 JUMP JUMPDEST PUSH2 0x110 PUSH2 0x73 JUMP JUMPDEST JUMP INVALID LOG2 PUSH5 0x6970667358 0x22 SLT KECCAK256 SWAP10 PUSH12 0x65AFCFAD3A01B2F86C436974 0xD2 CALL 0xE7 GT 0xB6 0xE0 0xCE CALL 0x2C 0xBC DUP16 0xF8 JUMP 0x21 0x28 BASEFEE ADD 0x27 PUSH5 0x736F6C6343 STOP ADDMOD XOR STOP CALLER "
		},
		"gasEstimates": {
			"creation": {
				"codeDepositCost": "65600",
				"executionCost": "115",
				"totalCost": "65715"
			},
			"external": {
				"baba()": "1838",
				"callYeye()": "1818",
				"hip()": "1772",
				"hop()": "1816",
				"yeye()": "1750"
			}
		},
		"methodIdentifiers": {
			"baba()": "fa030ef1",
			"callYeye()": "7bcae55d",
			"hip()": "370ea142",
			"hop()": "b0b8579b",
			"yeye()": "0ca21e9c"
		}
	},
	"abi": [
		{
			"anonymous": false,
			"inputs": [
				{
					"indexed": false,
					"internalType": "string",
					"name": "msg",
					"type": "string"
				}
			],
			"name": "Log",
			"type": "event"
		},
		{
			"inputs": [],
			"name": "baba",
			"outputs": [],
			"stateMutability": "nonpayable",
			"type": "function"
		},
		{
			"inputs": [],
			"name": "callYeye",
			"outputs": [],
			"stateMutability": "nonpayable",
			"type": "function"
		},
		{
			"inputs": [],
			"name": "hip",
			"outputs": [],
			"stateMutability": "nonpayable",
			"type": "function"
		},
		{
			"inputs": [],
			"name": "hop",
			"outputs": [],
			"stateMutability": "nonpayable",
			"type": "function"
		},
		{
			"inputs": [],
			"name": "yeye",
			"outputs": [],
			"stateMutability": "nonpayable",
			"type": "function"
		}
	]
}