{
	"data": {
		"bytecode": {
			"linkReferences": {},
			"object": "608060405234801561000f575f80fd5b506040516100e83803806100e883398101604081905261002e9161003a565b5f819055600155610051565b5f6020828403121561004a575f80fd5b5051919050565b608b8061005d5f395ff3fe6080604052348015600e575f80fd5b50600436106030575f3560e01c80630dbe671f146034578063c3da42b814604d575b5f80fd5b603b5f5481565b60405190815260200160405180910390f35b603b6001548156fea2646970667358221220d16141698f8e4bf590475316443a9755df5b63fdb5b81485adbf15dbca9d6bb064736f6c63430008180033",
			"opcodes": "PUSH1 0x80 PUSH1 0x40 MSTORE CALLVALUE DUP1 ISZERO PUSH2 0xF JUMPI PUSH0 DUP1 REVERT JUMPDEST POP PUSH1 0x40 MLOAD PUSH2 0xE8 CODESIZE SUB DUP1 PUSH2 0xE8 DUP4 CODECOPY DUP2 ADD PUSH1 0x40 DUP2 SWAP1 MSTORE PUSH2 0x2E SWAP2 PUSH2 0x3A JUMP JUMPDEST PUSH0 DUP2 SWAP1 SSTORE PUSH1 0x1 SSTORE PUSH2 0x51 JUMP JUMPDEST PUSH0 PUSH1 0x20 DUP3 DUP5 SUB SLT ISZERO PUSH2 0x4A JUMPI PUSH0 DUP1 REVERT JUMPDEST POP MLOAD SWAP2 SWAP1 POP JUMP JUMPDEST PUSH1 0x8B DUP1 PUSH2 0x5D PUSH0 CODECOPY PUSH0 RETURN INVALID PUSH1 0x80 PUSH1 0x40 MSTORE CALLVALUE DUP1 ISZERO PUSH1 0xE JUMPI PUSH0 DUP1 REVERT JUMPDEST POP PUSH1 0x4 CALLDATASIZE LT PUSH1 0x30 JUMPI PUSH0 CALLDATALOAD PUSH1 0xE0 SHR DUP1 PUSH4 0xDBE671F EQ PUSH1 0x34 JUMPI DUP1 PUSH4 0xC3DA42B8 EQ PUSH1 0x4D JUMPI JUMPDEST PUSH0 DUP1 REVERT JUMPDEST PUSH1 0x3B PUSH0 SLOAD DUP2 JUMP JUMPDEST PUSH1 0x40 MLOAD SWAP1 DUP2 MSTORE PUSH1 0x20 ADD PUSH1 0x40 MLOAD DUP1 SWAP2 SUB SWAP1 RETURN JUMPDEST PUSH1 0x3B PUSH1 0x1 SLOAD DUP2 JUMP INVALID LOG2 PUSH5 0x6970667358 0x22 SLT KECCAK256 0xD1 PUSH2 0x4169 DUP16 DUP15 0x4B CREATE2 SWAP1 SELFBALANCE MSTORE8 AND PREVRANDAO GASPRICE SWAP8 SSTORE 0xDF JUMPDEST PUSH4 0xFDB5B814 DUP6 0xAD 0xBF ISZERO 0xDB 0xCA SWAP14 PUSH12 0xB064736F6C63430008180033 "
		},
		"gasEstimates": {
			"creation": {
				"codeDepositCost": "27800",
				"executionCost": "infinite",
				"totalCost": "infinite"
			},
			"external": {
				"a()": "2259",
				"c()": "2282"
			}
		},
		"methodIdentifiers": {
			"a()": "0dbe671f",
			"c()": "c3da42b8"
		}
	},
	"abi": [
		{
			"inputs": [
				{
					"internalType": "uint256",
					"name": "_c",
					"type": "uint256"
				}
			],
			"stateMutability": "nonpayable",
			"type": "constructor"
		},
		{
			"inputs": [],
			"name": "a",
			"outputs": [
				{
					"internalType": "uint256",
					"name": "",
					"type": "uint256"
				}
			],
			"stateMutability": "view",
			"type": "function"
		},
		{
			"inputs": [],
			"name": "c",
			"outputs": [
				{
					"internalType": "uint256",
					"name": "",
					"type": "uint256"
				}
			],
			"stateMutability": "view",
			"type": "function"
		}
	]
}