{
	"data": {
		"bytecode": {
			"linkReferences": {},
			"object": "608060405234801561000f575f80fd5b505f80556101b7806100205f395ff3fe608060405234801561000f575f80fd5b5060043610610034575f3560e01c806306661abd146100385780636d4ce63c14610042575b5f80fd5b610040610056565b005b5f5460405190815260200160405180910390f35b5f5461006390600161010a565b5f81905560408051808201909152600d81526c636f756e74657220697320257360981b602082015261009491610096565b565b6100db82826040516024016100ac92919061012f565b60408051601f198184030181529190526020810180516001600160e01b0316632d839cb360e21b1790526100df565b5050565b6100e8816100eb565b50565b5f6a636f6e736f6c652e6c6f6790505f80835160208501845afa505050565b8082018082111561012957634e487b7160e01b5f52601160045260245ffd5b92915050565b604081525f83518060408401525f5b8181101561015b576020818701810151606086840101520161013e565b505f606082850101526060601f19601f830116840101915050826020830152939250505056fea26469706673582212200c0890dfa979554fcce0cceb6961d9c8c79baf4d376e255f2574f74c12977a3864736f6c63430008180033",
			"opcodes": "PUSH1 0x80 PUSH1 0x40 MSTORE CALLVALUE DUP1 ISZERO PUSH2 0xF JUMPI PUSH0 DUP1 REVERT JUMPDEST POP PUSH0 DUP1 SSTORE PUSH2 0x1B7 DUP1 PUSH2 0x20 PUSH0 CODECOPY PUSH0 RETURN INVALID PUSH1 0x80 PUSH1 0x40 MSTORE CALLVALUE DUP1 ISZERO PUSH2 0xF JUMPI PUSH0 DUP1 REVERT JUMPDEST POP PUSH1 0x4 CALLDATASIZE LT PUSH2 0x34 JUMPI PUSH0 CALLDATALOAD PUSH1 0xE0 SHR DUP1 PUSH4 0x6661ABD EQ PUSH2 0x38 JUMPI DUP1 PUSH4 0x6D4CE63C EQ PUSH2 0x42 JUMPI JUMPDEST PUSH0 DUP1 REVERT JUMPDEST PUSH2 0x40 PUSH2 0x56 JUMP JUMPDEST STOP JUMPDEST PUSH0 SLOAD PUSH1 0x40 MLOAD SWAP1 DUP2 MSTORE PUSH1 0x20 ADD PUSH1 0x40 MLOAD DUP1 SWAP2 SUB SWAP1 RETURN JUMPDEST PUSH0 SLOAD PUSH2 0x63 SWAP1 PUSH1 0x1 PUSH2 0x10A JUMP JUMPDEST PUSH0 DUP2 SWAP1 SSTORE PUSH1 0x40 DUP1 MLOAD DUP1 DUP3 ADD SWAP1 SWAP2 MSTORE PUSH1 0xD DUP2 MSTORE PUSH13 0x636F756E746572206973202573 PUSH1 0x98 SHL PUSH1 0x20 DUP3 ADD MSTORE PUSH2 0x94 SWAP2 PUSH2 0x96 JUMP JUMPDEST JUMP JUMPDEST PUSH2 0xDB DUP3 DUP3 PUSH1 0x40 MLOAD PUSH1 0x24 ADD PUSH2 0xAC SWAP3 SWAP2 SWAP1 PUSH2 0x12F JUMP JUMPDEST PUSH1 0x40 DUP1 MLOAD PUSH1 0x1F NOT DUP2 DUP5 SUB ADD DUP2 MSTORE SWAP2 SWAP1 MSTORE PUSH1 0x20 DUP2 ADD DUP1 MLOAD PUSH1 0x1 PUSH1 0x1 PUSH1 0xE0 SHL SUB AND PUSH4 0x2D839CB3 PUSH1 0xE2 SHL OR SWAP1 MSTORE PUSH2 0xDF JUMP JUMPDEST POP POP JUMP JUMPDEST PUSH2 0xE8 DUP2 PUSH2 0xEB JUMP JUMPDEST POP JUMP JUMPDEST PUSH0 PUSH11 0x636F6E736F6C652E6C6F67 SWAP1 POP PUSH0 DUP1 DUP4 MLOAD PUSH1 0x20 DUP6 ADD DUP5 GAS STATICCALL POP POP POP JUMP JUMPDEST DUP1 DUP3 ADD DUP1 DUP3 GT ISZERO PUSH2 0x129 JUMPI PUSH4 0x4E487B71 PUSH1 0xE0 SHL PUSH0 MSTORE PUSH1 0x11 PUSH1 0x4 MSTORE PUSH1 0x24 PUSH0 REVERT JUMPDEST SWAP3 SWAP2 POP POP JUMP JUMPDEST PUSH1 0x40 DUP2 MSTORE PUSH0 DUP4 MLOAD DUP1 PUSH1 0x40 DUP5 ADD MSTORE PUSH0 JUMPDEST DUP2 DUP2 LT ISZERO PUSH2 0x15B JUMPI PUSH1 0x20 DUP2 DUP8 ADD DUP2 ADD MLOAD PUSH1 0x60 DUP7 DUP5 ADD ADD MSTORE ADD PUSH2 0x13E JUMP JUMPDEST POP PUSH0 PUSH1 0x60 DUP3 DUP6 ADD ADD MSTORE PUSH1 0x60 PUSH1 0x1F NOT PUSH1 0x1F DUP4 ADD AND DUP5 ADD ADD SWAP2 POP POP DUP3 PUSH1 0x20 DUP4 ADD MSTORE SWAP4 SWAP3 POP POP POP JUMP INVALID LOG2 PUSH5 0x6970667358 0x22 SLT KECCAK256 0xC ADDMOD SWAP1 0xDF 0xA9 PUSH26 0x554FCCE0CCEB6961D9C8C79BAF4D376E255F2574F74C12977A38 PUSH5 0x736F6C6343 STOP ADDMOD XOR STOP CALLER "
		},
		"gasEstimates": {
			"creation": {
				"codeDepositCost": "87800",
				"executionCost": "5138",
				"totalCost": "92938"
			},
			"external": {
				"count()": "infinite",
				"get()": "2266"
			}
		},
		"methodIdentifiers": {
			"count()": "06661abd",
			"get()": "6d4ce63c"
		}
	},
	"abi": [
		{
			"inputs": [],
			"stateMutability": "nonpayable",
			"type": "constructor"
		},
		{
			"inputs": [],
			"name": "count",
			"outputs": [],
			"stateMutability": "nonpayable",
			"type": "function"
		},
		{
			"inputs": [],
			"name": "get",
			"outputs": [
				{
					"internalType": "uint256",
					"name": "",
					"type": "uint256"
				}
			],
			"stateMutability": "view",
			"type": "function"
		}
	]
}