{
	"data": {
		"bytecode": {
			"linkReferences": {},
			"object": "608060405234801561000f575f80fd5b506101b08061001d5f395ff3fe608060405234801561000f575f80fd5b506004361061005f575f3560e01c8062d52f27146100635780630ca21e9c1461006d578063370ea142146100755780637bcae55d1461007d578063b0b8579b14610075578063fa030ef114610085575b5f80fd5b61006b61008d565b005b61006b610097565b61006b6100e6565b61006b61012c565b61006b610134565b610095610134565b565b7fcf34ef537ac33ee1ac626ca1587a0a7e8e51561e5514f8cb36afa1c5102b3bab6040516100dc906020808252600390820152626d736760e81b604082015260600190565b60405180910390a1565b7fcf34ef537ac33ee1ac626ca1587a0a7e8e51561e5514f8cb36afa1c5102b3bab6040516100dc9060208082526004908201526365727a6960e01b604082015260600190565b610095610097565b7fcf34ef537ac33ee1ac626ca1587a0a7e8e51561e5514f8cb36afa1c5102b3bab6040516100dc906020808252600490820152636261626160e01b60408201526060019056fea2646970667358221220ffa83bdb83948775e244ec0cedf8c988887b5c6067f0341538602691711e3eac64736f6c63430008180033",
			"opcodes": "PUSH1 0x80 PUSH1 0x40 MSTORE CALLVALUE DUP1 ISZERO PUSH2 0xF JUMPI PUSH0 DUP1 REVERT JUMPDEST POP PUSH2 0x1B0 DUP1 PUSH2 0x1D PUSH0 CODECOPY PUSH0 RETURN INVALID PUSH1 0x80 PUSH1 0x40 MSTORE CALLVALUE DUP1 ISZERO PUSH2 0xF JUMPI PUSH0 DUP1 REVERT JUMPDEST POP PUSH1 0x4 CALLDATASIZE LT PUSH2 0x5F JUMPI PUSH0 CALLDATALOAD PUSH1 0xE0 SHR DUP1 PUSH3 0xD52F27 EQ PUSH2 0x63 JUMPI DUP1 PUSH4 0xCA21E9C EQ PUSH2 0x6D JUMPI DUP1 PUSH4 0x370EA142 EQ PUSH2 0x75 JUMPI DUP1 PUSH4 0x7BCAE55D EQ PUSH2 0x7D JUMPI DUP1 PUSH4 0xB0B8579B EQ PUSH2 0x75 JUMPI DUP1 PUSH4 0xFA030EF1 EQ PUSH2 0x85 JUMPI JUMPDEST PUSH0 DUP1 REVERT JUMPDEST PUSH2 0x6B PUSH2 0x8D JUMP JUMPDEST STOP JUMPDEST PUSH2 0x6B PUSH2 0x97 JUMP JUMPDEST PUSH2 0x6B PUSH2 0xE6 JUMP JUMPDEST PUSH2 0x6B PUSH2 0x12C JUMP JUMPDEST PUSH2 0x6B PUSH2 0x134 JUMP JUMPDEST PUSH2 0x95 PUSH2 0x134 JUMP JUMPDEST JUMP JUMPDEST PUSH32 0xCF34EF537AC33EE1AC626CA1587A0A7E8E51561E5514F8CB36AFA1C5102B3BAB PUSH1 0x40 MLOAD PUSH2 0xDC SWAP1 PUSH1 0x20 DUP1 DUP3 MSTORE PUSH1 0x3 SWAP1 DUP3 ADD MSTORE PUSH3 0x6D7367 PUSH1 0xE8 SHL PUSH1 0x40 DUP3 ADD MSTORE PUSH1 0x60 ADD SWAP1 JUMP JUMPDEST PUSH1 0x40 MLOAD DUP1 SWAP2 SUB SWAP1 LOG1 JUMP JUMPDEST PUSH32 0xCF34EF537AC33EE1AC626CA1587A0A7E8E51561E5514F8CB36AFA1C5102B3BAB PUSH1 0x40 MLOAD PUSH2 0xDC SWAP1 PUSH1 0x20 DUP1 DUP3 MSTORE PUSH1 0x4 SWAP1 DUP3 ADD MSTORE PUSH4 0x65727A69 PUSH1 0xE0 SHL PUSH1 0x40 DUP3 ADD MSTORE PUSH1 0x60 ADD SWAP1 JUMP JUMPDEST PUSH2 0x95 PUSH2 0x97 JUMP JUMPDEST PUSH32 0xCF34EF537AC33EE1AC626CA1587A0A7E8E51561E5514F8CB36AFA1C5102B3BAB PUSH1 0x40 MLOAD PUSH2 0xDC SWAP1 PUSH1 0x20 DUP1 DUP3 MSTORE PUSH1 0x4 SWAP1 DUP3 ADD MSTORE PUSH4 0x62616261 PUSH1 0xE0 SHL PUSH1 0x40 DUP3 ADD MSTORE PUSH1 0x60 ADD SWAP1 JUMP INVALID LOG2 PUSH5 0x6970667358 0x22 SLT KECCAK256 SELFDESTRUCT 0xA8 EXTCODESIZE 0xDB DUP4 SWAP5 DUP8 PUSH22 0xE244EC0CEDF8C988887B5C6067F0341538602691711E RETURNDATACOPY 0xAC PUSH5 0x736F6C6343 STOP ADDMOD XOR STOP CALLER "
		},
		"gasEstimates": {
			"creation": {
				"codeDepositCost": "86400",
				"executionCost": "133",
				"totalCost": "86533"
			},
			"external": {
				"baba()": "1860",
				"callYeye()": "1840",
				"hip()": "1794",
				"hop()": "1838",
				"superCall()": "1774",
				"yeye()": "1772"
			}
		},
		"methodIdentifiers": {
			"baba()": "fa030ef1",
			"callYeye()": "7bcae55d",
			"hip()": "370ea142",
			"hop()": "b0b8579b",
			"superCall()": "00d52f27",
			"yeye()": "0ca21e9c"
		}
	},
	"abi": [
		{
			"anonymous": false,
			"inputs": [
				{
					"indexed": false,
					"internalType": "string",
					"name": "msg",
					"type": "string"
				}
			],
			"name": "Log",
			"type": "event"
		},
		{
			"inputs": [],
			"name": "baba",
			"outputs": [],
			"stateMutability": "nonpayable",
			"type": "function"
		},
		{
			"inputs": [],
			"name": "callYeye",
			"outputs": [],
			"stateMutability": "nonpayable",
			"type": "function"
		},
		{
			"inputs": [],
			"name": "hip",
			"outputs": [],
			"stateMutability": "nonpayable",
			"type": "function"
		},
		{
			"inputs": [],
			"name": "hop",
			"outputs": [],
			"stateMutability": "nonpayable",
			"type": "function"
		},
		{
			"inputs": [],
			"name": "superCall",
			"outputs": [],
			"stateMutability": "nonpayable",
			"type": "function"
		},
		{
			"inputs": [],
			"name": "yeye",
			"outputs": [],
			"stateMutability": "nonpayable",
			"type": "function"
		}
	]
}