{
	"data": {
		"bytecode": {
			"linkReferences": {},
			"object": "60055f81905561012060405260016080818152600260a052600360c052600460e05261010083905261003092610036565b50610098565b828054828255905f5260205f20908101928215610074579160200282015b82811115610074578251829060ff16905591602001919060010190610054565b50610080929150610084565b5090565b5b80821115610080575f8155600101610085565b610813806100a55f395ff3fe6080604052600436106100d9575f3560e01c80636188a6c01161007c5780637032c4f2116100575780637032c4f21461026757806380b4ea08146102865780638381f58a1461029a578063b262eb7f146102ae575f80fd5b80636188a6c0146102085780636297206f146102345780636a8d1e0814610253575f80fd5b80632a2d0c47116100b75780632a2d0c471461018b578063303810a6146101bf5780633f4263ef146101d55780634f2be91f146101f4575f80fd5b806307272160146100dd57806314605b4a146101265780632002899014610177575b5f80fd5b3480156100e8575f80fd5b506101246100f7366004610609565b5f9182526002602052604090912080546001600160a01b0319166001600160a01b03909216919091179055565b005b348015610131575f80fd5b5061015a610140366004610633565b60036020525f90815260409020546001600160a01b031681565b6040516001600160a01b0390911681526020015b60405180910390f35b348015610182575f80fd5b506101246102c2565b348015610196575f80fd5b5061015a6101a5366004610653565b60026020525f90815260409020546001600160a01b031681565b6101c761037e565b60405190815260200161016e565b3480156101e0575f80fd5b506101c76101ef366004610653565b61038c565b3480156101ff575f80fd5b506101246103ab565b348015610213575f80fd5b5061022761022236600461067e565b6103bc565b60405161016e9190610737565b34801561023f575f80fd5b5061022761024e36600461067e565b6104a7565b34801561025e575f80fd5b5061012461058a565b348015610272575f80fd5b506101c7610281366004610653565b6105b1565b348015610291575f80fd5b506101246105c3565b3480156102a5575f80fd5b506101c75f5481565b3480156102b9575f80fd5b506101c76105cd565b5f600180548060200260200160405190810160405280929190818152602001828054801561030d57602002820191905f5260205f20905b8154815260200190600101908083116102f9575b50505050509050600a815f815181106103285761032861077a565b6020026020010181815250506014816001815181106103495761034961077a565b6020026020010181815250505f81905061012c815f8151811061036e5761036e61077a565b6020026020010181815250505050565b5f6103876105e0565b504790565b6001818154811061039b575f80fd5b5f91825260209091200154905081565b5f546103b89060016107a2565b5f55565b606060015b82518110156104a0575f8382815181106103dd576103dd61077a565b602002602001015190505f6001836103f591906107b5565b90505b84818151811061040a5761040a61077a565b602002602001015182101561046e5784818151811061042b5761042b61077a565b60200260200101518582600161044191906107a2565b815181106104515761045161077a565b602090810291909101015280610466816107c8565b9150506103f8565b818561047b8360016107a2565b8151811061048b5761048b61077a565b602090810291909101015250506001016103c1565b5090919050565b606060015b82518110156104a0575f8382815181106104c8576104c861077a565b602002602001015190505f8290505b6001811015801561050a575081856104f06001846107b5565b815181106105005761050061077a565b6020026020010151115b15610562578461051b6001836107b5565b8151811061052b5761052b61077a565b60200260200101518582815181106105455761054561077a565b60209081029190910101528061055a816107c8565b9150506104d7565b818582815181106105755761057561077a565b602090810291909101015250506001016104ac565b5f600190506064815f815481106105a3576105a361077a565b5f9182526020909120015550565b5f6105bd8260016107a2565b92915050565b6105cb6105e0565b565b5f80546105db9060016107a2565b905090565b60015f546103b891906107b5565b80356001600160a01b0381168114610604575f80fd5b919050565b5f806040838503121561061a575f80fd5b8235915061062a602084016105ee565b90509250929050565b5f60208284031215610643575f80fd5b61064c826105ee565b9392505050565b5f60208284031215610663575f80fd5b5035919050565b634e487b7160e01b5f52604160045260245ffd5b5f602080838503121561068f575f80fd5b823567ffffffffffffffff808211156106a6575f80fd5b818501915085601f8301126106b9575f80fd5b8135818111156106cb576106cb61066a565b8060051b604051601f19603f830116810181811085821117156106f0576106f061066a565b60405291825284820192508381018501918883111561070d575f80fd5b938501935b8285101561072b57843584529385019392850192610712565b98975050505050505050565b602080825282518282018190525f9190848201906040850190845b8181101561076e57835183529284019291840191600101610752565b50909695505050505050565b634e487b7160e01b5f52603260045260245ffd5b634e487b7160e01b5f52601160045260245ffd5b808201808211156105bd576105bd61078e565b818103818111156105bd576105bd61078e565b5f816107d6576107d661078e565b505f19019056fea2646970667358221220fd22650023fa24b2a8f055c9605312be032011c666ecf3752e2da71cb17d534364736f6c63430008180033",
			"opcodes": "PUSH1 0x5 PUSH0 DUP2 SWAP1 SSTORE PUSH2 0x120 PUSH1 0x40 MSTORE PUSH1 0x1 PUSH1 0x80 DUP2 DUP2 MSTORE PUSH1 0x2 PUSH1 0xA0 MSTORE PUSH1 0x3 PUSH1 0xC0 MSTORE PUSH1 0x4 PUSH1 0xE0 MSTORE PUSH2 0x100 DUP4 SWAP1 MSTORE PUSH2 0x30 SWAP3 PUSH2 0x36 JUMP JUMPDEST POP PUSH2 0x98 JUMP JUMPDEST DUP3 DUP1 SLOAD DUP3 DUP3 SSTORE SWAP1 PUSH0 MSTORE PUSH1 0x20 PUSH0 KECCAK256 SWAP1 DUP2 ADD SWAP3 DUP3 ISZERO PUSH2 0x74 JUMPI SWAP2 PUSH1 0x20 MUL DUP3 ADD JUMPDEST DUP3 DUP2 GT ISZERO PUSH2 0x74 JUMPI DUP3 MLOAD DUP3 SWAP1 PUSH1 0xFF AND SWAP1 SSTORE SWAP2 PUSH1 0x20 ADD SWAP2 SWAP1 PUSH1 0x1 ADD SWAP1 PUSH2 0x54 JUMP JUMPDEST POP PUSH2 0x80 SWAP3 SWAP2 POP PUSH2 0x84 JUMP JUMPDEST POP SWAP1 JUMP JUMPDEST JUMPDEST DUP1 DUP3 GT ISZERO PUSH2 0x80 JUMPI PUSH0 DUP2 SSTORE PUSH1 0x1 ADD PUSH2 0x85 JUMP JUMPDEST PUSH2 0x813 DUP1 PUSH2 0xA5 PUSH0 CODECOPY PUSH0 RETURN INVALID PUSH1 0x80 PUSH1 0x40 MSTORE PUSH1 0x4 CALLDATASIZE LT PUSH2 0xD9 JUMPI PUSH0 CALLDATALOAD PUSH1 0xE0 SHR DUP1 PUSH4 0x6188A6C0 GT PUSH2 0x7C JUMPI DUP1 PUSH4 0x7032C4F2 GT PUSH2 0x57 JUMPI DUP1 PUSH4 0x7032C4F2 EQ PUSH2 0x267 JUMPI DUP1 PUSH4 0x80B4EA08 EQ PUSH2 0x286 JUMPI DUP1 PUSH4 0x8381F58A EQ PUSH2 0x29A JUMPI DUP1 PUSH4 0xB262EB7F EQ PUSH2 0x2AE JUMPI PUSH0 DUP1 REVERT JUMPDEST DUP1 PUSH4 0x6188A6C0 EQ PUSH2 0x208 JUMPI DUP1 PUSH4 0x6297206F EQ PUSH2 0x234 JUMPI DUP1 PUSH4 0x6A8D1E08 EQ PUSH2 0x253 JUMPI PUSH0 DUP1 REVERT JUMPDEST DUP1 PUSH4 0x2A2D0C47 GT PUSH2 0xB7 JUMPI DUP1 PUSH4 0x2A2D0C47 EQ PUSH2 0x18B JUMPI DUP1 PUSH4 0x303810A6 EQ PUSH2 0x1BF JUMPI DUP1 PUSH4 0x3F4263EF EQ PUSH2 0x1D5 JUMPI DUP1 PUSH4 0x4F2BE91F EQ PUSH2 0x1F4 JUMPI PUSH0 DUP1 REVERT JUMPDEST DUP1 PUSH4 0x7272160 EQ PUSH2 0xDD JUMPI DUP1 PUSH4 0x14605B4A EQ PUSH2 0x126 JUMPI DUP1 PUSH4 0x20028990 EQ PUSH2 0x177 JUMPI JUMPDEST PUSH0 DUP1 REVERT JUMPDEST CALLVALUE DUP1 ISZERO PUSH2 0xE8 JUMPI PUSH0 DUP1 REVERT JUMPDEST POP PUSH2 0x124 PUSH2 0xF7 CALLDATASIZE PUSH1 0x4 PUSH2 0x609 JUMP JUMPDEST PUSH0 SWAP2 DUP3 MSTORE PUSH1 0x2 PUSH1 0x20 MSTORE PUSH1 0x40 SWAP1 SWAP2 KECCAK256 DUP1 SLOAD PUSH1 0x1 PUSH1 0x1 PUSH1 0xA0 SHL SUB NOT AND PUSH1 0x1 PUSH1 0x1 PUSH1 0xA0 SHL SUB SWAP1 SWAP3 AND SWAP2 SWAP1 SWAP2 OR SWAP1 SSTORE JUMP JUMPDEST STOP JUMPDEST CALLVALUE DUP1 ISZERO PUSH2 0x131 JUMPI PUSH0 DUP1 REVERT JUMPDEST POP PUSH2 0x15A PUSH2 0x140 CALLDATASIZE PUSH1 0x4 PUSH2 0x633 JUMP JUMPDEST PUSH1 0x3 PUSH1 0x20 MSTORE PUSH0 SWAP1 DUP2 MSTORE PUSH1 0x40 SWAP1 KECCAK256 SLOAD PUSH1 0x1 PUSH1 0x1 PUSH1 0xA0 SHL SUB AND DUP2 JUMP JUMPDEST PUSH1 0x40 MLOAD PUSH1 0x1 PUSH1 0x1 PUSH1 0xA0 SHL SUB SWAP1 SWAP2 AND DUP2 MSTORE PUSH1 0x20 ADD JUMPDEST PUSH1 0x40 MLOAD DUP1 SWAP2 SUB SWAP1 RETURN JUMPDEST CALLVALUE DUP1 ISZERO PUSH2 0x182 JUMPI PUSH0 DUP1 REVERT JUMPDEST POP PUSH2 0x124 PUSH2 0x2C2 JUMP JUMPDEST CALLVALUE DUP1 ISZERO PUSH2 0x196 JUMPI PUSH0 DUP1 REVERT JUMPDEST POP PUSH2 0x15A PUSH2 0x1A5 CALLDATASIZE PUSH1 0x4 PUSH2 0x653 JUMP JUMPDEST PUSH1 0x2 PUSH1 0x20 MSTORE PUSH0 SWAP1 DUP2 MSTORE PUSH1 0x40 SWAP1 KECCAK256 SLOAD PUSH1 0x1 PUSH1 0x1 PUSH1 0xA0 SHL SUB AND DUP2 JUMP JUMPDEST PUSH2 0x1C7 PUSH2 0x37E JUMP JUMPDEST PUSH1 0x40 MLOAD SWAP1 DUP2 MSTORE PUSH1 0x20 ADD PUSH2 0x16E JUMP JUMPDEST CALLVALUE DUP1 ISZERO PUSH2 0x1E0 JUMPI PUSH0 DUP1 REVERT JUMPDEST POP PUSH2 0x1C7 PUSH2 0x1EF CALLDATASIZE PUSH1 0x4 PUSH2 0x653 JUMP JUMPDEST PUSH2 0x38C JUMP JUMPDEST CALLVALUE DUP1 ISZERO PUSH2 0x1FF JUMPI PUSH0 DUP1 REVERT JUMPDEST POP PUSH2 0x124 PUSH2 0x3AB JUMP JUMPDEST CALLVALUE DUP1 ISZERO PUSH2 0x213 JUMPI PUSH0 DUP1 REVERT JUMPDEST POP PUSH2 0x227 PUSH2 0x222 CALLDATASIZE PUSH1 0x4 PUSH2 0x67E JUMP JUMPDEST PUSH2 0x3BC JUMP JUMPDEST PUSH1 0x40 MLOAD PUSH2 0x16E SWAP2 SWAP1 PUSH2 0x737 JUMP JUMPDEST CALLVALUE DUP1 ISZERO PUSH2 0x23F JUMPI PUSH0 DUP1 REVERT JUMPDEST POP PUSH2 0x227 PUSH2 0x24E CALLDATASIZE PUSH1 0x4 PUSH2 0x67E JUMP JUMPDEST PUSH2 0x4A7 JUMP JUMPDEST CALLVALUE DUP1 ISZERO PUSH2 0x25E JUMPI PUSH0 DUP1 REVERT JUMPDEST POP PUSH2 0x124 PUSH2 0x58A JUMP JUMPDEST CALLVALUE DUP1 ISZERO PUSH2 0x272 JUMPI PUSH0 DUP1 REVERT JUMPDEST POP PUSH2 0x1C7 PUSH2 0x281 CALLDATASIZE PUSH1 0x4 PUSH2 0x653 JUMP JUMPDEST PUSH2 0x5B1 JUMP JUMPDEST CALLVALUE DUP1 ISZERO PUSH2 0x291 JUMPI PUSH0 DUP1 REVERT JUMPDEST POP PUSH2 0x124 PUSH2 0x5C3 JUMP JUMPDEST CALLVALUE DUP1 ISZERO PUSH2 0x2A5 JUMPI PUSH0 DUP1 REVERT JUMPDEST POP PUSH2 0x1C7 PUSH0 SLOAD DUP2 JUMP JUMPDEST CALLVALUE DUP1 ISZERO PUSH2 0x2B9 JUMPI PUSH0 DUP1 REVERT JUMPDEST POP PUSH2 0x1C7 PUSH2 0x5CD JUMP JUMPDEST PUSH0 PUSH1 0x1 DUP1 SLOAD DUP1 PUSH1 0x20 MUL PUSH1 0x20 ADD PUSH1 0x40 MLOAD SWAP1 DUP2 ADD PUSH1 0x40 MSTORE DUP1 SWAP3 SWAP2 SWAP1 DUP2 DUP2 MSTORE PUSH1 0x20 ADD DUP3 DUP1 SLOAD DUP1 ISZERO PUSH2 0x30D JUMPI PUSH1 0x20 MUL DUP3 ADD SWAP2 SWAP1 PUSH0 MSTORE PUSH1 0x20 PUSH0 KECCAK256 SWAP1 JUMPDEST DUP2 SLOAD DUP2 MSTORE PUSH1 0x20 ADD SWAP1 PUSH1 0x1 ADD SWAP1 DUP1 DUP4 GT PUSH2 0x2F9 JUMPI JUMPDEST POP POP POP POP POP SWAP1 POP PUSH1 0xA DUP2 PUSH0 DUP2 MLOAD DUP2 LT PUSH2 0x328 JUMPI PUSH2 0x328 PUSH2 0x77A JUMP JUMPDEST PUSH1 0x20 MUL PUSH1 0x20 ADD ADD DUP2 DUP2 MSTORE POP POP PUSH1 0x14 DUP2 PUSH1 0x1 DUP2 MLOAD DUP2 LT PUSH2 0x349 JUMPI PUSH2 0x349 PUSH2 0x77A JUMP JUMPDEST PUSH1 0x20 MUL PUSH1 0x20 ADD ADD DUP2 DUP2 MSTORE POP POP PUSH0 DUP2 SWAP1 POP PUSH2 0x12C DUP2 PUSH0 DUP2 MLOAD DUP2 LT PUSH2 0x36E JUMPI PUSH2 0x36E PUSH2 0x77A JUMP JUMPDEST PUSH1 0x20 MUL PUSH1 0x20 ADD ADD DUP2 DUP2 MSTORE POP POP POP POP JUMP JUMPDEST PUSH0 PUSH2 0x387 PUSH2 0x5E0 JUMP JUMPDEST POP SELFBALANCE SWAP1 JUMP JUMPDEST PUSH1 0x1 DUP2 DUP2 SLOAD DUP2 LT PUSH2 0x39B JUMPI PUSH0 DUP1 REVERT JUMPDEST PUSH0 SWAP2 DUP3 MSTORE PUSH1 0x20 SWAP1 SWAP2 KECCAK256 ADD SLOAD SWAP1 POP DUP2 JUMP JUMPDEST PUSH0 SLOAD PUSH2 0x3B8 SWAP1 PUSH1 0x1 PUSH2 0x7A2 JUMP JUMPDEST PUSH0 SSTORE JUMP JUMPDEST PUSH1 0x60 PUSH1 0x1 JUMPDEST DUP3 MLOAD DUP2 LT ISZERO PUSH2 0x4A0 JUMPI PUSH0 DUP4 DUP3 DUP2 MLOAD DUP2 LT PUSH2 0x3DD JUMPI PUSH2 0x3DD PUSH2 0x77A JUMP JUMPDEST PUSH1 0x20 MUL PUSH1 0x20 ADD ADD MLOAD SWAP1 POP PUSH0 PUSH1 0x1 DUP4 PUSH2 0x3F5 SWAP2 SWAP1 PUSH2 0x7B5 JUMP JUMPDEST SWAP1 POP JUMPDEST DUP5 DUP2 DUP2 MLOAD DUP2 LT PUSH2 0x40A JUMPI PUSH2 0x40A PUSH2 0x77A JUMP JUMPDEST PUSH1 0x20 MUL PUSH1 0x20 ADD ADD MLOAD DUP3 LT ISZERO PUSH2 0x46E JUMPI DUP5 DUP2 DUP2 MLOAD DUP2 LT PUSH2 0x42B JUMPI PUSH2 0x42B PUSH2 0x77A JUMP JUMPDEST PUSH1 0x20 MUL PUSH1 0x20 ADD ADD MLOAD DUP6 DUP3 PUSH1 0x1 PUSH2 0x441 SWAP2 SWAP1 PUSH2 0x7A2 JUMP JUMPDEST DUP2 MLOAD DUP2 LT PUSH2 0x451 JUMPI PUSH2 0x451 PUSH2 0x77A JUMP JUMPDEST PUSH1 0x20 SWAP1 DUP2 MUL SWAP2 SWAP1 SWAP2 ADD ADD MSTORE DUP1 PUSH2 0x466 DUP2 PUSH2 0x7C8 JUMP JUMPDEST SWAP2 POP POP PUSH2 0x3F8 JUMP JUMPDEST DUP2 DUP6 PUSH2 0x47B DUP4 PUSH1 0x1 PUSH2 0x7A2 JUMP JUMPDEST DUP2 MLOAD DUP2 LT PUSH2 0x48B JUMPI PUSH2 0x48B PUSH2 0x77A JUMP JUMPDEST PUSH1 0x20 SWAP1 DUP2 MUL SWAP2 SWAP1 SWAP2 ADD ADD MSTORE POP POP PUSH1 0x1 ADD PUSH2 0x3C1 JUMP JUMPDEST POP SWAP1 SWAP2 SWAP1 POP JUMP JUMPDEST PUSH1 0x60 PUSH1 0x1 JUMPDEST DUP3 MLOAD DUP2 LT ISZERO PUSH2 0x4A0 JUMPI PUSH0 DUP4 DUP3 DUP2 MLOAD DUP2 LT PUSH2 0x4C8 JUMPI PUSH2 0x4C8 PUSH2 0x77A JUMP JUMPDEST PUSH1 0x20 MUL PUSH1 0x20 ADD ADD MLOAD SWAP1 POP PUSH0 DUP3 SWAP1 POP JUMPDEST PUSH1 0x1 DUP2 LT ISZERO DUP1 ISZERO PUSH2 0x50A JUMPI POP DUP2 DUP6 PUSH2 0x4F0 PUSH1 0x1 DUP5 PUSH2 0x7B5 JUMP JUMPDEST DUP2 MLOAD DUP2 LT PUSH2 0x500 JUMPI PUSH2 0x500 PUSH2 0x77A JUMP JUMPDEST PUSH1 0x20 MUL PUSH1 0x20 ADD ADD MLOAD GT JUMPDEST ISZERO PUSH2 0x562 JUMPI DUP5 PUSH2 0x51B PUSH1 0x1 DUP4 PUSH2 0x7B5 JUMP JUMPDEST DUP2 MLOAD DUP2 LT PUSH2 0x52B JUMPI PUSH2 0x52B PUSH2 0x77A JUMP JUMPDEST PUSH1 0x20 MUL PUSH1 0x20 ADD ADD MLOAD DUP6 DUP3 DUP2 MLOAD DUP2 LT PUSH2 0x545 JUMPI PUSH2 0x545 PUSH2 0x77A JUMP JUMPDEST PUSH1 0x20 SWAP1 DUP2 MUL SWAP2 SWAP1 SWAP2 ADD ADD MSTORE DUP1 PUSH2 0x55A DUP2 PUSH2 0x7C8 JUMP JUMPDEST SWAP2 POP POP PUSH2 0x4D7 JUMP JUMPDEST DUP2 DUP6 DUP3 DUP2 MLOAD DUP2 LT PUSH2 0x575 JUMPI PUSH2 0x575 PUSH2 0x77A JUMP JUMPDEST PUSH1 0x20 SWAP1 DUP2 MUL SWAP2 SWAP1 SWAP2 ADD ADD MSTORE POP POP PUSH1 0x1 ADD PUSH2 0x4AC JUMP JUMPDEST PUSH0 PUSH1 0x1 SWAP1 POP PUSH1 0x64 DUP2 PUSH0 DUP2 SLOAD DUP2 LT PUSH2 0x5A3 JUMPI PUSH2 0x5A3 PUSH2 0x77A JUMP JUMPDEST PUSH0 SWAP2 DUP3 MSTORE PUSH1 0x20 SWAP1 SWAP2 KECCAK256 ADD SSTORE POP JUMP JUMPDEST PUSH0 PUSH2 0x5BD DUP3 PUSH1 0x1 PUSH2 0x7A2 JUMP JUMPDEST SWAP3 SWAP2 POP POP JUMP JUMPDEST PUSH2 0x5CB PUSH2 0x5E0 JUMP JUMPDEST JUMP JUMPDEST PUSH0 DUP1 SLOAD PUSH2 0x5DB SWAP1 PUSH1 0x1 PUSH2 0x7A2 JUMP JUMPDEST SWAP1 POP SWAP1 JUMP JUMPDEST PUSH1 0x1 PUSH0 SLOAD PUSH2 0x3B8 SWAP2 SWAP1 PUSH2 0x7B5 JUMP JUMPDEST DUP1 CALLDATALOAD PUSH1 0x1 PUSH1 0x1 PUSH1 0xA0 SHL SUB DUP2 AND DUP2 EQ PUSH2 0x604 JUMPI PUSH0 DUP1 REVERT JUMPDEST SWAP2 SWAP1 POP JUMP JUMPDEST PUSH0 DUP1 PUSH1 0x40 DUP4 DUP6 SUB SLT ISZERO PUSH2 0x61A JUMPI PUSH0 DUP1 REVERT JUMPDEST DUP3 CALLDATALOAD SWAP2 POP PUSH2 0x62A PUSH1 0x20 DUP5 ADD PUSH2 0x5EE JUMP JUMPDEST SWAP1 POP SWAP3 POP SWAP3 SWAP1 POP JUMP JUMPDEST PUSH0 PUSH1 0x20 DUP3 DUP5 SUB SLT ISZERO PUSH2 0x643 JUMPI PUSH0 DUP1 REVERT JUMPDEST PUSH2 0x64C DUP3 PUSH2 0x5EE JUMP JUMPDEST SWAP4 SWAP3 POP POP POP JUMP JUMPDEST PUSH0 PUSH1 0x20 DUP3 DUP5 SUB SLT ISZERO PUSH2 0x663 JUMPI PUSH0 DUP1 REVERT JUMPDEST POP CALLDATALOAD SWAP2 SWAP1 POP JUMP JUMPDEST PUSH4 0x4E487B71 PUSH1 0xE0 SHL PUSH0 MSTORE PUSH1 0x41 PUSH1 0x4 MSTORE PUSH1 0x24 PUSH0 REVERT JUMPDEST PUSH0 PUSH1 0x20 DUP1 DUP4 DUP6 SUB SLT ISZERO PUSH2 0x68F JUMPI PUSH0 DUP1 REVERT JUMPDEST DUP3 CALLDATALOAD PUSH8 0xFFFFFFFFFFFFFFFF DUP1 DUP3 GT ISZERO PUSH2 0x6A6 JUMPI PUSH0 DUP1 REVERT JUMPDEST DUP2 DUP6 ADD SWAP2 POP DUP6 PUSH1 0x1F DUP4 ADD SLT PUSH2 0x6B9 JUMPI PUSH0 DUP1 REVERT JUMPDEST DUP2 CALLDATALOAD DUP2 DUP2 GT ISZERO PUSH2 0x6CB JUMPI PUSH2 0x6CB PUSH2 0x66A JUMP JUMPDEST DUP1 PUSH1 0x5 SHL PUSH1 0x40 MLOAD PUSH1 0x1F NOT PUSH1 0x3F DUP4 ADD AND DUP2 ADD DUP2 DUP2 LT DUP6 DUP3 GT OR ISZERO PUSH2 0x6F0 JUMPI PUSH2 0x6F0 PUSH2 0x66A JUMP JUMPDEST PUSH1 0x40 MSTORE SWAP2 DUP3 MSTORE DUP5 DUP3 ADD SWAP3 POP DUP4 DUP2 ADD DUP6 ADD SWAP2 DUP9 DUP4 GT ISZERO PUSH2 0x70D JUMPI PUSH0 DUP1 REVERT JUMPDEST SWAP4 DUP6 ADD SWAP4 JUMPDEST DUP3 DUP6 LT ISZERO PUSH2 0x72B JUMPI DUP5 CALLDATALOAD DUP5 MSTORE SWAP4 DUP6 ADD SWAP4 SWAP3 DUP6 ADD SWAP3 PUSH2 0x712 JUMP JUMPDEST SWAP9 SWAP8 POP POP POP POP POP POP POP POP JUMP JUMPDEST PUSH1 0x20 DUP1 DUP3 MSTORE DUP3 MLOAD DUP3 DUP3 ADD DUP2 SWAP1 MSTORE PUSH0 SWAP2 SWAP1 DUP5 DUP3 ADD SWAP1 PUSH1 0x40 DUP6 ADD SWAP1 DUP5 JUMPDEST DUP2 DUP2 LT ISZERO PUSH2 0x76E JUMPI DUP4 MLOAD DUP4 MSTORE SWAP3 DUP5 ADD SWAP3 SWAP2 DUP5 ADD SWAP2 PUSH1 0x1 ADD PUSH2 0x752 JUMP JUMPDEST POP SWAP1 SWAP7 SWAP6 POP POP POP POP POP POP JUMP JUMPDEST PUSH4 0x4E487B71 PUSH1 0xE0 SHL PUSH0 MSTORE PUSH1 0x32 PUSH1 0x4 MSTORE PUSH1 0x24 PUSH0 REVERT JUMPDEST PUSH4 0x4E487B71 PUSH1 0xE0 SHL PUSH0 MSTORE PUSH1 0x11 PUSH1 0x4 MSTORE PUSH1 0x24 PUSH0 REVERT JUMPDEST DUP1 DUP3 ADD DUP1 DUP3 GT ISZERO PUSH2 0x5BD JUMPI PUSH2 0x5BD PUSH2 0x78E JUMP JUMPDEST DUP2 DUP2 SUB DUP2 DUP2 GT ISZERO PUSH2 0x5BD JUMPI PUSH2 0x5BD PUSH2 0x78E JUMP JUMPDEST PUSH0 DUP2 PUSH2 0x7D6 JUMPI PUSH2 0x7D6 PUSH2 0x78E JUMP JUMPDEST POP PUSH0 NOT ADD SWAP1 JUMP INVALID LOG2 PUSH5 0x6970667358 0x22 SLT KECCAK256 REVERT 0x22 PUSH6 0x23FA24B2A8 CREATE SSTORE 0xC9 PUSH1 0x53 SLT 0xBE SUB KECCAK256 GT 0xC6 PUSH7 0xECF3752E2DA71C 0xB1 PUSH30 0x534364736F6C634300081800330000000000000000000000000000000000 "
		},
		"gasEstimates": {
			"creation": {
				"codeDepositCost": "413400",
				"executionCost": "infinite",
				"totalCost": "infinite"
			},
			"external": {
				"add()": "24511",
				"addPure(uint256)": "infinite",
				"addView()": "2476",
				"fMemory()": "infinite",
				"fStorage()": "24512",
				"idToAddress(uint256)": "2486",
				"insertionSort(uint256[])": "infinite",
				"insertionSortWrong(uint256[])": "infinite",
				"minusCall()": "24493",
				"minusPayable()": "24539",
				"number()": "2359",
				"swapPair(address)": "2590",
				"writeMap(uint256,address)": "24672",
				"x(uint256)": "4639"
			},
			"internal": {
				"minus()": "24291"
			}
		},
		"methodIdentifiers": {
			"add()": "4f2be91f",
			"addPure(uint256)": "7032c4f2",
			"addView()": "b262eb7f",
			"fMemory()": "20028990",
			"fStorage()": "6a8d1e08",
			"idToAddress(uint256)": "2a2d0c47",
			"insertionSort(uint256[])": "6297206f",
			"insertionSortWrong(uint256[])": "6188a6c0",
			"minusCall()": "80b4ea08",
			"minusPayable()": "303810a6",
			"number()": "8381f58a",
			"swapPair(address)": "14605b4a",
			"writeMap(uint256,address)": "07272160",
			"x(uint256)": "3f4263ef"
		}
	},
	"abi": [
		{
			"inputs": [],
			"stateMutability": "payable",
			"type": "constructor"
		},
		{
			"inputs": [],
			"name": "add",
			"outputs": [],
			"stateMutability": "nonpayable",
			"type": "function"
		},
		{
			"inputs": [
				{
					"internalType": "uint256",
					"name": "_number",
					"type": "uint256"
				}
			],
			"name": "addPure",
			"outputs": [
				{
					"internalType": "uint256",
					"name": "new_number",
					"type": "uint256"
				}
			],
			"stateMutability": "pure",
			"type": "function"
		},
		{
			"inputs": [],
			"name": "addView",
			"outputs": [
				{
					"internalType": "uint256",
					"name": "new_number",
					"type": "uint256"
				}
			],
			"stateMutability": "view",
			"type": "function"
		},
		{
			"inputs": [],
			"name": "fMemory",
			"outputs": [],
			"stateMutability": "view",
			"type": "function"
		},
		{
			"inputs": [],
			"name": "fStorage",
			"outputs": [],
			"stateMutability": "nonpayable",
			"type": "function"
		},
		{
			"inputs": [
				{
					"internalType": "uint256",
					"name": "",
					"type": "uint256"
				}
			],
			"name": "idToAddress",
			"outputs": [
				{
					"internalType": "address",
					"name": "",
					"type": "address"
				}
			],
			"stateMutability": "view",
			"type": "function"
		},
		{
			"inputs": [
				{
					"internalType": "uint256[]",
					"name": "a",
					"type": "uint256[]"
				}
			],
			"name": "insertionSort",
			"outputs": [
				{
					"internalType": "uint256[]",
					"name": "",
					"type": "uint256[]"
				}
			],
			"stateMutability": "pure",
			"type": "function"
		},
		{
			"inputs": [
				{
					"internalType": "uint256[]",
					"name": "a",
					"type": "uint256[]"
				}
			],
			"name": "insertionSortWrong",
			"outputs": [
				{
					"internalType": "uint256[]",
					"name": "",
					"type": "uint256[]"
				}
			],
			"stateMutability": "pure",
			"type": "function"
		},
		{
			"inputs": [],
			"name": "minusCall",
			"outputs": [],
			"stateMutability": "nonpayable",
			"type": "function"
		},
		{
			"inputs": [],
			"name": "minusPayable",
			"outputs": [
				{
					"internalType": "uint256",
					"name": "balance",
					"type": "uint256"
				}
			],
			"stateMutability": "payable",
			"type": "function"
		},
		{
			"inputs": [],
			"name": "number",
			"outputs": [
				{
					"internalType": "uint256",
					"name": "",
					"type": "uint256"
				}
			],
			"stateMutability": "view",
			"type": "function"
		},
		{
			"inputs": [
				{
					"internalType": "address",
					"name": "",
					"type": "address"
				}
			],
			"name": "swapPair",
			"outputs": [
				{
					"internalType": "address",
					"name": "",
					"type": "address"
				}
			],
			"stateMutability": "view",
			"type": "function"
		},
		{
			"inputs": [
				{
					"internalType": "uint256",
					"name": "_key",
					"type": "uint256"
				},
				{
					"internalType": "address",
					"name": "_vlaue",
					"type": "address"
				}
			],
			"name": "writeMap",
			"outputs": [],
			"stateMutability": "nonpayable",
			"type": "function"
		},
		{
			"inputs": [
				{
					"internalType": "uint256",
					"name": "",
					"type": "uint256"
				}
			],
			"name": "x",
			"outputs": [
				{
					"internalType": "uint256",
					"name": "",
					"type": "uint256"
				}
			],
			"stateMutability": "view",
			"type": "function"
		}
	]
}