{
	"data": {
		"bytecode": {
			"linkReferences": {},
			"object": "608060405234801561000f575f80fd5b506101648061001d5f395ff3fe608060405234801561000f575f80fd5b5060043610610034575f3560e01c80634534a43814610038578063d2406c7814610064575b5f80fd5b61004b6100463660046100dd565b610077565b6040805192835260208301919091520160405180910390f35b61004b6100723660046100dd565b6100b5565b5f8082610083846100b5565b92509250610092600282610108565b1580156100a757506100a5600382610108565b155b6100af575f80fd5b50915091565b5f80806100c360028561011b565b90505f6100d160038661011b565b91959194509092505050565b5f602082840312156100ed575f80fd5b5035919050565b634e487b7160e01b5f52601260045260245ffd5b5f82610116576101166100f4565b500690565b5f82610129576101296100f4565b50049056fea2646970667358221220aa45951bb73f78a798987c23aa85693c6126d71d7c2f41545b384e338ccb7f1e64736f6c63430008180033",
			"opcodes": "PUSH1 0x80 PUSH1 0x40 MSTORE CALLVALUE DUP1 ISZERO PUSH2 0xF JUMPI PUSH0 DUP1 REVERT JUMPDEST POP PUSH2 0x164 DUP1 PUSH2 0x1D PUSH0 CODECOPY PUSH0 RETURN INVALID PUSH1 0x80 PUSH1 0x40 MSTORE CALLVALUE DUP1 ISZERO PUSH2 0xF JUMPI PUSH0 DUP1 REVERT JUMPDEST POP PUSH1 0x4 CALLDATASIZE LT PUSH2 0x34 JUMPI PUSH0 CALLDATALOAD PUSH1 0xE0 SHR DUP1 PUSH4 0x4534A438 EQ PUSH2 0x38 JUMPI DUP1 PUSH4 0xD2406C78 EQ PUSH2 0x64 JUMPI JUMPDEST PUSH0 DUP1 REVERT JUMPDEST PUSH2 0x4B PUSH2 0x46 CALLDATASIZE PUSH1 0x4 PUSH2 0xDD JUMP JUMPDEST PUSH2 0x77 JUMP JUMPDEST PUSH1 0x40 DUP1 MLOAD SWAP3 DUP4 MSTORE PUSH1 0x20 DUP4 ADD SWAP2 SWAP1 SWAP2 MSTORE ADD PUSH1 0x40 MLOAD DUP1 SWAP2 SUB SWAP1 RETURN JUMPDEST PUSH2 0x4B PUSH2 0x72 CALLDATASIZE PUSH1 0x4 PUSH2 0xDD JUMP JUMPDEST PUSH2 0xB5 JUMP JUMPDEST PUSH0 DUP1 DUP3 PUSH2 0x83 DUP5 PUSH2 0xB5 JUMP JUMPDEST SWAP3 POP SWAP3 POP PUSH2 0x92 PUSH1 0x2 DUP3 PUSH2 0x108 JUMP JUMPDEST ISZERO DUP1 ISZERO PUSH2 0xA7 JUMPI POP PUSH2 0xA5 PUSH1 0x3 DUP3 PUSH2 0x108 JUMP JUMPDEST ISZERO JUMPDEST PUSH2 0xAF JUMPI PUSH0 DUP1 REVERT JUMPDEST POP SWAP2 POP SWAP2 JUMP JUMPDEST PUSH0 DUP1 DUP1 PUSH2 0xC3 PUSH1 0x2 DUP6 PUSH2 0x11B JUMP JUMPDEST SWAP1 POP PUSH0 PUSH2 0xD1 PUSH1 0x3 DUP7 PUSH2 0x11B JUMP JUMPDEST SWAP2 SWAP6 SWAP2 SWAP5 POP SWAP1 SWAP3 POP POP POP JUMP JUMPDEST PUSH0 PUSH1 0x20 DUP3 DUP5 SUB SLT ISZERO PUSH2 0xED JUMPI PUSH0 DUP1 REVERT JUMPDEST POP CALLDATALOAD SWAP2 SWAP1 POP JUMP JUMPDEST PUSH4 0x4E487B71 PUSH1 0xE0 SHL PUSH0 MSTORE PUSH1 0x12 PUSH1 0x4 MSTORE PUSH1 0x24 PUSH0 REVERT JUMPDEST PUSH0 DUP3 PUSH2 0x116 JUMPI PUSH2 0x116 PUSH2 0xF4 JUMP JUMPDEST POP MOD SWAP1 JUMP JUMPDEST PUSH0 DUP3 PUSH2 0x129 JUMPI PUSH2 0x129 PUSH2 0xF4 JUMP JUMPDEST POP DIV SWAP1 JUMP INVALID LOG2 PUSH5 0x6970667358 0x22 SLT KECCAK256 0xAA GASLIMIT SWAP6 SHL 0xB7 EXTCODEHASH PUSH25 0xA798987C23AA85693C6126D71D7C2F41545B384E338CCB7F1E PUSH5 0x736F6C6343 STOP ADDMOD XOR STOP CALLER "
		},
		"gasEstimates": {
			"creation": {
				"codeDepositCost": "71200",
				"executionCost": "121",
				"totalCost": "71321"
			},
			"external": {
				"getExactDividedBy2And3(uint256)": "infinite",
				"getExactDividedBy2And3WithoutModifier(uint256)": "infinite"
			}
		},
		"methodIdentifiers": {
			"getExactDividedBy2And3(uint256)": "4534a438",
			"getExactDividedBy2And3WithoutModifier(uint256)": "d2406c78"
		}
	},
	"abi": [
		{
			"inputs": [
				{
					"internalType": "uint256",
					"name": "_a",
					"type": "uint256"
				}
			],
			"name": "getExactDividedBy2And3",
			"outputs": [
				{
					"internalType": "uint256",
					"name": "",
					"type": "uint256"
				},
				{
					"internalType": "uint256",
					"name": "",
					"type": "uint256"
				}
			],
			"stateMutability": "pure",
			"type": "function"
		},
		{
			"inputs": [
				{
					"internalType": "uint256",
					"name": "_dividend",
					"type": "uint256"
				}
			],
			"name": "getExactDividedBy2And3WithoutModifier",
			"outputs": [
				{
					"internalType": "uint256",
					"name": "",
					"type": "uint256"
				},
				{
					"internalType": "uint256",
					"name": "",
					"type": "uint256"
				}
			],
			"stateMutability": "pure",
			"type": "function"
		}
	]
}